{
	"src/Airdrop.sol": {
		"Airdrop": {
			"abi": [
				{
					"inputs": [
						{
							"internalType": "contract IERC20",
							"name": "_antToken",
							"type": "address"
						}
					],
					"stateMutability": "nonpayable",
					"type": "constructor"
				},
				{
					"inputs": [],
					"name": "EmptyRecipientsArray",
					"type": "error"
				},
				{
					"inputs": [],
					"name": "InvalidAmount",
					"type": "error"
				},
				{
					"inputs": [
						{
							"internalType": "uint256",
							"name": "idx",
							"type": "uint256"
						}
					],
					"name": "InvalidRecipient",
					"type": "error"
				},
				{
					"inputs": [
						{
							"internalType": "address",
							"name": "owner",
							"type": "address"
						}
					],
					"name": "OwnableInvalidOwner",
					"type": "error"
				},
				{
					"inputs": [
						{
							"internalType": "address",
							"name": "account",
							"type": "address"
						}
					],
					"name": "OwnableUnauthorizedAccount",
					"type": "error"
				},
				{
					"inputs": [
						{
							"internalType": "address",
							"name": "token",
							"type": "address"
						}
					],
					"name": "SafeERC20FailedOperation",
					"type": "error"
				},
				{
					"anonymous": false,
					"inputs": [
						{
							"components": [
								{
									"internalType": "address",
									"name": "recipient",
									"type": "address"
								},
								{
									"internalType": "uint256",
									"name": "amount",
									"type": "uint256"
								}
							],
							"indexed": true,
							"internalType": "struct Airdrop.AirdropRecipient[]",
							"name": "recipients",
							"type": "tuple[]"
						}
					],
					"name": "BatchAirdropCompleted",
					"type": "event"
				},
				{
					"anonymous": false,
					"inputs": [
						{
							"indexed": true,
							"internalType": "address",
							"name": "previousOwner",
							"type": "address"
						},
						{
							"indexed": true,
							"internalType": "address",
							"name": "newOwner",
							"type": "address"
						}
					],
					"name": "OwnershipTransferred",
					"type": "event"
				},
				{
					"anonymous": false,
					"inputs": [
						{
							"indexed": false,
							"internalType": "address[]",
							"name": "recipients",
							"type": "address[]"
						},
						{
							"indexed": false,
							"internalType": "uint256",
							"name": "amountEach",
							"type": "uint256"
						}
					],
					"name": "UniformAirdropCompleted",
					"type": "event"
				},
				{
					"inputs": [],
					"name": "antToken",
					"outputs": [
						{
							"internalType": "contract IERC20",
							"name": "",
							"type": "address"
						}
					],
					"stateMutability": "view",
					"type": "function"
				},
				{
					"inputs": [
						{
							"components": [
								{
									"internalType": "address",
									"name": "recipient",
									"type": "address"
								},
								{
									"internalType": "uint256",
									"name": "amount",
									"type": "uint256"
								}
							],
							"internalType": "struct Airdrop.AirdropRecipient[]",
							"name": "recipients",
							"type": "tuple[]"
						}
					],
					"name": "batchAirdrop",
					"outputs": [],
					"stateMutability": "nonpayable",
					"type": "function"
				},
				{
					"inputs": [],
					"name": "owner",
					"outputs": [
						{
							"internalType": "address",
							"name": "",
							"type": "address"
						}
					],
					"stateMutability": "view",
					"type": "function"
				},
				{
					"inputs": [],
					"name": "renounceOwnership",
					"outputs": [],
					"stateMutability": "nonpayable",
					"type": "function"
				},
				{
					"inputs": [
						{
							"internalType": "contract IERC20",
							"name": "_antToken",
							"type": "address"
						}
					],
					"name": "setAntToken",
					"outputs": [],
					"stateMutability": "nonpayable",
					"type": "function"
				},
				{
					"inputs": [
						{
							"internalType": "address",
							"name": "newOwner",
							"type": "address"
						}
					],
					"name": "transferOwnership",
					"outputs": [],
					"stateMutability": "nonpayable",
					"type": "function"
				},
				{
					"inputs": [
						{
							"internalType": "address[]",
							"name": "recipients",
							"type": "address[]"
						},
						{
							"internalType": "uint256",
							"name": "amountEach",
							"type": "uint256"
						}
					],
					"name": "uniformAirdrop",
					"outputs": [],
					"stateMutability": "nonpayable",
					"type": "function"
				},
				{
					"inputs": [
						{
							"internalType": "uint256",
							"name": "amount",
							"type": "uint256"
						}
					],
					"name": "withdraw",
					"outputs": [],
					"stateMutability": "nonpayable",
					"type": "function"
				}
			],
			"devdoc": {
				"errors": {
					"OwnableInvalidOwner(address)": [
						{
							"details": "The owner is not a valid owner account. (eg. `address(0)`)"
						}
					],
					"OwnableUnauthorizedAccount(address)": [
						{
							"details": "The caller account is not authorized to perform an operation."
						}
					],
					"SafeERC20FailedOperation(address)": [
						{
							"details": "An operation with an ERC-20 token failed."
						}
					]
				},
				"kind": "dev",
				"methods": {
					"batchAirdrop((address,uint256)[])": {
						"params": {
							"recipients": "Array of recipient addresses and amounts"
						}
					},
					"owner()": {
						"details": "Returns the address of the current owner."
					},
					"renounceOwnership()": {
						"details": "Leaves the contract without owner. It will not be possible to call `onlyOwner` functions. Can only be called by the current owner. NOTE: Renouncing ownership will leave the contract without an owner, thereby disabling any functionality that is only available to the owner."
					},
					"transferOwnership(address)": {
						"details": "Transfers ownership of the contract to a new account (`newOwner`). Can only be called by the current owner."
					}
				},
				"version": 1
			},
			"evm": {
				"assembly": "    /* \"src/Airdrop.sol\":234:2244  contract Airdrop is Ownable {... */\n  mstore(0x40, 0x80)\n    /* \"src/Airdrop.sol\":712:799  constructor(IERC20 _antToken) Ownable(msg.sender) {... */\n  callvalue\n  dup1\n  iszero\n  tag_1\n  jumpi\n  revert(0x00, 0x00)\ntag_1:\n  pop\n  mload(0x40)\n  sub(codesize, bytecodeSize)\n  dup1\n  bytecodeSize\n  dup4\n  codecopy\n  dup2\n  dup2\n  add\n  0x40\n  mstore\n  dup2\n  add\n  swap1\n  tag_2\n  swap2\n  swap1\n  tag_3\n  jump\t// in\ntag_2:\n    /* \"src/Airdrop.sol\":750:760  msg.sender */\n  caller\n    /* \"lib/openzeppelin-contracts/contracts/access/Ownable.sol\":1297:1298  0 */\n  0x00\n    /* \"lib/openzeppelin-contracts/contracts/access/Ownable.sol\":1273:1299  initialOwner == address(0) */\n  0xffffffffffffffffffffffffffffffffffffffff\n  and\n    /* \"lib/openzeppelin-contracts/contracts/access/Ownable.sol\":1273:1285  initialOwner */\n  dup2\n    /* \"lib/openzeppelin-contracts/contracts/access/Ownable.sol\":1273:1299  initialOwner == address(0) */\n  0xffffffffffffffffffffffffffffffffffffffff\n  and\n  sub\n    /* \"lib/openzeppelin-contracts/contracts/access/Ownable.sol\":1269:1364  if (initialOwner == address(0)) {... */\n  tag_7\n  jumpi\n    /* \"lib/openzeppelin-contracts/contracts/access/Ownable.sol\":1350:1351  0 */\n  0x00\n    /* \"lib/openzeppelin-contracts/contracts/access/Ownable.sol\":1322:1353  OwnableInvalidOwner(address(0)) */\n  mload(0x40)\n  0x1e4fbdf700000000000000000000000000000000000000000000000000000000\n  dup2\n  mstore\n  0x04\n  add\n  tag_8\n  swap2\n  swap1\n  tag_9\n  jump\t// in\ntag_8:\n  mload(0x40)\n  dup1\n  swap2\n  sub\n  swap1\n  revert\n    /* \"lib/openzeppelin-contracts/contracts/access/Ownable.sol\":1269:1364  if (initialOwner == address(0)) {... */\ntag_7:\n    /* \"lib/openzeppelin-contracts/contracts/access/Ownable.sol\":1373:1405  _transferOwnership(initialOwner) */\n  tag_10\n    /* \"lib/openzeppelin-contracts/contracts/access/Ownable.sol\":1392:1404  initialOwner */\n  dup2\n    /* \"lib/openzeppelin-contracts/contracts/access/Ownable.sol\":1373:1391  _transferOwnership */\n  shl(0x20, tag_11)\n    /* \"lib/openzeppelin-contracts/contracts/access/Ownable.sol\":1373:1405  _transferOwnership(initialOwner) */\n  0x20\n  shr\n  jump\t// in\ntag_10:\n    /* \"lib/openzeppelin-contracts/contracts/access/Ownable.sol\":1225:1412  constructor(address initialOwner) {... */\n  pop\n    /* \"src/Airdrop.sol\":783:792  _antToken */\n  dup1\n    /* \"src/Airdrop.sol\":772:780  antToken */\n  0x01\n  0x00\n    /* \"src/Airdrop.sol\":772:792  antToken = _antToken */\n  0x0100\n  exp\n  dup2\n  sload\n  dup2\n  0xffffffffffffffffffffffffffffffffffffffff\n  mul\n  not\n  and\n  swap1\n  dup4\n  0xffffffffffffffffffffffffffffffffffffffff\n  and\n  mul\n  or\n  swap1\n  sstore\n  pop\n    /* \"src/Airdrop.sol\":712:799  constructor(IERC20 _antToken) Ownable(msg.sender) {... */\n  pop\n    /* \"src/Airdrop.sol\":234:2244  contract Airdrop is Ownable {... */\n  jump(tag_13)\n    /* \"lib/openzeppelin-contracts/contracts/access/Ownable.sol\":2912:3099  function _transferOwnership(address newOwner) internal virtual {... */\ntag_11:\n    /* \"lib/openzeppelin-contracts/contracts/access/Ownable.sol\":2985:3001  address oldOwner */\n  0x00\n    /* \"lib/openzeppelin-contracts/contracts/access/Ownable.sol\":3004:3010  _owner */\n  0x00\n  0x00\n  swap1\n  sload\n  swap1\n  0x0100\n  exp\n  swap1\n  div\n  0xffffffffffffffffffffffffffffffffffffffff\n  and\n    /* \"lib/openzeppelin-contracts/contracts/access/Ownable.sol\":2985:3010  address oldOwner = _owner */\n  swap1\n  pop\n    /* \"lib/openzeppelin-contracts/contracts/access/Ownable.sol\":3029:3037  newOwner */\n  dup2\n    /* \"lib/openzeppelin-contracts/contracts/access/Ownable.sol\":3020:3026  _owner */\n  0x00\n  0x00\n    /* \"lib/openzeppelin-contracts/contracts/access/Ownable.sol\":3020:3037  _owner = newOwner */\n  0x0100\n  exp\n  dup2\n  sload\n  dup2\n  0xffffffffffffffffffffffffffffffffffffffff\n  mul\n  not\n  and\n  swap1\n  dup4\n  0xffffffffffffffffffffffffffffffffffffffff\n  and\n  mul\n  or\n  swap1\n  sstore\n  pop\n    /* \"lib/openzeppelin-contracts/contracts/access/Ownable.sol\":3083:3091  newOwner */\n  dup2\n    /* \"lib/openzeppelin-contracts/contracts/access/Ownable.sol\":3052:3092  OwnershipTransferred(oldOwner, newOwner) */\n  0xffffffffffffffffffffffffffffffffffffffff\n  and\n    /* \"lib/openzeppelin-contracts/contracts/access/Ownable.sol\":3073:3081  oldOwner */\n  dup2\n    /* \"lib/openzeppelin-contracts/contracts/access/Ownable.sol\":3052:3092  OwnershipTransferred(oldOwner, newOwner) */\n  0xffffffffffffffffffffffffffffffffffffffff\n  and\n  0x8be0079c531659141344cd1fd0a4f28419497f9722a3daafe3b4186f6b6457e0\n  mload(0x40)\n  mload(0x40)\n  dup1\n  swap2\n  sub\n  swap1\n  log3\n    /* \"lib/openzeppelin-contracts/contracts/access/Ownable.sol\":2975:3099  {... */\n  pop\n    /* \"lib/openzeppelin-contracts/contracts/access/Ownable.sol\":2912:3099  function _transferOwnership(address newOwner) internal virtual {... */\n  pop\n  jump\t// out\n    /* \"#utility.yul\":88:205   */\ntag_16:\n    /* \"#utility.yul\":197:198   */\n  0x00\n    /* \"#utility.yul\":194:195   */\n  0x00\n    /* \"#utility.yul\":187:199   */\n  revert\n    /* \"#utility.yul\":334:460   */\ntag_18:\n    /* \"#utility.yul\":371:378   */\n  0x00\n    /* \"#utility.yul\":411:453   */\n  0xffffffffffffffffffffffffffffffffffffffff\n    /* \"#utility.yul\":404:409   */\n  dup3\n    /* \"#utility.yul\":400:454   */\n  and\n    /* \"#utility.yul\":389:454   */\n  swap1\n  pop\n    /* \"#utility.yul\":334:460   */\n  swap2\n  swap1\n  pop\n  jump\t// out\n    /* \"#utility.yul\":466:562   */\ntag_19:\n    /* \"#utility.yul\":503:510   */\n  0x00\n    /* \"#utility.yul\":532:556   */\n  tag_30\n    /* \"#utility.yul\":550:555   */\n  dup3\n    /* \"#utility.yul\":532:556   */\n  tag_18\n  jump\t// in\ntag_30:\n    /* \"#utility.yul\":521:556   */\n  swap1\n  pop\n    /* \"#utility.yul\":466:562   */\n  swap2\n  swap1\n  pop\n  jump\t// out\n    /* \"#utility.yul\":568:678   */\ntag_20:\n    /* \"#utility.yul\":619:626   */\n  0x00\n    /* \"#utility.yul\":648:672   */\n  tag_32\n    /* \"#utility.yul\":666:671   */\n  dup3\n    /* \"#utility.yul\":648:672   */\n  tag_19\n  jump\t// in\ntag_32:\n    /* \"#utility.yul\":637:672   */\n  swap1\n  pop\n    /* \"#utility.yul\":568:678   */\n  swap2\n  swap1\n  pop\n  jump\t// out\n    /* \"#utility.yul\":684:834   */\ntag_21:\n    /* \"#utility.yul\":771:809   */\n  tag_34\n    /* \"#utility.yul\":803:808   */\n  dup2\n    /* \"#utility.yul\":771:809   */\n  tag_20\n  jump\t// in\ntag_34:\n    /* \"#utility.yul\":764:769   */\n  dup2\n    /* \"#utility.yul\":761:810   */\n  eq\n    /* \"#utility.yul\":751:828   */\n  tag_35\n  jumpi\n    /* \"#utility.yul\":824:825   */\n  0x00\n    /* \"#utility.yul\":821:822   */\n  0x00\n    /* \"#utility.yul\":814:826   */\n  revert\n    /* \"#utility.yul\":751:828   */\ntag_35:\n    /* \"#utility.yul\":684:834   */\n  pop\n  jump\t// out\n    /* \"#utility.yul\":840:1011   */\ntag_22:\n    /* \"#utility.yul\":911:916   */\n  0x00\n    /* \"#utility.yul\":942:948   */\n  dup2\n    /* \"#utility.yul\":936:949   */\n  mload\n    /* \"#utility.yul\":927:949   */\n  swap1\n  pop\n    /* \"#utility.yul\":958:1005   */\n  tag_37\n    /* \"#utility.yul\":999:1004   */\n  dup2\n    /* \"#utility.yul\":958:1005   */\n  tag_21\n  jump\t// in\ntag_37:\n    /* \"#utility.yul\":840:1011   */\n  swap3\n  swap2\n  pop\n  pop\n  jump\t// out\n    /* \"#utility.yul\":1017:1396   */\ntag_3:\n    /* \"#utility.yul\":1101:1107   */\n  0x00\n    /* \"#utility.yul\":1150:1152   */\n  0x20\n    /* \"#utility.yul\":1138:1147   */\n  dup3\n    /* \"#utility.yul\":1129:1136   */\n  dup5\n    /* \"#utility.yul\":1125:1148   */\n  sub\n    /* \"#utility.yul\":1121:1153   */\n  slt\n    /* \"#utility.yul\":1118:1237   */\n  iszero\n  tag_39\n  jumpi\n    /* \"#utility.yul\":1156:1235   */\n  tag_40\n  tag_16\n  jump\t// in\ntag_40:\n    /* \"#utility.yul\":1118:1237   */\ntag_39:\n    /* \"#utility.yul\":1276:1277   */\n  0x00\n    /* \"#utility.yul\":1301:1379   */\n  tag_41\n    /* \"#utility.yul\":1371:1378   */\n  dup5\n    /* \"#utility.yul\":1362:1368   */\n  dup3\n    /* \"#utility.yul\":1351:1360   */\n  dup6\n    /* \"#utility.yul\":1347:1369   */\n  add\n    /* \"#utility.yul\":1301:1379   */\n  tag_22\n  jump\t// in\ntag_41:\n    /* \"#utility.yul\":1291:1379   */\n  swap2\n  pop\n    /* \"#utility.yul\":1247:1389   */\n  pop\n    /* \"#utility.yul\":1017:1396   */\n  swap3\n  swap2\n  pop\n  pop\n  jump\t// out\n    /* \"#utility.yul\":1402:1520   */\ntag_23:\n    /* \"#utility.yul\":1489:1513   */\n  tag_43\n    /* \"#utility.yul\":1507:1512   */\n  dup2\n    /* \"#utility.yul\":1489:1513   */\n  tag_19\n  jump\t// in\ntag_43:\n    /* \"#utility.yul\":1484:1487   */\n  dup3\n    /* \"#utility.yul\":1477:1514   */\n  mstore\n    /* \"#utility.yul\":1402:1520   */\n  pop\n  pop\n  jump\t// out\n    /* \"#utility.yul\":1526:1748   */\ntag_9:\n    /* \"#utility.yul\":1619:1623   */\n  0x00\n    /* \"#utility.yul\":1657:1659   */\n  0x20\n    /* \"#utility.yul\":1646:1655   */\n  dup3\n    /* \"#utility.yul\":1642:1660   */\n  add\n    /* \"#utility.yul\":1634:1660   */\n  swap1\n  pop\n    /* \"#utility.yul\":1670:1741   */\n  tag_45\n    /* \"#utility.yul\":1738:1739   */\n  0x00\n    /* \"#utility.yul\":1727:1736   */\n  dup4\n    /* \"#utility.yul\":1723:1740   */\n  add\n    /* \"#utility.yul\":1714:1720   */\n  dup5\n    /* \"#utility.yul\":1670:1741   */\n  tag_23\n  jump\t// in\ntag_45:\n    /* \"#utility.yul\":1526:1748   */\n  swap3\n  swap2\n  pop\n  pop\n  jump\t// out\n    /* \"src/Airdrop.sol\":234:2244  contract Airdrop is Ownable {... */\ntag_13:\n  dataSize(sub_0)\n  dup1\n  dataOffset(sub_0)\n  0x00\n  codecopy\n  0x00\n  return\nstop\n\nsub_0: assembly {\n        /* \"src/Airdrop.sol\":234:2244  contract Airdrop is Ownable {... */\n      mstore(0x40, 0x80)\n      callvalue\n      dup1\n      iszero\n      tag_1\n      jumpi\n      revert(0x00, 0x00)\n    tag_1:\n      pop\n      jumpi(tag_2, lt(calldatasize, 0x04))\n      shr(0xe0, calldataload(0x00))\n      dup1\n      0x7acd1f73\n      gt\n      tag_11\n      jumpi\n      dup1\n      0x7acd1f73\n      eq\n      tag_7\n      jumpi\n      dup1\n      0x8da5cb5b\n      eq\n      tag_8\n      jumpi\n      dup1\n      0xdaa328d4\n      eq\n      tag_9\n      jumpi\n      dup1\n      0xf2fde38b\n      eq\n      tag_10\n      jumpi\n      jump(tag_2)\n    tag_11:\n      dup1\n      0x2e1a7d4d\n      eq\n      tag_3\n      jumpi\n      dup1\n      0x340886a9\n      eq\n      tag_4\n      jumpi\n      dup1\n      0x4ec42e8e\n      eq\n      tag_5\n      jumpi\n      dup1\n      0x715018a6\n      eq\n      tag_6\n      jumpi\n    tag_2:\n      revert(0x00, 0x00)\n        /* \"src/Airdrop.sol\":2134:2242  function withdraw(uint256 amount) external onlyOwner {... */\n    tag_3:\n      tag_12\n      0x04\n      dup1\n      calldatasize\n      sub\n      dup2\n      add\n      swap1\n      tag_13\n      swap2\n      swap1\n      tag_14\n      jump\t// in\n    tag_13:\n      tag_15\n      jump\t// in\n    tag_12:\n      stop\n        /* \"src/Airdrop.sol\":958:1452  function batchAirdrop(AirdropRecipient[] calldata recipients) external onlyOwner {... */\n    tag_4:\n      tag_16\n      0x04\n      dup1\n      calldatasize\n      sub\n      dup2\n      add\n      swap1\n      tag_17\n      swap2\n      swap1\n      tag_18\n      jump\t// in\n    tag_17:\n      tag_19\n      jump\t// in\n    tag_16:\n      stop\n        /* \"src/Airdrop.sol\":683:705  IERC20 public antToken */\n    tag_5:\n      tag_20\n      tag_21\n      jump\t// in\n    tag_20:\n      mload(0x40)\n      tag_22\n      swap2\n      swap1\n      tag_23\n      jump\t// in\n    tag_22:\n      mload(0x40)\n      dup1\n      swap2\n      sub\n      swap1\n      return\n        /* \"lib/openzeppelin-contracts/contracts/access/Ownable.sol\":2293:2394  function renounceOwnership() public virtual onlyOwner {... */\n    tag_6:\n      tag_24\n      tag_25\n      jump\t// in\n    tag_24:\n      stop\n        /* \"src/Airdrop.sol\":1458:2027  function uniformAirdrop(address[] calldata recipients, uint256 amountEach) external onlyOwner {... */\n    tag_7:\n      tag_26\n      0x04\n      dup1\n      calldatasize\n      sub\n      dup2\n      add\n      swap1\n      tag_27\n      swap2\n      swap1\n      tag_28\n      jump\t// in\n    tag_27:\n      tag_29\n      jump\t// in\n    tag_26:\n      stop\n        /* \"lib/openzeppelin-contracts/contracts/access/Ownable.sol\":1638:1723  function owner() public view virtual returns (address) {... */\n    tag_8:\n      tag_30\n      tag_31\n      jump\t// in\n    tag_30:\n      mload(0x40)\n      tag_32\n      swap2\n      swap1\n      tag_33\n      jump\t// in\n    tag_32:\n      mload(0x40)\n      dup1\n      swap2\n      sub\n      swap1\n      return\n        /* \"src/Airdrop.sol\":2033:2128  function setAntToken(IERC20 _antToken) external onlyOwner {... */\n    tag_9:\n      tag_34\n      0x04\n      dup1\n      calldatasize\n      sub\n      dup2\n      add\n      swap1\n      tag_35\n      swap2\n      swap1\n      tag_36\n      jump\t// in\n    tag_35:\n      tag_37\n      jump\t// in\n    tag_34:\n      stop\n        /* \"lib/openzeppelin-contracts/contracts/access/Ownable.sol\":2543:2758  function transferOwnership(address newOwner) public virtual onlyOwner {... */\n    tag_10:\n      tag_38\n      0x04\n      dup1\n      calldatasize\n      sub\n      dup2\n      add\n      swap1\n      tag_39\n      swap2\n      swap1\n      tag_40\n      jump\t// in\n    tag_39:\n      tag_41\n      jump\t// in\n    tag_38:\n      stop\n        /* \"src/Airdrop.sol\":2134:2242  function withdraw(uint256 amount) external onlyOwner {... */\n    tag_15:\n        /* \"lib/openzeppelin-contracts/contracts/access/Ownable.sol\":1531:1544  _checkOwner() */\n      tag_43\n        /* \"lib/openzeppelin-contracts/contracts/access/Ownable.sol\":1531:1542  _checkOwner */\n      tag_44\n        /* \"lib/openzeppelin-contracts/contracts/access/Ownable.sol\":1531:1544  _checkOwner() */\n      jump\t// in\n    tag_43:\n        /* \"src/Airdrop.sol\":2197:2235  antToken.safeTransfer(owner(), amount) */\n      tag_46\n        /* \"src/Airdrop.sol\":2219:2226  owner() */\n      tag_47\n        /* \"src/Airdrop.sol\":2219:2224  owner */\n      tag_31\n        /* \"src/Airdrop.sol\":2219:2226  owner() */\n      jump\t// in\n    tag_47:\n        /* \"src/Airdrop.sol\":2228:2234  amount */\n      dup3\n        /* \"src/Airdrop.sol\":2197:2205  antToken */\n      0x01\n      0x00\n      swap1\n      sload\n      swap1\n      0x0100\n      exp\n      swap1\n      div\n      0xffffffffffffffffffffffffffffffffffffffff\n      and\n        /* \"src/Airdrop.sol\":2197:2218  antToken.safeTransfer */\n      0xffffffffffffffffffffffffffffffffffffffff\n      and\n      tag_48\n      swap1\n        /* \"src/Airdrop.sol\":2197:2235  antToken.safeTransfer(owner(), amount) */\n      swap3\n      swap2\n      swap1\n      0xffffffff\n      and\n      jump\t// in\n    tag_46:\n        /* \"src/Airdrop.sol\":2134:2242  function withdraw(uint256 amount) external onlyOwner {... */\n      pop\n      jump\t// out\n        /* \"src/Airdrop.sol\":958:1452  function batchAirdrop(AirdropRecipient[] calldata recipients) external onlyOwner {... */\n    tag_19:\n        /* \"lib/openzeppelin-contracts/contracts/access/Ownable.sol\":1531:1544  _checkOwner() */\n      tag_50\n        /* \"lib/openzeppelin-contracts/contracts/access/Ownable.sol\":1531:1542  _checkOwner */\n      tag_44\n        /* \"lib/openzeppelin-contracts/contracts/access/Ownable.sol\":1531:1544  _checkOwner() */\n      jump\t// in\n    tag_50:\n        /* \"src/Airdrop.sol\":1074:1075  0 */\n      0x00\n        /* \"src/Airdrop.sol\":1053:1063  recipients */\n      dup3\n      dup3\n        /* \"src/Airdrop.sol\":1053:1070  recipients.length */\n      swap1\n      pop\n        /* \"src/Airdrop.sol\":1053:1075  recipients.length == 0 */\n      sub\n        /* \"src/Airdrop.sol\":1049:1131  if (recipients.length == 0) {... */\n      tag_52\n      jumpi\n        /* \"src/Airdrop.sol\":1098:1120  EmptyRecipientsArray() */\n      mload(0x40)\n      0xd982238500000000000000000000000000000000000000000000000000000000\n      dup2\n      mstore\n      0x04\n      add\n      mload(0x40)\n      dup1\n      swap2\n      sub\n      swap1\n      revert\n        /* \"src/Airdrop.sol\":1049:1131  if (recipients.length == 0) {... */\n    tag_52:\n        /* \"src/Airdrop.sol\":1146:1155  uint256 i */\n      0x00\n        /* \"src/Airdrop.sol\":1158:1159  0 */\n      0x00\n        /* \"src/Airdrop.sol\":1146:1159  uint256 i = 0 */\n      swap1\n      pop\n        /* \"src/Airdrop.sol\":1141:1397  for (uint256 i = 0; i < recipients.length; ++i) {... */\n    tag_53:\n        /* \"src/Airdrop.sol\":1165:1175  recipients */\n      dup3\n      dup3\n        /* \"src/Airdrop.sol\":1165:1182  recipients.length */\n      swap1\n      pop\n        /* \"src/Airdrop.sol\":1161:1162  i */\n      dup2\n        /* \"src/Airdrop.sol\":1161:1182  i < recipients.length */\n      lt\n        /* \"src/Airdrop.sol\":1141:1397  for (uint256 i = 0; i < recipients.length; ++i) {... */\n      iszero\n      tag_54\n      jumpi\n        /* \"src/Airdrop.sol\":1242:1243  0 */\n      0x00\n        /* \"src/Airdrop.sol\":1207:1244  recipients[i].recipient == address(0) */\n      0xffffffffffffffffffffffffffffffffffffffff\n      and\n        /* \"src/Airdrop.sol\":1207:1217  recipients */\n      dup4\n      dup4\n        /* \"src/Airdrop.sol\":1218:1219  i */\n      dup4\n        /* \"src/Airdrop.sol\":1207:1220  recipients[i] */\n      dup2\n      dup2\n      lt\n      tag_56\n      jumpi\n      tag_57\n      tag_58\n      jump\t// in\n    tag_57:\n    tag_56:\n      swap1\n      pop\n      0x40\n      mul\n      add\n        /* \"src/Airdrop.sol\":1207:1230  recipients[i].recipient */\n      0x00\n      add\n      0x20\n      dup2\n      add\n      swap1\n      tag_59\n      swap2\n      swap1\n      tag_40\n      jump\t// in\n    tag_59:\n        /* \"src/Airdrop.sol\":1207:1244  recipients[i].recipient == address(0) */\n      0xffffffffffffffffffffffffffffffffffffffff\n      and\n      sub\n        /* \"src/Airdrop.sol\":1203:1305  if (recipients[i].recipient == address(0)) {... */\n      tag_60\n      jumpi\n        /* \"src/Airdrop.sol\":1288:1289  i */\n      dup1\n        /* \"src/Airdrop.sol\":1271:1290  InvalidRecipient(i) */\n      mload(0x40)\n      0x8e605c6f00000000000000000000000000000000000000000000000000000000\n      dup2\n      mstore\n      0x04\n      add\n      tag_61\n      swap2\n      swap1\n      tag_62\n      jump\t// in\n    tag_61:\n      mload(0x40)\n      dup1\n      swap2\n      sub\n      swap1\n      revert\n        /* \"src/Airdrop.sol\":1203:1305  if (recipients[i].recipient == address(0)) {... */\n    tag_60:\n        /* \"src/Airdrop.sol\":1318:1386  antToken.safeTransfer(recipients[i].recipient, recipients[i].amount) */\n      tag_63\n        /* \"src/Airdrop.sol\":1340:1350  recipients */\n      dup4\n      dup4\n        /* \"src/Airdrop.sol\":1351:1352  i */\n      dup4\n        /* \"src/Airdrop.sol\":1340:1353  recipients[i] */\n      dup2\n      dup2\n      lt\n      tag_64\n      jumpi\n      tag_65\n      tag_58\n      jump\t// in\n    tag_65:\n    tag_64:\n      swap1\n      pop\n      0x40\n      mul\n      add\n        /* \"src/Airdrop.sol\":1340:1363  recipients[i].recipient */\n      0x00\n      add\n      0x20\n      dup2\n      add\n      swap1\n      tag_66\n      swap2\n      swap1\n      tag_40\n      jump\t// in\n    tag_66:\n        /* \"src/Airdrop.sol\":1365:1375  recipients */\n      dup5\n      dup5\n        /* \"src/Airdrop.sol\":1376:1377  i */\n      dup5\n        /* \"src/Airdrop.sol\":1365:1378  recipients[i] */\n      dup2\n      dup2\n      lt\n      tag_67\n      jumpi\n      tag_68\n      tag_58\n      jump\t// in\n    tag_68:\n    tag_67:\n      swap1\n      pop\n      0x40\n      mul\n      add\n        /* \"src/Airdrop.sol\":1365:1385  recipients[i].amount */\n      0x20\n      add\n      calldataload\n        /* \"src/Airdrop.sol\":1318:1326  antToken */\n      0x01\n      0x00\n      swap1\n      sload\n      swap1\n      0x0100\n      exp\n      swap1\n      div\n      0xffffffffffffffffffffffffffffffffffffffff\n      and\n        /* \"src/Airdrop.sol\":1318:1339  antToken.safeTransfer */\n      0xffffffffffffffffffffffffffffffffffffffff\n      and\n      tag_48\n      swap1\n        /* \"src/Airdrop.sol\":1318:1386  antToken.safeTransfer(recipients[i].recipient, recipients[i].amount) */\n      swap3\n      swap2\n      swap1\n      0xffffffff\n      and\n      jump\t// in\n    tag_63:\n        /* \"src/Airdrop.sol\":1184:1187  ++i */\n      dup1\n      0x01\n      add\n      swap1\n      pop\n        /* \"src/Airdrop.sol\":1141:1397  for (uint256 i = 0; i < recipients.length; ++i) {... */\n      jump(tag_53)\n    tag_54:\n      pop\n        /* \"src/Airdrop.sol\":1434:1444  recipients */\n      dup2\n      dup2\n        /* \"src/Airdrop.sol\":1412:1445  BatchAirdropCompleted(recipients) */\n      mload(0x40)\n      tag_69\n      swap3\n      swap2\n      swap1\n      tag_70\n      jump\t// in\n    tag_69:\n      mload(0x40)\n      dup1\n      swap2\n      sub\n      swap1\n      keccak256\n      0x83ee9118091e2dd219e46c8308df99b20b9aec5b274f9fc9242aefcbb20ecc4c\n      mload(0x40)\n      mload(0x40)\n      dup1\n      swap2\n      sub\n      swap1\n      log2\n        /* \"src/Airdrop.sol\":958:1452  function batchAirdrop(AirdropRecipient[] calldata recipients) external onlyOwner {... */\n      pop\n      pop\n      jump\t// out\n        /* \"src/Airdrop.sol\":683:705  IERC20 public antToken */\n    tag_21:\n      0x01\n      0x00\n      swap1\n      sload\n      swap1\n      0x0100\n      exp\n      swap1\n      div\n      0xffffffffffffffffffffffffffffffffffffffff\n      and\n      dup2\n      jump\t// out\n        /* \"lib/openzeppelin-contracts/contracts/access/Ownable.sol\":2293:2394  function renounceOwnership() public virtual onlyOwner {... */\n    tag_25:\n        /* \"lib/openzeppelin-contracts/contracts/access/Ownable.sol\":1531:1544  _checkOwner() */\n      tag_72\n        /* \"lib/openzeppelin-contracts/contracts/access/Ownable.sol\":1531:1542  _checkOwner */\n      tag_44\n        /* \"lib/openzeppelin-contracts/contracts/access/Ownable.sol\":1531:1544  _checkOwner() */\n      jump\t// in\n    tag_72:\n        /* \"lib/openzeppelin-contracts/contracts/access/Ownable.sol\":2357:2387  _transferOwnership(address(0)) */\n      tag_74\n        /* \"lib/openzeppelin-contracts/contracts/access/Ownable.sol\":2384:2385  0 */\n      0x00\n        /* \"lib/openzeppelin-contracts/contracts/access/Ownable.sol\":2357:2375  _transferOwnership */\n      tag_75\n        /* \"lib/openzeppelin-contracts/contracts/access/Ownable.sol\":2357:2387  _transferOwnership(address(0)) */\n      jump\t// in\n    tag_74:\n        /* \"lib/openzeppelin-contracts/contracts/access/Ownable.sol\":2293:2394  function renounceOwnership() public virtual onlyOwner {... */\n      jump\t// out\n        /* \"src/Airdrop.sol\":1458:2027  function uniformAirdrop(address[] calldata recipients, uint256 amountEach) external onlyOwner {... */\n    tag_29:\n        /* \"lib/openzeppelin-contracts/contracts/access/Ownable.sol\":1531:1544  _checkOwner() */\n      tag_77\n        /* \"lib/openzeppelin-contracts/contracts/access/Ownable.sol\":1531:1542  _checkOwner */\n      tag_44\n        /* \"lib/openzeppelin-contracts/contracts/access/Ownable.sol\":1531:1544  _checkOwner() */\n      jump\t// in\n    tag_77:\n        /* \"src/Airdrop.sol\":1587:1588  0 */\n      0x00\n        /* \"src/Airdrop.sol\":1566:1576  recipients */\n      dup4\n      dup4\n        /* \"src/Airdrop.sol\":1566:1583  recipients.length */\n      swap1\n      pop\n        /* \"src/Airdrop.sol\":1566:1588  recipients.length == 0 */\n      sub\n        /* \"src/Airdrop.sol\":1562:1644  if (recipients.length == 0) {... */\n      tag_79\n      jumpi\n        /* \"src/Airdrop.sol\":1611:1633  EmptyRecipientsArray() */\n      mload(0x40)\n      0xd982238500000000000000000000000000000000000000000000000000000000\n      dup2\n      mstore\n      0x04\n      add\n      mload(0x40)\n      dup1\n      swap2\n      sub\n      swap1\n      revert\n        /* \"src/Airdrop.sol\":1562:1644  if (recipients.length == 0) {... */\n    tag_79:\n        /* \"src/Airdrop.sol\":1672:1673  0 */\n      0x00\n        /* \"src/Airdrop.sol\":1658:1668  amountEach */\n      dup2\n        /* \"src/Airdrop.sol\":1658:1673  amountEach == 0 */\n      sub\n        /* \"src/Airdrop.sol\":1654:1722  if (amountEach == 0) {... */\n      tag_80\n      jumpi\n        /* \"src/Airdrop.sol\":1696:1711  InvalidAmount() */\n      mload(0x40)\n      0x2c5211c600000000000000000000000000000000000000000000000000000000\n      dup2\n      mstore\n      0x04\n      add\n      mload(0x40)\n      dup1\n      swap2\n      sub\n      swap1\n      revert\n        /* \"src/Airdrop.sol\":1654:1722  if (amountEach == 0) {... */\n    tag_80:\n        /* \"src/Airdrop.sol\":1737:1746  uint256 i */\n      0x00\n        /* \"src/Airdrop.sol\":1749:1750  0 */\n      0x00\n        /* \"src/Airdrop.sol\":1737:1750  uint256 i = 0 */\n      swap1\n      pop\n        /* \"src/Airdrop.sol\":1732:1958  for (uint256 i = 0; i < recipients.length; ++i) {... */\n    tag_81:\n        /* \"src/Airdrop.sol\":1756:1766  recipients */\n      dup4\n      dup4\n        /* \"src/Airdrop.sol\":1756:1773  recipients.length */\n      swap1\n      pop\n        /* \"src/Airdrop.sol\":1752:1753  i */\n      dup2\n        /* \"src/Airdrop.sol\":1752:1773  i < recipients.length */\n      lt\n        /* \"src/Airdrop.sol\":1732:1958  for (uint256 i = 0; i < recipients.length; ++i) {... */\n      iszero\n      tag_82\n      jumpi\n        /* \"src/Airdrop.sol\":1823:1824  0 */\n      0x00\n        /* \"src/Airdrop.sol\":1798:1825  recipients[i] == address(0) */\n      0xffffffffffffffffffffffffffffffffffffffff\n      and\n        /* \"src/Airdrop.sol\":1798:1808  recipients */\n      dup5\n      dup5\n        /* \"src/Airdrop.sol\":1809:1810  i */\n      dup4\n        /* \"src/Airdrop.sol\":1798:1811  recipients[i] */\n      dup2\n      dup2\n      lt\n      tag_84\n      jumpi\n      tag_85\n      tag_58\n      jump\t// in\n    tag_85:\n    tag_84:\n      swap1\n      pop\n      0x20\n      mul\n      add\n      0x20\n      dup2\n      add\n      swap1\n      tag_86\n      swap2\n      swap1\n      tag_40\n      jump\t// in\n    tag_86:\n        /* \"src/Airdrop.sol\":1798:1825  recipients[i] == address(0) */\n      0xffffffffffffffffffffffffffffffffffffffff\n      and\n      sub\n        /* \"src/Airdrop.sol\":1794:1886  if (recipients[i] == address(0)) {... */\n      tag_87\n      jumpi\n        /* \"src/Airdrop.sol\":1869:1870  i */\n      dup1\n        /* \"src/Airdrop.sol\":1852:1871  InvalidRecipient(i) */\n      mload(0x40)\n      0x8e605c6f00000000000000000000000000000000000000000000000000000000\n      dup2\n      mstore\n      0x04\n      add\n      tag_88\n      swap2\n      swap1\n      tag_62\n      jump\t// in\n    tag_88:\n      mload(0x40)\n      dup1\n      swap2\n      sub\n      swap1\n      revert\n        /* \"src/Airdrop.sol\":1794:1886  if (recipients[i] == address(0)) {... */\n    tag_87:\n        /* \"src/Airdrop.sol\":1899:1947  antToken.safeTransfer(recipients[i], amountEach) */\n      tag_89\n        /* \"src/Airdrop.sol\":1921:1931  recipients */\n      dup5\n      dup5\n        /* \"src/Airdrop.sol\":1932:1933  i */\n      dup4\n        /* \"src/Airdrop.sol\":1921:1934  recipients[i] */\n      dup2\n      dup2\n      lt\n      tag_90\n      jumpi\n      tag_91\n      tag_58\n      jump\t// in\n    tag_91:\n    tag_90:\n      swap1\n      pop\n      0x20\n      mul\n      add\n      0x20\n      dup2\n      add\n      swap1\n      tag_92\n      swap2\n      swap1\n      tag_40\n      jump\t// in\n    tag_92:\n        /* \"src/Airdrop.sol\":1936:1946  amountEach */\n      dup4\n        /* \"src/Airdrop.sol\":1899:1907  antToken */\n      0x01\n      0x00\n      swap1\n      sload\n      swap1\n      0x0100\n      exp\n      swap1\n      div\n      0xffffffffffffffffffffffffffffffffffffffff\n      and\n        /* \"src/Airdrop.sol\":1899:1920  antToken.safeTransfer */\n      0xffffffffffffffffffffffffffffffffffffffff\n      and\n      tag_48\n      swap1\n        /* \"src/Airdrop.sol\":1899:1947  antToken.safeTransfer(recipients[i], amountEach) */\n      swap3\n      swap2\n      swap1\n      0xffffffff\n      and\n      jump\t// in\n    tag_89:\n        /* \"src/Airdrop.sol\":1775:1778  ++i */\n      dup1\n      0x01\n      add\n      swap1\n      pop\n        /* \"src/Airdrop.sol\":1732:1958  for (uint256 i = 0; i < recipients.length; ++i) {... */\n      jump(tag_81)\n    tag_82:\n      pop\n        /* \"src/Airdrop.sol\":1973:2020  UniformAirdropCompleted(recipients, amountEach) */\n      0x69ade20fc1730af5552ecc10006440ce08b8f9a448a9625049916d86d5b2058f\n        /* \"src/Airdrop.sol\":1997:2007  recipients */\n      dup4\n      dup4\n        /* \"src/Airdrop.sol\":2009:2019  amountEach */\n      dup4\n        /* \"src/Airdrop.sol\":1973:2020  UniformAirdropCompleted(recipients, amountEach) */\n      mload(0x40)\n      tag_93\n      swap4\n      swap3\n      swap2\n      swap1\n      tag_94\n      jump\t// in\n    tag_93:\n      mload(0x40)\n      dup1\n      swap2\n      sub\n      swap1\n      log1\n        /* \"src/Airdrop.sol\":1458:2027  function uniformAirdrop(address[] calldata recipients, uint256 amountEach) external onlyOwner {... */\n      pop\n      pop\n      pop\n      jump\t// out\n        /* \"lib/openzeppelin-contracts/contracts/access/Ownable.sol\":1638:1723  function owner() public view virtual returns (address) {... */\n    tag_31:\n        /* \"lib/openzeppelin-contracts/contracts/access/Ownable.sol\":1684:1691  address */\n      0x00\n        /* \"lib/openzeppelin-contracts/contracts/access/Ownable.sol\":1710:1716  _owner */\n      0x00\n      0x00\n      swap1\n      sload\n      swap1\n      0x0100\n      exp\n      swap1\n      div\n      0xffffffffffffffffffffffffffffffffffffffff\n      and\n        /* \"lib/openzeppelin-contracts/contracts/access/Ownable.sol\":1703:1716  return _owner */\n      swap1\n      pop\n        /* \"lib/openzeppelin-contracts/contracts/access/Ownable.sol\":1638:1723  function owner() public view virtual returns (address) {... */\n      swap1\n      jump\t// out\n        /* \"src/Airdrop.sol\":2033:2128  function setAntToken(IERC20 _antToken) external onlyOwner {... */\n    tag_37:\n        /* \"lib/openzeppelin-contracts/contracts/access/Ownable.sol\":1531:1544  _checkOwner() */\n      tag_97\n        /* \"lib/openzeppelin-contracts/contracts/access/Ownable.sol\":1531:1542  _checkOwner */\n      tag_44\n        /* \"lib/openzeppelin-contracts/contracts/access/Ownable.sol\":1531:1544  _checkOwner() */\n      jump\t// in\n    tag_97:\n        /* \"src/Airdrop.sol\":2112:2121  _antToken */\n      dup1\n        /* \"src/Airdrop.sol\":2101:2109  antToken */\n      0x01\n      0x00\n        /* \"src/Airdrop.sol\":2101:2121  antToken = _antToken */\n      0x0100\n      exp\n      dup2\n      sload\n      dup2\n      0xffffffffffffffffffffffffffffffffffffffff\n      mul\n      not\n      and\n      swap1\n      dup4\n      0xffffffffffffffffffffffffffffffffffffffff\n      and\n      mul\n      or\n      swap1\n      sstore\n      pop\n        /* \"src/Airdrop.sol\":2033:2128  function setAntToken(IERC20 _antToken) external onlyOwner {... */\n      pop\n      jump\t// out\n        /* \"lib/openzeppelin-contracts/contracts/access/Ownable.sol\":2543:2758  function transferOwnership(address newOwner) public virtual onlyOwner {... */\n    tag_41:\n        /* \"lib/openzeppelin-contracts/contracts/access/Ownable.sol\":1531:1544  _checkOwner() */\n      tag_100\n        /* \"lib/openzeppelin-contracts/contracts/access/Ownable.sol\":1531:1542  _checkOwner */\n      tag_44\n        /* \"lib/openzeppelin-contracts/contracts/access/Ownable.sol\":1531:1544  _checkOwner() */\n      jump\t// in\n    tag_100:\n        /* \"lib/openzeppelin-contracts/contracts/access/Ownable.sol\":2647:2648  0 */\n      0x00\n        /* \"lib/openzeppelin-contracts/contracts/access/Ownable.sol\":2627:2649  newOwner == address(0) */\n      0xffffffffffffffffffffffffffffffffffffffff\n      and\n        /* \"lib/openzeppelin-contracts/contracts/access/Ownable.sol\":2627:2635  newOwner */\n      dup2\n        /* \"lib/openzeppelin-contracts/contracts/access/Ownable.sol\":2627:2649  newOwner == address(0) */\n      0xffffffffffffffffffffffffffffffffffffffff\n      and\n      sub\n        /* \"lib/openzeppelin-contracts/contracts/access/Ownable.sol\":2623:2714  if (newOwner == address(0)) {... */\n      tag_102\n      jumpi\n        /* \"lib/openzeppelin-contracts/contracts/access/Ownable.sol\":2700:2701  0 */\n      0x00\n        /* \"lib/openzeppelin-contracts/contracts/access/Ownable.sol\":2672:2703  OwnableInvalidOwner(address(0)) */\n      mload(0x40)\n      0x1e4fbdf700000000000000000000000000000000000000000000000000000000\n      dup2\n      mstore\n      0x04\n      add\n      tag_103\n      swap2\n      swap1\n      tag_33\n      jump\t// in\n    tag_103:\n      mload(0x40)\n      dup1\n      swap2\n      sub\n      swap1\n      revert\n        /* \"lib/openzeppelin-contracts/contracts/access/Ownable.sol\":2623:2714  if (newOwner == address(0)) {... */\n    tag_102:\n        /* \"lib/openzeppelin-contracts/contracts/access/Ownable.sol\":2723:2751  _transferOwnership(newOwner) */\n      tag_104\n        /* \"lib/openzeppelin-contracts/contracts/access/Ownable.sol\":2742:2750  newOwner */\n      dup2\n        /* \"lib/openzeppelin-contracts/contracts/access/Ownable.sol\":2723:2741  _transferOwnership */\n      tag_75\n        /* \"lib/openzeppelin-contracts/contracts/access/Ownable.sol\":2723:2751  _transferOwnership(newOwner) */\n      jump\t// in\n    tag_104:\n        /* \"lib/openzeppelin-contracts/contracts/access/Ownable.sol\":2543:2758  function transferOwnership(address newOwner) public virtual onlyOwner {... */\n      pop\n      jump\t// out\n        /* \"lib/openzeppelin-contracts/contracts/access/Ownable.sol\":1796:1958  function _checkOwner() internal view virtual {... */\n    tag_44:\n        /* \"lib/openzeppelin-contracts/contracts/access/Ownable.sol\":1866:1878  _msgSender() */\n      tag_106\n        /* \"lib/openzeppelin-contracts/contracts/access/Ownable.sol\":1866:1876  _msgSender */\n      tag_107\n        /* \"lib/openzeppelin-contracts/contracts/access/Ownable.sol\":1866:1878  _msgSender() */\n      jump\t// in\n    tag_106:\n        /* \"lib/openzeppelin-contracts/contracts/access/Ownable.sol\":1855:1878  owner() != _msgSender() */\n      0xffffffffffffffffffffffffffffffffffffffff\n      and\n        /* \"lib/openzeppelin-contracts/contracts/access/Ownable.sol\":1855:1862  owner() */\n      tag_108\n        /* \"lib/openzeppelin-contracts/contracts/access/Ownable.sol\":1855:1860  owner */\n      tag_31\n        /* \"lib/openzeppelin-contracts/contracts/access/Ownable.sol\":1855:1862  owner() */\n      jump\t// in\n    tag_108:\n        /* \"lib/openzeppelin-contracts/contracts/access/Ownable.sol\":1855:1878  owner() != _msgSender() */\n      0xffffffffffffffffffffffffffffffffffffffff\n      and\n      eq\n        /* \"lib/openzeppelin-contracts/contracts/access/Ownable.sol\":1851:1952  if (owner() != _msgSender()) {... */\n      tag_109\n      jumpi\n        /* \"lib/openzeppelin-contracts/contracts/access/Ownable.sol\":1928:1940  _msgSender() */\n      tag_110\n        /* \"lib/openzeppelin-contracts/contracts/access/Ownable.sol\":1928:1938  _msgSender */\n      tag_107\n        /* \"lib/openzeppelin-contracts/contracts/access/Ownable.sol\":1928:1940  _msgSender() */\n      jump\t// in\n    tag_110:\n        /* \"lib/openzeppelin-contracts/contracts/access/Ownable.sol\":1901:1941  OwnableUnauthorizedAccount(_msgSender()) */\n      mload(0x40)\n      0x118cdaa700000000000000000000000000000000000000000000000000000000\n      dup2\n      mstore\n      0x04\n      add\n      tag_111\n      swap2\n      swap1\n      tag_33\n      jump\t// in\n    tag_111:\n      mload(0x40)\n      dup1\n      swap2\n      sub\n      swap1\n      revert\n        /* \"lib/openzeppelin-contracts/contracts/access/Ownable.sol\":1851:1952  if (owner() != _msgSender()) {... */\n    tag_109:\n        /* \"lib/openzeppelin-contracts/contracts/access/Ownable.sol\":1796:1958  function _checkOwner() internal view virtual {... */\n      jump\t// out\n        /* \"lib/openzeppelin-contracts/contracts/token/ERC20/utils/SafeERC20.sol\":1219:1379  function safeTransfer(IERC20 token, address to, uint256 value) internal {... */\n    tag_48:\n        /* \"lib/openzeppelin-contracts/contracts/token/ERC20/utils/SafeERC20.sol\":1301:1372  _callOptionalReturn(token, abi.encodeCall(token.transfer, (to, value))) */\n      tag_113\n        /* \"lib/openzeppelin-contracts/contracts/token/ERC20/utils/SafeERC20.sol\":1321:1326  token */\n      dup4\n        /* \"lib/openzeppelin-contracts/contracts/token/ERC20/utils/SafeERC20.sol\":1343:1348  token */\n      dup5\n        /* \"lib/openzeppelin-contracts/contracts/token/ERC20/utils/SafeERC20.sol\":1343:1357  token.transfer */\n      0xffffffffffffffffffffffffffffffffffffffff\n      and\n      0xa9059cbb\n        /* \"lib/openzeppelin-contracts/contracts/token/ERC20/utils/SafeERC20.sol\":1360:1362  to */\n      dup6\n        /* \"lib/openzeppelin-contracts/contracts/token/ERC20/utils/SafeERC20.sol\":1364:1369  value */\n      dup6\n        /* \"lib/openzeppelin-contracts/contracts/token/ERC20/utils/SafeERC20.sol\":1328:1371  abi.encodeCall(token.transfer, (to, value)) */\n      add(0x24, mload(0x40))\n      tag_114\n      swap3\n      swap2\n      swap1\n      tag_115\n      jump\t// in\n    tag_114:\n      mload(0x40)\n      0x20\n      dup2\n      dup4\n      sub\n      sub\n      dup2\n      mstore\n      swap1\n      0x40\n      mstore\n      swap2\n      pop\n      0xe0\n      shl\n      0x20\n      dup3\n      add\n      dup1\n      mload\n      0xffffffffffffffffffffffffffffffffffffffffffffffffffffffff\n      dup4\n      dup2\n      dup4\n      and\n      or\n      dup4\n      mstore\n      pop\n      pop\n      pop\n      pop\n        /* \"lib/openzeppelin-contracts/contracts/token/ERC20/utils/SafeERC20.sol\":1301:1320  _callOptionalReturn */\n      tag_116\n        /* \"lib/openzeppelin-contracts/contracts/token/ERC20/utils/SafeERC20.sol\":1301:1372  _callOptionalReturn(token, abi.encodeCall(token.transfer, (to, value))) */\n      jump\t// in\n    tag_113:\n        /* \"lib/openzeppelin-contracts/contracts/token/ERC20/utils/SafeERC20.sol\":1219:1379  function safeTransfer(IERC20 token, address to, uint256 value) internal {... */\n      pop\n      pop\n      pop\n      jump\t// out\n        /* \"lib/openzeppelin-contracts/contracts/access/Ownable.sol\":2912:3099  function _transferOwnership(address newOwner) internal virtual {... */\n    tag_75:\n        /* \"lib/openzeppelin-contracts/contracts/access/Ownable.sol\":2985:3001  address oldOwner */\n      0x00\n        /* \"lib/openzeppelin-contracts/contracts/access/Ownable.sol\":3004:3010  _owner */\n      0x00\n      0x00\n      swap1\n      sload\n      swap1\n      0x0100\n      exp\n      swap1\n      div\n      0xffffffffffffffffffffffffffffffffffffffff\n      and\n        /* \"lib/openzeppelin-contracts/contracts/access/Ownable.sol\":2985:3010  address oldOwner = _owner */\n      swap1\n      pop\n        /* \"lib/openzeppelin-contracts/contracts/access/Ownable.sol\":3029:3037  newOwner */\n      dup2\n        /* \"lib/openzeppelin-contracts/contracts/access/Ownable.sol\":3020:3026  _owner */\n      0x00\n      0x00\n        /* \"lib/openzeppelin-contracts/contracts/access/Ownable.sol\":3020:3037  _owner = newOwner */\n      0x0100\n      exp\n      dup2\n      sload\n      dup2\n      0xffffffffffffffffffffffffffffffffffffffff\n      mul\n      not\n      and\n      swap1\n      dup4\n      0xffffffffffffffffffffffffffffffffffffffff\n      and\n      mul\n      or\n      swap1\n      sstore\n      pop\n        /* \"lib/openzeppelin-contracts/contracts/access/Ownable.sol\":3083:3091  newOwner */\n      dup2\n        /* \"lib/openzeppelin-contracts/contracts/access/Ownable.sol\":3052:3092  OwnershipTransferred(oldOwner, newOwner) */\n      0xffffffffffffffffffffffffffffffffffffffff\n      and\n        /* \"lib/openzeppelin-contracts/contracts/access/Ownable.sol\":3073:3081  oldOwner */\n      dup2\n        /* \"lib/openzeppelin-contracts/contracts/access/Ownable.sol\":3052:3092  OwnershipTransferred(oldOwner, newOwner) */\n      0xffffffffffffffffffffffffffffffffffffffff\n      and\n      0x8be0079c531659141344cd1fd0a4f28419497f9722a3daafe3b4186f6b6457e0\n      mload(0x40)\n      mload(0x40)\n      dup1\n      swap2\n      sub\n      swap1\n      log3\n        /* \"lib/openzeppelin-contracts/contracts/access/Ownable.sol\":2975:3099  {... */\n      pop\n        /* \"lib/openzeppelin-contracts/contracts/access/Ownable.sol\":2912:3099  function _transferOwnership(address newOwner) internal virtual {... */\n      pop\n      jump\t// out\n        /* \"lib/openzeppelin-contracts/contracts/utils/Context.sol\":656:752  function _msgSender() internal view virtual returns (address) {... */\n    tag_107:\n        /* \"lib/openzeppelin-contracts/contracts/utils/Context.sol\":709:716  address */\n      0x00\n        /* \"lib/openzeppelin-contracts/contracts/utils/Context.sol\":735:745  msg.sender */\n      caller\n        /* \"lib/openzeppelin-contracts/contracts/utils/Context.sol\":728:745  return msg.sender */\n      swap1\n      pop\n        /* \"lib/openzeppelin-contracts/contracts/utils/Context.sol\":656:752  function _msgSender() internal view virtual returns (address) {... */\n      swap1\n      jump\t// out\n        /* \"lib/openzeppelin-contracts/contracts/token/ERC20/utils/SafeERC20.sol\":7686:8406  function _callOptionalReturn(IERC20 token, bytes memory data) private {... */\n    tag_116:\n        /* \"lib/openzeppelin-contracts/contracts/token/ERC20/utils/SafeERC20.sol\":7766:7784  uint256 returnSize */\n      0x00\n        /* \"lib/openzeppelin-contracts/contracts/token/ERC20/utils/SafeERC20.sol\":7794:7813  uint256 returnValue */\n      0x00\n        /* \"lib/openzeppelin-contracts/contracts/token/ERC20/utils/SafeERC20.sol\":7932:7936  0x20 */\n      0x20\n        /* \"lib/openzeppelin-contracts/contracts/token/ERC20/utils/SafeERC20.sol\":7929:7930  0 */\n      0x00\n        /* \"lib/openzeppelin-contracts/contracts/token/ERC20/utils/SafeERC20.sol\":7922:7926  data */\n      dup5\n        /* \"lib/openzeppelin-contracts/contracts/token/ERC20/utils/SafeERC20.sol\":7916:7927  mload(data) */\n      mload\n        /* \"lib/openzeppelin-contracts/contracts/token/ERC20/utils/SafeERC20.sol\":7909:7913  0x20 */\n      0x20\n        /* \"lib/openzeppelin-contracts/contracts/token/ERC20/utils/SafeERC20.sol\":7903:7907  data */\n      dup7\n        /* \"lib/openzeppelin-contracts/contracts/token/ERC20/utils/SafeERC20.sol\":7899:7914  add(data, 0x20) */\n      add\n        /* \"lib/openzeppelin-contracts/contracts/token/ERC20/utils/SafeERC20.sol\":7896:7897  0 */\n      0x00\n        /* \"lib/openzeppelin-contracts/contracts/token/ERC20/utils/SafeERC20.sol\":7889:7894  token */\n      dup9\n        /* \"lib/openzeppelin-contracts/contracts/token/ERC20/utils/SafeERC20.sol\":7882:7887  gas() */\n      gas\n        /* \"lib/openzeppelin-contracts/contracts/token/ERC20/utils/SafeERC20.sol\":7877:7937  call(gas(), token, 0, add(data, 0x20), mload(data), 0, 0x20) */\n      call\n        /* \"lib/openzeppelin-contracts/contracts/token/ERC20/utils/SafeERC20.sol\":7989:7996  success */\n      dup1\n        /* \"lib/openzeppelin-contracts/contracts/token/ERC20/utils/SafeERC20.sol\":7979:8155  if iszero(success) {... */\n      tag_120\n      jumpi\n        /* \"lib/openzeppelin-contracts/contracts/token/ERC20/utils/SafeERC20.sol\":8033:8037  0x40 */\n      0x40\n        /* \"lib/openzeppelin-contracts/contracts/token/ERC20/utils/SafeERC20.sol\":8027:8038  mload(0x40) */\n      mload\n        /* \"lib/openzeppelin-contracts/contracts/token/ERC20/utils/SafeERC20.sol\":8078:8094  returndatasize() */\n      returndatasize\n        /* \"lib/openzeppelin-contracts/contracts/token/ERC20/utils/SafeERC20.sol\":8075:8076  0 */\n      0x00\n        /* \"lib/openzeppelin-contracts/contracts/token/ERC20/utils/SafeERC20.sol\":8070:8073  ptr */\n      dup3\n        /* \"lib/openzeppelin-contracts/contracts/token/ERC20/utils/SafeERC20.sol\":8055:8095  returndatacopy(ptr, 0, returndatasize()) */\n      returndatacopy\n        /* \"lib/openzeppelin-contracts/contracts/token/ERC20/utils/SafeERC20.sol\":8124:8140  returndatasize() */\n      returndatasize\n        /* \"lib/openzeppelin-contracts/contracts/token/ERC20/utils/SafeERC20.sol\":8119:8122  ptr */\n      dup2\n        /* \"lib/openzeppelin-contracts/contracts/token/ERC20/utils/SafeERC20.sol\":8112:8141  revert(ptr, returndatasize()) */\n      revert\n        /* \"lib/openzeppelin-contracts/contracts/token/ERC20/utils/SafeERC20.sol\":7979:8155  if iszero(success) {... */\n    tag_120:\n        /* \"lib/openzeppelin-contracts/contracts/token/ERC20/utils/SafeERC20.sol\":8182:8198  returndatasize() */\n      returndatasize\n        /* \"lib/openzeppelin-contracts/contracts/token/ERC20/utils/SafeERC20.sol\":8168:8198  returnSize := returndatasize() */\n      swap3\n      pop\n        /* \"lib/openzeppelin-contracts/contracts/token/ERC20/utils/SafeERC20.sol\":8232:8233  0 */\n      0x00\n        /* \"lib/openzeppelin-contracts/contracts/token/ERC20/utils/SafeERC20.sol\":8226:8234  mload(0) */\n      mload\n        /* \"lib/openzeppelin-contracts/contracts/token/ERC20/utils/SafeERC20.sol\":8211:8234  returnValue := mload(0) */\n      swap2\n      pop\n        /* \"lib/openzeppelin-contracts/contracts/token/ERC20/utils/SafeERC20.sol\":7848:8244  {... */\n      pop\n        /* \"lib/openzeppelin-contracts/contracts/token/ERC20/utils/SafeERC20.sol\":8272:8273  0 */\n      0x00\n        /* \"lib/openzeppelin-contracts/contracts/token/ERC20/utils/SafeERC20.sol\":8258:8268  returnSize */\n      dup3\n        /* \"lib/openzeppelin-contracts/contracts/token/ERC20/utils/SafeERC20.sol\":8258:8273  returnSize == 0 */\n      eq\n        /* \"lib/openzeppelin-contracts/contracts/token/ERC20/utils/SafeERC20.sol\":8258:8326  returnSize == 0 ? address(token).code.length == 0 : returnValue != 1 */\n      tag_121\n      jumpi\n        /* \"lib/openzeppelin-contracts/contracts/token/ERC20/utils/SafeERC20.sol\":8325:8326  1 */\n      0x01\n        /* \"lib/openzeppelin-contracts/contracts/token/ERC20/utils/SafeERC20.sol\":8310:8321  returnValue */\n      dup2\n        /* \"lib/openzeppelin-contracts/contracts/token/ERC20/utils/SafeERC20.sol\":8310:8326  returnValue != 1 */\n      eq\n      iszero\n        /* \"lib/openzeppelin-contracts/contracts/token/ERC20/utils/SafeERC20.sol\":8258:8326  returnSize == 0 ? address(token).code.length == 0 : returnValue != 1 */\n      jump(tag_122)\n    tag_121:\n        /* \"lib/openzeppelin-contracts/contracts/token/ERC20/utils/SafeERC20.sol\":8306:8307  0 */\n      0x00\n        /* \"lib/openzeppelin-contracts/contracts/token/ERC20/utils/SafeERC20.sol\":8284:8289  token */\n      dup5\n        /* \"lib/openzeppelin-contracts/contracts/token/ERC20/utils/SafeERC20.sol\":8276:8302  address(token).code.length */\n      0xffffffffffffffffffffffffffffffffffffffff\n      and\n      extcodesize\n        /* \"lib/openzeppelin-contracts/contracts/token/ERC20/utils/SafeERC20.sol\":8276:8307  address(token).code.length == 0 */\n      eq\n        /* \"lib/openzeppelin-contracts/contracts/token/ERC20/utils/SafeERC20.sol\":8258:8326  returnSize == 0 ? address(token).code.length == 0 : returnValue != 1 */\n    tag_122:\n        /* \"lib/openzeppelin-contracts/contracts/token/ERC20/utils/SafeERC20.sol\":8254:8400  if (returnSize == 0 ? address(token).code.length == 0 : returnValue != 1) {... */\n      iszero\n      tag_123\n      jumpi\n        /* \"lib/openzeppelin-contracts/contracts/token/ERC20/utils/SafeERC20.sol\":8382:8387  token */\n      dup4\n        /* \"lib/openzeppelin-contracts/contracts/token/ERC20/utils/SafeERC20.sol\":8349:8389  SafeERC20FailedOperation(address(token)) */\n      mload(0x40)\n      0x5274afe700000000000000000000000000000000000000000000000000000000\n      dup2\n      mstore\n      0x04\n      add\n      tag_124\n      swap2\n      swap1\n      tag_33\n      jump\t// in\n    tag_124:\n      mload(0x40)\n      dup1\n      swap2\n      sub\n      swap1\n      revert\n        /* \"lib/openzeppelin-contracts/contracts/token/ERC20/utils/SafeERC20.sol\":8254:8400  if (returnSize == 0 ? address(token).code.length == 0 : returnValue != 1) {... */\n    tag_123:\n        /* \"lib/openzeppelin-contracts/contracts/token/ERC20/utils/SafeERC20.sol\":7756:8406  {... */\n      pop\n      pop\n        /* \"lib/openzeppelin-contracts/contracts/token/ERC20/utils/SafeERC20.sol\":7686:8406  function _callOptionalReturn(IERC20 token, bytes memory data) private {... */\n      pop\n      pop\n      jump\t// out\n        /* \"#utility.yul\":88:205   */\n    tag_126:\n        /* \"#utility.yul\":197:198   */\n      0x00\n        /* \"#utility.yul\":194:195   */\n      0x00\n        /* \"#utility.yul\":187:199   */\n      revert\n        /* \"#utility.yul\":211:328   */\n    tag_127:\n        /* \"#utility.yul\":320:321   */\n      0x00\n        /* \"#utility.yul\":317:318   */\n      0x00\n        /* \"#utility.yul\":310:322   */\n      revert\n        /* \"#utility.yul\":334:411   */\n    tag_128:\n        /* \"#utility.yul\":371:378   */\n      0x00\n        /* \"#utility.yul\":400:405   */\n      dup2\n        /* \"#utility.yul\":389:405   */\n      swap1\n      pop\n        /* \"#utility.yul\":334:411   */\n      swap2\n      swap1\n      pop\n      jump\t// out\n        /* \"#utility.yul\":417:539   */\n    tag_129:\n        /* \"#utility.yul\":490:514   */\n      tag_175\n        /* \"#utility.yul\":508:513   */\n      dup2\n        /* \"#utility.yul\":490:514   */\n      tag_128\n      jump\t// in\n    tag_175:\n        /* \"#utility.yul\":483:488   */\n      dup2\n        /* \"#utility.yul\":480:515   */\n      eq\n        /* \"#utility.yul\":470:533   */\n      tag_176\n      jumpi\n        /* \"#utility.yul\":529:530   */\n      0x00\n        /* \"#utility.yul\":526:527   */\n      0x00\n        /* \"#utility.yul\":519:531   */\n      revert\n        /* \"#utility.yul\":470:533   */\n    tag_176:\n        /* \"#utility.yul\":417:539   */\n      pop\n      jump\t// out\n        /* \"#utility.yul\":545:684   */\n    tag_130:\n        /* \"#utility.yul\":591:596   */\n      0x00\n        /* \"#utility.yul\":629:635   */\n      dup2\n        /* \"#utility.yul\":616:636   */\n      calldataload\n        /* \"#utility.yul\":607:636   */\n      swap1\n      pop\n        /* \"#utility.yul\":645:678   */\n      tag_178\n        /* \"#utility.yul\":672:677   */\n      dup2\n        /* \"#utility.yul\":645:678   */\n      tag_129\n      jump\t// in\n    tag_178:\n        /* \"#utility.yul\":545:684   */\n      swap3\n      swap2\n      pop\n      pop\n      jump\t// out\n        /* \"#utility.yul\":690:1019   */\n    tag_14:\n        /* \"#utility.yul\":749:755   */\n      0x00\n        /* \"#utility.yul\":798:800   */\n      0x20\n        /* \"#utility.yul\":786:795   */\n      dup3\n        /* \"#utility.yul\":777:784   */\n      dup5\n        /* \"#utility.yul\":773:796   */\n      sub\n        /* \"#utility.yul\":769:801   */\n      slt\n        /* \"#utility.yul\":766:885   */\n      iszero\n      tag_180\n      jumpi\n        /* \"#utility.yul\":804:883   */\n      tag_181\n      tag_126\n      jump\t// in\n    tag_181:\n        /* \"#utility.yul\":766:885   */\n    tag_180:\n        /* \"#utility.yul\":924:925   */\n      0x00\n        /* \"#utility.yul\":949:1002   */\n      tag_182\n        /* \"#utility.yul\":994:1001   */\n      dup5\n        /* \"#utility.yul\":985:991   */\n      dup3\n        /* \"#utility.yul\":974:983   */\n      dup6\n        /* \"#utility.yul\":970:992   */\n      add\n        /* \"#utility.yul\":949:1002   */\n      tag_130\n      jump\t// in\n    tag_182:\n        /* \"#utility.yul\":939:1002   */\n      swap2\n      pop\n        /* \"#utility.yul\":895:1012   */\n      pop\n        /* \"#utility.yul\":690:1019   */\n      swap3\n      swap2\n      pop\n      pop\n      jump\t// out\n        /* \"#utility.yul\":1025:1142   */\n    tag_131:\n        /* \"#utility.yul\":1134:1135   */\n      0x00\n        /* \"#utility.yul\":1131:1132   */\n      0x00\n        /* \"#utility.yul\":1124:1136   */\n      revert\n        /* \"#utility.yul\":1148:1265   */\n    tag_132:\n        /* \"#utility.yul\":1257:1258   */\n      0x00\n        /* \"#utility.yul\":1254:1255   */\n      0x00\n        /* \"#utility.yul\":1247:1259   */\n      revert\n        /* \"#utility.yul\":1271:1388   */\n    tag_133:\n        /* \"#utility.yul\":1380:1381   */\n      0x00\n        /* \"#utility.yul\":1377:1378   */\n      0x00\n        /* \"#utility.yul\":1370:1382   */\n      revert\n        /* \"#utility.yul\":1435:2038   */\n    tag_134:\n        /* \"#utility.yul\":1543:1551   */\n      0x00\n        /* \"#utility.yul\":1553:1559   */\n      0x00\n        /* \"#utility.yul\":1603:1606   */\n      dup4\n        /* \"#utility.yul\":1596:1600   */\n      0x1f\n        /* \"#utility.yul\":1588:1594   */\n      dup5\n        /* \"#utility.yul\":1584:1601   */\n      add\n        /* \"#utility.yul\":1580:1607   */\n      slt\n        /* \"#utility.yul\":1570:1692   */\n      tag_187\n      jumpi\n        /* \"#utility.yul\":1611:1690   */\n      tag_188\n      tag_131\n      jump\t// in\n    tag_188:\n        /* \"#utility.yul\":1570:1692   */\n    tag_187:\n        /* \"#utility.yul\":1724:1730   */\n      dup3\n        /* \"#utility.yul\":1711:1731   */\n      calldataload\n        /* \"#utility.yul\":1701:1731   */\n      swap1\n      pop\n        /* \"#utility.yul\":1754:1772   */\n      0xffffffffffffffff\n        /* \"#utility.yul\":1746:1752   */\n      dup2\n        /* \"#utility.yul\":1743:1773   */\n      gt\n        /* \"#utility.yul\":1740:1857   */\n      iszero\n      tag_189\n      jumpi\n        /* \"#utility.yul\":1776:1855   */\n      tag_190\n      tag_132\n      jump\t// in\n    tag_190:\n        /* \"#utility.yul\":1740:1857   */\n    tag_189:\n        /* \"#utility.yul\":1890:1894   */\n      0x20\n        /* \"#utility.yul\":1882:1888   */\n      dup4\n        /* \"#utility.yul\":1878:1895   */\n      add\n        /* \"#utility.yul\":1866:1895   */\n      swap2\n      pop\n        /* \"#utility.yul\":1944:1947   */\n      dup4\n        /* \"#utility.yul\":1936:1940   */\n      0x40\n        /* \"#utility.yul\":1928:1934   */\n      dup3\n        /* \"#utility.yul\":1924:1941   */\n      mul\n        /* \"#utility.yul\":1914:1922   */\n      dup4\n        /* \"#utility.yul\":1910:1942   */\n      add\n        /* \"#utility.yul\":1907:1948   */\n      gt\n        /* \"#utility.yul\":1904:2032   */\n      iszero\n      tag_191\n      jumpi\n        /* \"#utility.yul\":1951:2030   */\n      tag_192\n      tag_133\n      jump\t// in\n    tag_192:\n        /* \"#utility.yul\":1904:2032   */\n    tag_191:\n        /* \"#utility.yul\":1435:2038   */\n      swap3\n      pop\n      swap3\n      swap1\n      pop\n      jump\t// out\n        /* \"#utility.yul\":2044:2673   */\n    tag_18:\n        /* \"#utility.yul\":2165:2171   */\n      0x00\n        /* \"#utility.yul\":2173:2179   */\n      0x00\n        /* \"#utility.yul\":2222:2224   */\n      0x20\n        /* \"#utility.yul\":2210:2219   */\n      dup4\n        /* \"#utility.yul\":2201:2208   */\n      dup6\n        /* \"#utility.yul\":2197:2220   */\n      sub\n        /* \"#utility.yul\":2193:2225   */\n      slt\n        /* \"#utility.yul\":2190:2309   */\n      iszero\n      tag_194\n      jumpi\n        /* \"#utility.yul\":2228:2307   */\n      tag_195\n      tag_126\n      jump\t// in\n    tag_195:\n        /* \"#utility.yul\":2190:2309   */\n    tag_194:\n        /* \"#utility.yul\":2376:2377   */\n      0x00\n        /* \"#utility.yul\":2365:2374   */\n      dup4\n        /* \"#utility.yul\":2361:2378   */\n      add\n        /* \"#utility.yul\":2348:2379   */\n      calldataload\n        /* \"#utility.yul\":2406:2424   */\n      0xffffffffffffffff\n        /* \"#utility.yul\":2398:2404   */\n      dup2\n        /* \"#utility.yul\":2395:2425   */\n      gt\n        /* \"#utility.yul\":2392:2509   */\n      iszero\n      tag_196\n      jumpi\n        /* \"#utility.yul\":2428:2507   */\n      tag_197\n      tag_127\n      jump\t// in\n    tag_197:\n        /* \"#utility.yul\":2392:2509   */\n    tag_196:\n        /* \"#utility.yul\":2541:2656   */\n      tag_198\n        /* \"#utility.yul\":2648:2655   */\n      dup6\n        /* \"#utility.yul\":2639:2645   */\n      dup3\n        /* \"#utility.yul\":2628:2637   */\n      dup7\n        /* \"#utility.yul\":2624:2646   */\n      add\n        /* \"#utility.yul\":2541:2656   */\n      tag_134\n      jump\t// in\n    tag_198:\n        /* \"#utility.yul\":2523:2656   */\n      swap3\n      pop\n      swap3\n      pop\n        /* \"#utility.yul\":2319:2666   */\n      pop\n        /* \"#utility.yul\":2044:2673   */\n      swap3\n      pop\n      swap3\n      swap1\n      pop\n      jump\t// out\n        /* \"#utility.yul\":2679:2805   */\n    tag_135:\n        /* \"#utility.yul\":2716:2723   */\n      0x00\n        /* \"#utility.yul\":2756:2798   */\n      0xffffffffffffffffffffffffffffffffffffffff\n        /* \"#utility.yul\":2749:2754   */\n      dup3\n        /* \"#utility.yul\":2745:2799   */\n      and\n        /* \"#utility.yul\":2734:2799   */\n      swap1\n      pop\n        /* \"#utility.yul\":2679:2805   */\n      swap2\n      swap1\n      pop\n      jump\t// out\n        /* \"#utility.yul\":2811:2871   */\n    tag_136:\n        /* \"#utility.yul\":2839:2842   */\n      0x00\n        /* \"#utility.yul\":2860:2865   */\n      dup2\n        /* \"#utility.yul\":2853:2865   */\n      swap1\n      pop\n        /* \"#utility.yul\":2811:2871   */\n      swap2\n      swap1\n      pop\n      jump\t// out\n        /* \"#utility.yul\":2877:3019   */\n    tag_137:\n        /* \"#utility.yul\":2927:2936   */\n      0x00\n        /* \"#utility.yul\":2960:3013   */\n      tag_202\n        /* \"#utility.yul\":2978:3012   */\n      tag_203\n        /* \"#utility.yul\":2987:3011   */\n      tag_204\n        /* \"#utility.yul\":3005:3010   */\n      dup5\n        /* \"#utility.yul\":2987:3011   */\n      tag_135\n      jump\t// in\n    tag_204:\n        /* \"#utility.yul\":2978:3012   */\n      tag_136\n      jump\t// in\n    tag_203:\n        /* \"#utility.yul\":2960:3013   */\n      tag_135\n      jump\t// in\n    tag_202:\n        /* \"#utility.yul\":2947:3013   */\n      swap1\n      pop\n        /* \"#utility.yul\":2877:3019   */\n      swap2\n      swap1\n      pop\n      jump\t// out\n        /* \"#utility.yul\":3025:3151   */\n    tag_138:\n        /* \"#utility.yul\":3075:3084   */\n      0x00\n        /* \"#utility.yul\":3108:3145   */\n      tag_206\n        /* \"#utility.yul\":3139:3144   */\n      dup3\n        /* \"#utility.yul\":3108:3145   */\n      tag_137\n      jump\t// in\n    tag_206:\n        /* \"#utility.yul\":3095:3145   */\n      swap1\n      pop\n        /* \"#utility.yul\":3025:3151   */\n      swap2\n      swap1\n      pop\n      jump\t// out\n        /* \"#utility.yul\":3157:3297   */\n    tag_139:\n        /* \"#utility.yul\":3221:3230   */\n      0x00\n        /* \"#utility.yul\":3254:3291   */\n      tag_208\n        /* \"#utility.yul\":3285:3290   */\n      dup3\n        /* \"#utility.yul\":3254:3291   */\n      tag_138\n      jump\t// in\n    tag_208:\n        /* \"#utility.yul\":3241:3291   */\n      swap1\n      pop\n        /* \"#utility.yul\":3157:3297   */\n      swap2\n      swap1\n      pop\n      jump\t// out\n        /* \"#utility.yul\":3303:3462   */\n    tag_140:\n        /* \"#utility.yul\":3404:3455   */\n      tag_210\n        /* \"#utility.yul\":3449:3454   */\n      dup2\n        /* \"#utility.yul\":3404:3455   */\n      tag_139\n      jump\t// in\n    tag_210:\n        /* \"#utility.yul\":3399:3402   */\n      dup3\n        /* \"#utility.yul\":3392:3456   */\n      mstore\n        /* \"#utility.yul\":3303:3462   */\n      pop\n      pop\n      jump\t// out\n        /* \"#utility.yul\":3468:3718   */\n    tag_23:\n        /* \"#utility.yul\":3575:3579   */\n      0x00\n        /* \"#utility.yul\":3613:3615   */\n      0x20\n        /* \"#utility.yul\":3602:3611   */\n      dup3\n        /* \"#utility.yul\":3598:3616   */\n      add\n        /* \"#utility.yul\":3590:3616   */\n      swap1\n      pop\n        /* \"#utility.yul\":3626:3711   */\n      tag_212\n        /* \"#utility.yul\":3708:3709   */\n      0x00\n        /* \"#utility.yul\":3697:3706   */\n      dup4\n        /* \"#utility.yul\":3693:3710   */\n      add\n        /* \"#utility.yul\":3684:3690   */\n      dup5\n        /* \"#utility.yul\":3626:3711   */\n      tag_140\n      jump\t// in\n    tag_212:\n        /* \"#utility.yul\":3468:3718   */\n      swap3\n      swap2\n      pop\n      pop\n      jump\t// out\n        /* \"#utility.yul\":3741:4309   */\n    tag_141:\n        /* \"#utility.yul\":3814:3822   */\n      0x00\n        /* \"#utility.yul\":3824:3830   */\n      0x00\n        /* \"#utility.yul\":3874:3877   */\n      dup4\n        /* \"#utility.yul\":3867:3871   */\n      0x1f\n        /* \"#utility.yul\":3859:3865   */\n      dup5\n        /* \"#utility.yul\":3855:3872   */\n      add\n        /* \"#utility.yul\":3851:3878   */\n      slt\n        /* \"#utility.yul\":3841:3963   */\n      tag_214\n      jumpi\n        /* \"#utility.yul\":3882:3961   */\n      tag_215\n      tag_131\n      jump\t// in\n    tag_215:\n        /* \"#utility.yul\":3841:3963   */\n    tag_214:\n        /* \"#utility.yul\":3995:4001   */\n      dup3\n        /* \"#utility.yul\":3982:4002   */\n      calldataload\n        /* \"#utility.yul\":3972:4002   */\n      swap1\n      pop\n        /* \"#utility.yul\":4025:4043   */\n      0xffffffffffffffff\n        /* \"#utility.yul\":4017:4023   */\n      dup2\n        /* \"#utility.yul\":4014:4044   */\n      gt\n        /* \"#utility.yul\":4011:4128   */\n      iszero\n      tag_216\n      jumpi\n        /* \"#utility.yul\":4047:4126   */\n      tag_217\n      tag_132\n      jump\t// in\n    tag_217:\n        /* \"#utility.yul\":4011:4128   */\n    tag_216:\n        /* \"#utility.yul\":4161:4165   */\n      0x20\n        /* \"#utility.yul\":4153:4159   */\n      dup4\n        /* \"#utility.yul\":4149:4166   */\n      add\n        /* \"#utility.yul\":4137:4166   */\n      swap2\n      pop\n        /* \"#utility.yul\":4215:4218   */\n      dup4\n        /* \"#utility.yul\":4207:4211   */\n      0x20\n        /* \"#utility.yul\":4199:4205   */\n      dup3\n        /* \"#utility.yul\":4195:4212   */\n      mul\n        /* \"#utility.yul\":4185:4193   */\n      dup4\n        /* \"#utility.yul\":4181:4213   */\n      add\n        /* \"#utility.yul\":4178:4219   */\n      gt\n        /* \"#utility.yul\":4175:4303   */\n      iszero\n      tag_218\n      jumpi\n        /* \"#utility.yul\":4222:4301   */\n      tag_219\n      tag_133\n      jump\t// in\n    tag_219:\n        /* \"#utility.yul\":4175:4303   */\n    tag_218:\n        /* \"#utility.yul\":3741:4309   */\n      swap3\n      pop\n      swap3\n      swap1\n      pop\n      jump\t// out\n        /* \"#utility.yul\":4315:5019   */\n    tag_28:\n        /* \"#utility.yul\":4410:4416   */\n      0x00\n        /* \"#utility.yul\":4418:4424   */\n      0x00\n        /* \"#utility.yul\":4426:4432   */\n      0x00\n        /* \"#utility.yul\":4475:4477   */\n      0x40\n        /* \"#utility.yul\":4463:4472   */\n      dup5\n        /* \"#utility.yul\":4454:4461   */\n      dup7\n        /* \"#utility.yul\":4450:4473   */\n      sub\n        /* \"#utility.yul\":4446:4478   */\n      slt\n        /* \"#utility.yul\":4443:4562   */\n      iszero\n      tag_221\n      jumpi\n        /* \"#utility.yul\":4481:4560   */\n      tag_222\n      tag_126\n      jump\t// in\n    tag_222:\n        /* \"#utility.yul\":4443:4562   */\n    tag_221:\n        /* \"#utility.yul\":4629:4630   */\n      0x00\n        /* \"#utility.yul\":4618:4627   */\n      dup5\n        /* \"#utility.yul\":4614:4631   */\n      add\n        /* \"#utility.yul\":4601:4632   */\n      calldataload\n        /* \"#utility.yul\":4659:4677   */\n      0xffffffffffffffff\n        /* \"#utility.yul\":4651:4657   */\n      dup2\n        /* \"#utility.yul\":4648:4678   */\n      gt\n        /* \"#utility.yul\":4645:4762   */\n      iszero\n      tag_223\n      jumpi\n        /* \"#utility.yul\":4681:4760   */\n      tag_224\n      tag_127\n      jump\t// in\n    tag_224:\n        /* \"#utility.yul\":4645:4762   */\n    tag_223:\n        /* \"#utility.yul\":4794:4874   */\n      tag_225\n        /* \"#utility.yul\":4866:4873   */\n      dup7\n        /* \"#utility.yul\":4857:4863   */\n      dup3\n        /* \"#utility.yul\":4846:4855   */\n      dup8\n        /* \"#utility.yul\":4842:4864   */\n      add\n        /* \"#utility.yul\":4794:4874   */\n      tag_141\n      jump\t// in\n    tag_225:\n        /* \"#utility.yul\":4776:4874   */\n      swap4\n      pop\n      swap4\n      pop\n        /* \"#utility.yul\":4572:4884   */\n      pop\n        /* \"#utility.yul\":4923:4925   */\n      0x20\n        /* \"#utility.yul\":4949:5002   */\n      tag_226\n        /* \"#utility.yul\":4994:5001   */\n      dup7\n        /* \"#utility.yul\":4985:4991   */\n      dup3\n        /* \"#utility.yul\":4974:4983   */\n      dup8\n        /* \"#utility.yul\":4970:4992   */\n      add\n        /* \"#utility.yul\":4949:5002   */\n      tag_130\n      jump\t// in\n    tag_226:\n        /* \"#utility.yul\":4939:5002   */\n      swap2\n      pop\n        /* \"#utility.yul\":4894:5012   */\n      pop\n        /* \"#utility.yul\":4315:5019   */\n      swap3\n      pop\n      swap3\n      pop\n      swap3\n      jump\t// out\n        /* \"#utility.yul\":5025:5121   */\n    tag_142:\n        /* \"#utility.yul\":5062:5069   */\n      0x00\n        /* \"#utility.yul\":5091:5115   */\n      tag_228\n        /* \"#utility.yul\":5109:5114   */\n      dup3\n        /* \"#utility.yul\":5091:5115   */\n      tag_135\n      jump\t// in\n    tag_228:\n        /* \"#utility.yul\":5080:5115   */\n      swap1\n      pop\n        /* \"#utility.yul\":5025:5121   */\n      swap2\n      swap1\n      pop\n      jump\t// out\n        /* \"#utility.yul\":5127:5245   */\n    tag_143:\n        /* \"#utility.yul\":5214:5238   */\n      tag_230\n        /* \"#utility.yul\":5232:5237   */\n      dup2\n        /* \"#utility.yul\":5214:5238   */\n      tag_142\n      jump\t// in\n    tag_230:\n        /* \"#utility.yul\":5209:5212   */\n      dup3\n        /* \"#utility.yul\":5202:5239   */\n      mstore\n        /* \"#utility.yul\":5127:5245   */\n      pop\n      pop\n      jump\t// out\n        /* \"#utility.yul\":5251:5473   */\n    tag_33:\n        /* \"#utility.yul\":5344:5348   */\n      0x00\n        /* \"#utility.yul\":5382:5384   */\n      0x20\n        /* \"#utility.yul\":5371:5380   */\n      dup3\n        /* \"#utility.yul\":5367:5385   */\n      add\n        /* \"#utility.yul\":5359:5385   */\n      swap1\n      pop\n        /* \"#utility.yul\":5395:5466   */\n      tag_232\n        /* \"#utility.yul\":5463:5464   */\n      0x00\n        /* \"#utility.yul\":5452:5461   */\n      dup4\n        /* \"#utility.yul\":5448:5465   */\n      add\n        /* \"#utility.yul\":5439:5445   */\n      dup5\n        /* \"#utility.yul\":5395:5466   */\n      tag_143\n      jump\t// in\n    tag_232:\n        /* \"#utility.yul\":5251:5473   */\n      swap3\n      swap2\n      pop\n      pop\n      jump\t// out\n        /* \"#utility.yul\":5479:5589   */\n    tag_144:\n        /* \"#utility.yul\":5530:5537   */\n      0x00\n        /* \"#utility.yul\":5559:5583   */\n      tag_234\n        /* \"#utility.yul\":5577:5582   */\n      dup3\n        /* \"#utility.yul\":5559:5583   */\n      tag_142\n      jump\t// in\n    tag_234:\n        /* \"#utility.yul\":5548:5583   */\n      swap1\n      pop\n        /* \"#utility.yul\":5479:5589   */\n      swap2\n      swap1\n      pop\n      jump\t// out\n        /* \"#utility.yul\":5595:5745   */\n    tag_145:\n        /* \"#utility.yul\":5682:5720   */\n      tag_236\n        /* \"#utility.yul\":5714:5719   */\n      dup2\n        /* \"#utility.yul\":5682:5720   */\n      tag_144\n      jump\t// in\n    tag_236:\n        /* \"#utility.yul\":5675:5680   */\n      dup2\n        /* \"#utility.yul\":5672:5721   */\n      eq\n        /* \"#utility.yul\":5662:5739   */\n      tag_237\n      jumpi\n        /* \"#utility.yul\":5735:5736   */\n      0x00\n        /* \"#utility.yul\":5732:5733   */\n      0x00\n        /* \"#utility.yul\":5725:5737   */\n      revert\n        /* \"#utility.yul\":5662:5739   */\n    tag_237:\n        /* \"#utility.yul\":5595:5745   */\n      pop\n      jump\t// out\n        /* \"#utility.yul\":5751:5918   */\n    tag_146:\n        /* \"#utility.yul\":5811:5816   */\n      0x00\n        /* \"#utility.yul\":5849:5855   */\n      dup2\n        /* \"#utility.yul\":5836:5856   */\n      calldataload\n        /* \"#utility.yul\":5827:5856   */\n      swap1\n      pop\n        /* \"#utility.yul\":5865:5912   */\n      tag_239\n        /* \"#utility.yul\":5906:5911   */\n      dup2\n        /* \"#utility.yul\":5865:5912   */\n      tag_145\n      jump\t// in\n    tag_239:\n        /* \"#utility.yul\":5751:5918   */\n      swap3\n      swap2\n      pop\n      pop\n      jump\t// out\n        /* \"#utility.yul\":5924:6281   */\n    tag_36:\n        /* \"#utility.yul\":5997:6003   */\n      0x00\n        /* \"#utility.yul\":6046:6048   */\n      0x20\n        /* \"#utility.yul\":6034:6043   */\n      dup3\n        /* \"#utility.yul\":6025:6032   */\n      dup5\n        /* \"#utility.yul\":6021:6044   */\n      sub\n        /* \"#utility.yul\":6017:6049   */\n      slt\n        /* \"#utility.yul\":6014:6133   */\n      iszero\n      tag_241\n      jumpi\n        /* \"#utility.yul\":6052:6131   */\n      tag_242\n      tag_126\n      jump\t// in\n    tag_242:\n        /* \"#utility.yul\":6014:6133   */\n    tag_241:\n        /* \"#utility.yul\":6172:6173   */\n      0x00\n        /* \"#utility.yul\":6197:6264   */\n      tag_243\n        /* \"#utility.yul\":6256:6263   */\n      dup5\n        /* \"#utility.yul\":6247:6253   */\n      dup3\n        /* \"#utility.yul\":6236:6245   */\n      dup6\n        /* \"#utility.yul\":6232:6254   */\n      add\n        /* \"#utility.yul\":6197:6264   */\n      tag_146\n      jump\t// in\n    tag_243:\n        /* \"#utility.yul\":6187:6264   */\n      swap2\n      pop\n        /* \"#utility.yul\":6143:6274   */\n      pop\n        /* \"#utility.yul\":5924:6281   */\n      swap3\n      swap2\n      pop\n      pop\n      jump\t// out\n        /* \"#utility.yul\":6287:6409   */\n    tag_147:\n        /* \"#utility.yul\":6360:6384   */\n      tag_245\n        /* \"#utility.yul\":6378:6383   */\n      dup2\n        /* \"#utility.yul\":6360:6384   */\n      tag_142\n      jump\t// in\n    tag_245:\n        /* \"#utility.yul\":6353:6358   */\n      dup2\n        /* \"#utility.yul\":6350:6385   */\n      eq\n        /* \"#utility.yul\":6340:6403   */\n      tag_246\n      jumpi\n        /* \"#utility.yul\":6399:6400   */\n      0x00\n        /* \"#utility.yul\":6396:6397   */\n      0x00\n        /* \"#utility.yul\":6389:6401   */\n      revert\n        /* \"#utility.yul\":6340:6403   */\n    tag_246:\n        /* \"#utility.yul\":6287:6409   */\n      pop\n      jump\t// out\n        /* \"#utility.yul\":6415:6554   */\n    tag_148:\n        /* \"#utility.yul\":6461:6466   */\n      0x00\n        /* \"#utility.yul\":6499:6505   */\n      dup2\n        /* \"#utility.yul\":6486:6506   */\n      calldataload\n        /* \"#utility.yul\":6477:6506   */\n      swap1\n      pop\n        /* \"#utility.yul\":6515:6548   */\n      tag_248\n        /* \"#utility.yul\":6542:6547   */\n      dup2\n        /* \"#utility.yul\":6515:6548   */\n      tag_147\n      jump\t// in\n    tag_248:\n        /* \"#utility.yul\":6415:6554   */\n      swap3\n      swap2\n      pop\n      pop\n      jump\t// out\n        /* \"#utility.yul\":6560:6889   */\n    tag_40:\n        /* \"#utility.yul\":6619:6625   */\n      0x00\n        /* \"#utility.yul\":6668:6670   */\n      0x20\n        /* \"#utility.yul\":6656:6665   */\n      dup3\n        /* \"#utility.yul\":6647:6654   */\n      dup5\n        /* \"#utility.yul\":6643:6666   */\n      sub\n        /* \"#utility.yul\":6639:6671   */\n      slt\n        /* \"#utility.yul\":6636:6755   */\n      iszero\n      tag_250\n      jumpi\n        /* \"#utility.yul\":6674:6753   */\n      tag_251\n      tag_126\n      jump\t// in\n    tag_251:\n        /* \"#utility.yul\":6636:6755   */\n    tag_250:\n        /* \"#utility.yul\":6794:6795   */\n      0x00\n        /* \"#utility.yul\":6819:6872   */\n      tag_252\n        /* \"#utility.yul\":6864:6871   */\n      dup5\n        /* \"#utility.yul\":6855:6861   */\n      dup3\n        /* \"#utility.yul\":6844:6853   */\n      dup6\n        /* \"#utility.yul\":6840:6862   */\n      add\n        /* \"#utility.yul\":6819:6872   */\n      tag_148\n      jump\t// in\n    tag_252:\n        /* \"#utility.yul\":6809:6872   */\n      swap2\n      pop\n        /* \"#utility.yul\":6765:6882   */\n      pop\n        /* \"#utility.yul\":6560:6889   */\n      swap3\n      swap2\n      pop\n      pop\n      jump\t// out\n        /* \"#utility.yul\":6895:7075   */\n    tag_58:\n        /* \"#utility.yul\":6943:7020   */\n      0x4e487b7100000000000000000000000000000000000000000000000000000000\n        /* \"#utility.yul\":6940:6941   */\n      0x00\n        /* \"#utility.yul\":6933:7021   */\n      mstore\n        /* \"#utility.yul\":7040:7044   */\n      0x32\n        /* \"#utility.yul\":7037:7038   */\n      0x04\n        /* \"#utility.yul\":7030:7045   */\n      mstore\n        /* \"#utility.yul\":7064:7068   */\n      0x24\n        /* \"#utility.yul\":7061:7062   */\n      0x00\n        /* \"#utility.yul\":7054:7069   */\n      revert\n        /* \"#utility.yul\":7081:7199   */\n    tag_149:\n        /* \"#utility.yul\":7168:7192   */\n      tag_255\n        /* \"#utility.yul\":7186:7191   */\n      dup2\n        /* \"#utility.yul\":7168:7192   */\n      tag_128\n      jump\t// in\n    tag_255:\n        /* \"#utility.yul\":7163:7166   */\n      dup3\n        /* \"#utility.yul\":7156:7193   */\n      mstore\n        /* \"#utility.yul\":7081:7199   */\n      pop\n      pop\n      jump\t// out\n        /* \"#utility.yul\":7205:7427   */\n    tag_62:\n        /* \"#utility.yul\":7298:7302   */\n      0x00\n        /* \"#utility.yul\":7336:7338   */\n      0x20\n        /* \"#utility.yul\":7325:7334   */\n      dup3\n        /* \"#utility.yul\":7321:7339   */\n      add\n        /* \"#utility.yul\":7313:7339   */\n      swap1\n      pop\n        /* \"#utility.yul\":7349:7420   */\n      tag_257\n        /* \"#utility.yul\":7417:7418   */\n      0x00\n        /* \"#utility.yul\":7406:7415   */\n      dup4\n        /* \"#utility.yul\":7402:7419   */\n      add\n        /* \"#utility.yul\":7393:7399   */\n      dup5\n        /* \"#utility.yul\":7349:7420   */\n      tag_149\n      jump\t// in\n    tag_257:\n        /* \"#utility.yul\":7205:7427   */\n      swap3\n      swap2\n      pop\n      pop\n      jump\t// out\n        /* \"#utility.yul\":7433:7629   */\n    tag_150:\n        /* \"#utility.yul\":7583:7594   */\n      0x00\n        /* \"#utility.yul\":7620:7623   */\n      dup2\n        /* \"#utility.yul\":7605:7623   */\n      swap1\n      pop\n        /* \"#utility.yul\":7433:7629   */\n      swap3\n      swap2\n      pop\n      pop\n      jump\t// out\n        /* \"#utility.yul\":7635:7772   */\n    tag_151:\n        /* \"#utility.yul\":7739:7743   */\n      0x00\n        /* \"#utility.yul\":7762:7765   */\n      dup2\n        /* \"#utility.yul\":7754:7765   */\n      swap1\n      pop\n        /* \"#utility.yul\":7635:7772   */\n      swap2\n      swap1\n      pop\n      jump\t// out\n        /* \"#utility.yul\":7778:7900   */\n    tag_152:\n        /* \"#utility.yul\":7830:7835   */\n      0x00\n        /* \"#utility.yul\":7855:7894   */\n      tag_261\n        /* \"#utility.yul\":7890:7892   */\n      0x20\n        /* \"#utility.yul\":7885:7888   */\n      dup5\n        /* \"#utility.yul\":7881:7893   */\n      add\n        /* \"#utility.yul\":7876:7879   */\n      dup5\n        /* \"#utility.yul\":7855:7894   */\n      tag_148\n      jump\t// in\n    tag_261:\n        /* \"#utility.yul\":7846:7894   */\n      swap1\n      pop\n        /* \"#utility.yul\":7778:7900   */\n      swap3\n      swap2\n      pop\n      pop\n      jump\t// out\n        /* \"#utility.yul\":7906:8022   */\n    tag_153:\n        /* \"#utility.yul\":7991:8015   */\n      tag_263\n        /* \"#utility.yul\":8009:8014   */\n      dup2\n        /* \"#utility.yul\":7991:8015   */\n      tag_142\n      jump\t// in\n    tag_263:\n        /* \"#utility.yul\":7986:7989   */\n      dup3\n        /* \"#utility.yul\":7979:8016   */\n      mstore\n        /* \"#utility.yul\":7906:8022   */\n      pop\n      pop\n      jump\t// out\n        /* \"#utility.yul\":8028:8223   */\n    tag_154:\n        /* \"#utility.yul\":8105:8115   */\n      0x00\n        /* \"#utility.yul\":8126:8180   */\n      tag_265\n        /* \"#utility.yul\":8176:8179   */\n      dup4\n        /* \"#utility.yul\":8168:8174   */\n      dup4\n        /* \"#utility.yul\":8126:8180   */\n      tag_153\n      jump\t// in\n    tag_265:\n        /* \"#utility.yul\":8212:8216   */\n      0x20\n        /* \"#utility.yul\":8207:8210   */\n      dup4\n        /* \"#utility.yul\":8203:8217   */\n      add\n        /* \"#utility.yul\":8189:8217   */\n      swap1\n      pop\n        /* \"#utility.yul\":8028:8223   */\n      swap3\n      swap2\n      pop\n      pop\n      jump\t// out\n        /* \"#utility.yul\":8229:8351   */\n    tag_155:\n        /* \"#utility.yul\":8281:8286   */\n      0x00\n        /* \"#utility.yul\":8306:8345   */\n      tag_267\n        /* \"#utility.yul\":8341:8343   */\n      0x20\n        /* \"#utility.yul\":8336:8339   */\n      dup5\n        /* \"#utility.yul\":8332:8344   */\n      add\n        /* \"#utility.yul\":8327:8330   */\n      dup5\n        /* \"#utility.yul\":8306:8345   */\n      tag_130\n      jump\t// in\n    tag_267:\n        /* \"#utility.yul\":8297:8345   */\n      swap1\n      pop\n        /* \"#utility.yul\":8229:8351   */\n      swap3\n      swap2\n      pop\n      pop\n      jump\t// out\n        /* \"#utility.yul\":8357:8473   */\n    tag_156:\n        /* \"#utility.yul\":8442:8466   */\n      tag_269\n        /* \"#utility.yul\":8460:8465   */\n      dup2\n        /* \"#utility.yul\":8442:8466   */\n      tag_128\n      jump\t// in\n    tag_269:\n        /* \"#utility.yul\":8437:8440   */\n      dup3\n        /* \"#utility.yul\":8430:8467   */\n      mstore\n        /* \"#utility.yul\":8357:8473   */\n      pop\n      pop\n      jump\t// out\n        /* \"#utility.yul\":8479:8674   */\n    tag_157:\n        /* \"#utility.yul\":8556:8566   */\n      0x00\n        /* \"#utility.yul\":8577:8631   */\n      tag_271\n        /* \"#utility.yul\":8627:8630   */\n      dup4\n        /* \"#utility.yul\":8619:8625   */\n      dup4\n        /* \"#utility.yul\":8577:8631   */\n      tag_156\n      jump\t// in\n    tag_271:\n        /* \"#utility.yul\":8663:8667   */\n      0x20\n        /* \"#utility.yul\":8658:8661   */\n      dup4\n        /* \"#utility.yul\":8654:8668   */\n      add\n        /* \"#utility.yul\":8640:8668   */\n      swap1\n      pop\n        /* \"#utility.yul\":8479:8674   */\n      swap3\n      swap2\n      pop\n      pop\n      jump\t// out\n        /* \"#utility.yul\":8754:9366   */\n    tag_158:\n        /* \"#utility.yul\":8917:8921   */\n      0x00\n        /* \"#utility.yul\":8912:8915   */\n      dup3\n        /* \"#utility.yul\":8908:8922   */\n      add\n        /* \"#utility.yul\":8992:9042   */\n      tag_273\n        /* \"#utility.yul\":9036:9040   */\n      0x00\n        /* \"#utility.yul\":9029:9034   */\n      dup4\n        /* \"#utility.yul\":9025:9041   */\n      add\n        /* \"#utility.yul\":9018:9023   */\n      dup4\n        /* \"#utility.yul\":8992:9042   */\n      tag_152\n      jump\t// in\n    tag_273:\n        /* \"#utility.yul\":9062:9132   */\n      tag_274\n        /* \"#utility.yul\":9128:9131   */\n      dup5\n        /* \"#utility.yul\":9114:9126   */\n      dup3\n        /* \"#utility.yul\":9062:9132   */\n      tag_154\n      jump\t// in\n    tag_274:\n        /* \"#utility.yul\":9055:9132   */\n      swap4\n      pop\n        /* \"#utility.yul\":8932:9142   */\n      pop\n        /* \"#utility.yul\":9209:9259   */\n      tag_275\n        /* \"#utility.yul\":9253:9257   */\n      0x20\n        /* \"#utility.yul\":9246:9251   */\n      dup4\n        /* \"#utility.yul\":9242:9258   */\n      add\n        /* \"#utility.yul\":9235:9240   */\n      dup4\n        /* \"#utility.yul\":9209:9259   */\n      tag_155\n      jump\t// in\n    tag_275:\n        /* \"#utility.yul\":9279:9349   */\n      tag_276\n        /* \"#utility.yul\":9345:9348   */\n      dup5\n        /* \"#utility.yul\":9331:9343   */\n      dup3\n        /* \"#utility.yul\":9279:9349   */\n      tag_157\n      jump\t// in\n    tag_276:\n        /* \"#utility.yul\":9272:9349   */\n      swap4\n      pop\n        /* \"#utility.yul\":9152:9359   */\n      pop\n        /* \"#utility.yul\":8886:9366   */\n      pop\n        /* \"#utility.yul\":8754:9366   */\n      pop\n      pop\n      jump\t// out\n        /* \"#utility.yul\":9372:9703   */\n    tag_159:\n        /* \"#utility.yul\":9517:9527   */\n      0x00\n        /* \"#utility.yul\":9538:9660   */\n      tag_278\n        /* \"#utility.yul\":9656:9659   */\n      dup4\n        /* \"#utility.yul\":9648:9654   */\n      dup4\n        /* \"#utility.yul\":9538:9660   */\n      tag_158\n      jump\t// in\n    tag_278:\n        /* \"#utility.yul\":9692:9696   */\n      0x40\n        /* \"#utility.yul\":9687:9690   */\n      dup4\n        /* \"#utility.yul\":9683:9697   */\n      add\n        /* \"#utility.yul\":9669:9697   */\n      swap1\n      pop\n        /* \"#utility.yul\":9372:9703   */\n      swap3\n      swap2\n      pop\n      pop\n      jump\t// out\n        /* \"#utility.yul\":9709:9830   */\n    tag_160:\n        /* \"#utility.yul\":9796:9801   */\n      0x00\n        /* \"#utility.yul\":9821:9824   */\n      dup3\n        /* \"#utility.yul\":9812:9824   */\n      swap1\n      pop\n        /* \"#utility.yul\":9709:9830   */\n      swap3\n      swap2\n      pop\n      pop\n      jump\t// out\n        /* \"#utility.yul\":9836:9986   */\n    tag_161:\n        /* \"#utility.yul\":9943:9947   */\n      0x00\n        /* \"#utility.yul\":9975:9979   */\n      0x40\n        /* \"#utility.yul\":9970:9973   */\n      dup3\n        /* \"#utility.yul\":9966:9980   */\n      add\n        /* \"#utility.yul\":9958:9980   */\n      swap1\n      pop\n        /* \"#utility.yul\":9836:9986   */\n      swap2\n      swap1\n      pop\n      jump\t// out\n        /* \"#utility.yul\":10070:11087   */\n    tag_162:\n        /* \"#utility.yul\":10285:10288   */\n      0x00\n        /* \"#utility.yul\":10308:10445   */\n      tag_282\n        /* \"#utility.yul\":10438:10444   */\n      dup4\n        /* \"#utility.yul\":10433:10436   */\n      dup6\n        /* \"#utility.yul\":10308:10445   */\n      tag_150\n      jump\t// in\n    tag_282:\n        /* \"#utility.yul\":10301:10445   */\n      swap4\n      pop\n        /* \"#utility.yul\":10469:10562   */\n      tag_283\n        /* \"#utility.yul\":10556:10561   */\n      dup3\n        /* \"#utility.yul\":10469:10562   */\n      tag_151\n      jump\t// in\n    tag_283:\n        /* \"#utility.yul\":10585:10592   */\n      dup1\n        /* \"#utility.yul\":10616:10617   */\n      0x00\n        /* \"#utility.yul\":10601:11062   */\n    tag_284:\n        /* \"#utility.yul\":10626:10632   */\n      dup6\n        /* \"#utility.yul\":10623:10624   */\n      dup2\n        /* \"#utility.yul\":10620:10633   */\n      lt\n        /* \"#utility.yul\":10601:11062   */\n      iszero\n      tag_286\n      jumpi\n        /* \"#utility.yul\":10696:10773   */\n      tag_287\n        /* \"#utility.yul\":10766:10772   */\n      dup3\n        /* \"#utility.yul\":10757:10764   */\n      dup5\n        /* \"#utility.yul\":10696:10773   */\n      tag_160\n      jump\t// in\n    tag_287:\n        /* \"#utility.yul\":10793:10932   */\n      tag_288\n        /* \"#utility.yul\":10928:10931   */\n      dup9\n        /* \"#utility.yul\":10913:10926   */\n      dup3\n        /* \"#utility.yul\":10793:10932   */\n      tag_159\n      jump\t// in\n    tag_288:\n        /* \"#utility.yul\":10786:10932   */\n      swap8\n      pop\n        /* \"#utility.yul\":10955:11052   */\n      tag_289\n        /* \"#utility.yul\":11045:11051   */\n      dup4\n        /* \"#utility.yul\":10955:11052   */\n      tag_161\n      jump\t// in\n    tag_289:\n        /* \"#utility.yul\":10945:11052   */\n      swap3\n      pop\n        /* \"#utility.yul\":10661:11062   */\n      pop\n        /* \"#utility.yul\":10648:10649   */\n      0x01\n        /* \"#utility.yul\":10645:10646   */\n      dup2\n        /* \"#utility.yul\":10641:10650   */\n      add\n        /* \"#utility.yul\":10636:10650   */\n      swap1\n      pop\n        /* \"#utility.yul\":10601:11062   */\n      jump(tag_284)\n    tag_286:\n        /* \"#utility.yul\":10605:10619   */\n      pop\n        /* \"#utility.yul\":11078:11081   */\n      dup6\n        /* \"#utility.yul\":11071:11081   */\n      swap3\n      pop\n        /* \"#utility.yul\":10290:11087   */\n      pop\n      pop\n        /* \"#utility.yul\":10070:11087   */\n      swap4\n      swap3\n      pop\n      pop\n      pop\n      jump\t// out\n        /* \"#utility.yul\":11093:11584   */\n    tag_70:\n        /* \"#utility.yul\":11333:11336   */\n      0x00\n        /* \"#utility.yul\":11355:11558   */\n      tag_291\n        /* \"#utility.yul\":11554:11557   */\n      dup3\n        /* \"#utility.yul\":11545:11551   */\n      dup5\n        /* \"#utility.yul\":11537:11543   */\n      dup7\n        /* \"#utility.yul\":11355:11558   */\n      tag_162\n      jump\t// in\n    tag_291:\n        /* \"#utility.yul\":11348:11558   */\n      swap2\n      pop\n        /* \"#utility.yul\":11575:11578   */\n      dup2\n        /* \"#utility.yul\":11568:11578   */\n      swap1\n      pop\n        /* \"#utility.yul\":11093:11584   */\n      swap4\n      swap3\n      pop\n      pop\n      pop\n      jump\t// out\n        /* \"#utility.yul\":11590:11774   */\n    tag_163:\n        /* \"#utility.yul\":11689:11700   */\n      0x00\n        /* \"#utility.yul\":11723:11729   */\n      dup3\n        /* \"#utility.yul\":11718:11721   */\n      dup3\n        /* \"#utility.yul\":11711:11730   */\n      mstore\n        /* \"#utility.yul\":11763:11767   */\n      0x20\n        /* \"#utility.yul\":11758:11761   */\n      dup3\n        /* \"#utility.yul\":11754:11768   */\n      add\n        /* \"#utility.yul\":11739:11768   */\n      swap1\n      pop\n        /* \"#utility.yul\":11590:11774   */\n      swap3\n      swap2\n      pop\n      pop\n      jump\t// out\n        /* \"#utility.yul\":11780:11882   */\n    tag_164:\n        /* \"#utility.yul\":11849:11853   */\n      0x00\n        /* \"#utility.yul\":11872:11875   */\n      dup2\n        /* \"#utility.yul\":11864:11875   */\n      swap1\n      pop\n        /* \"#utility.yul\":11780:11882   */\n      swap2\n      swap1\n      pop\n      jump\t// out\n        /* \"#utility.yul\":11888:11996   */\n    tag_165:\n        /* \"#utility.yul\":11965:11989   */\n      tag_295\n        /* \"#utility.yul\":11983:11988   */\n      dup2\n        /* \"#utility.yul\":11965:11989   */\n      tag_142\n      jump\t// in\n    tag_295:\n        /* \"#utility.yul\":11960:11963   */\n      dup3\n        /* \"#utility.yul\":11953:11990   */\n      mstore\n        /* \"#utility.yul\":11888:11996   */\n      pop\n      pop\n      jump\t// out\n        /* \"#utility.yul\":12002:12181   */\n    tag_166:\n        /* \"#utility.yul\":12071:12081   */\n      0x00\n        /* \"#utility.yul\":12092:12138   */\n      tag_297\n        /* \"#utility.yul\":12134:12137   */\n      dup4\n        /* \"#utility.yul\":12126:12132   */\n      dup4\n        /* \"#utility.yul\":12092:12138   */\n      tag_165\n      jump\t// in\n    tag_297:\n        /* \"#utility.yul\":12170:12174   */\n      0x20\n        /* \"#utility.yul\":12165:12168   */\n      dup4\n        /* \"#utility.yul\":12161:12175   */\n      add\n        /* \"#utility.yul\":12147:12175   */\n      swap1\n      pop\n        /* \"#utility.yul\":12002:12181   */\n      swap3\n      swap2\n      pop\n      pop\n      jump\t// out\n        /* \"#utility.yul\":12187:12302   */\n    tag_167:\n        /* \"#utility.yul\":12259:12263   */\n      0x00\n        /* \"#utility.yul\":12291:12295   */\n      0x20\n        /* \"#utility.yul\":12286:12289   */\n      dup3\n        /* \"#utility.yul\":12282:12296   */\n      add\n        /* \"#utility.yul\":12274:12296   */\n      swap1\n      pop\n        /* \"#utility.yul\":12187:12302   */\n      swap2\n      swap1\n      pop\n      jump\t// out\n        /* \"#utility.yul\":12338:13037   */\n    tag_168:\n        /* \"#utility.yul\":12467:12470   */\n      0x00\n        /* \"#utility.yul\":12490:12576   */\n      tag_300\n        /* \"#utility.yul\":12569:12575   */\n      dup4\n        /* \"#utility.yul\":12564:12567   */\n      dup6\n        /* \"#utility.yul\":12490:12576   */\n      tag_163\n      jump\t// in\n    tag_300:\n        /* \"#utility.yul\":12483:12576   */\n      swap4\n      pop\n        /* \"#utility.yul\":12600:12658   */\n      tag_301\n        /* \"#utility.yul\":12652:12657   */\n      dup3\n        /* \"#utility.yul\":12600:12658   */\n      tag_164\n      jump\t// in\n    tag_301:\n        /* \"#utility.yul\":12681:12688   */\n      dup1\n        /* \"#utility.yul\":12712:12713   */\n      0x00\n        /* \"#utility.yul\":12697:13012   */\n    tag_302:\n        /* \"#utility.yul\":12722:12728   */\n      dup6\n        /* \"#utility.yul\":12719:12720   */\n      dup2\n        /* \"#utility.yul\":12716:12729   */\n      lt\n        /* \"#utility.yul\":12697:13012   */\n      iszero\n      tag_304\n      jumpi\n        /* \"#utility.yul\":12792:12834   */\n      tag_305\n        /* \"#utility.yul\":12827:12833   */\n      dup3\n        /* \"#utility.yul\":12818:12825   */\n      dup5\n        /* \"#utility.yul\":12792:12834   */\n      tag_152\n      jump\t// in\n    tag_305:\n        /* \"#utility.yul\":12854:12917   */\n      tag_306\n        /* \"#utility.yul\":12913:12916   */\n      dup9\n        /* \"#utility.yul\":12898:12911   */\n      dup3\n        /* \"#utility.yul\":12854:12917   */\n      tag_166\n      jump\t// in\n    tag_306:\n        /* \"#utility.yul\":12847:12917   */\n      swap8\n      pop\n        /* \"#utility.yul\":12940:13002   */\n      tag_307\n        /* \"#utility.yul\":12995:13001   */\n      dup4\n        /* \"#utility.yul\":12940:13002   */\n      tag_167\n      jump\t// in\n    tag_307:\n        /* \"#utility.yul\":12930:13002   */\n      swap3\n      pop\n        /* \"#utility.yul\":12757:13012   */\n      pop\n        /* \"#utility.yul\":12744:12745   */\n      0x01\n        /* \"#utility.yul\":12741:12742   */\n      dup2\n        /* \"#utility.yul\":12737:12746   */\n      add\n        /* \"#utility.yul\":12732:12746   */\n      swap1\n      pop\n        /* \"#utility.yul\":12697:13012   */\n      jump(tag_302)\n    tag_304:\n        /* \"#utility.yul\":12701:12715   */\n      pop\n        /* \"#utility.yul\":13028:13031   */\n      dup6\n        /* \"#utility.yul\":13021:13031   */\n      swap3\n      pop\n        /* \"#utility.yul\":12472:13037   */\n      pop\n      pop\n        /* \"#utility.yul\":12338:13037   */\n      swap4\n      swap3\n      pop\n      pop\n      pop\n      jump\t// out\n        /* \"#utility.yul\":13043:13546   */\n    tag_94:\n        /* \"#utility.yul\":13224:13228   */\n      0x00\n        /* \"#utility.yul\":13262:13264   */\n      0x40\n        /* \"#utility.yul\":13251:13260   */\n      dup3\n        /* \"#utility.yul\":13247:13265   */\n      add\n        /* \"#utility.yul\":13239:13265   */\n      swap1\n      pop\n        /* \"#utility.yul\":13311:13320   */\n      dup2\n        /* \"#utility.yul\":13305:13309   */\n      dup2\n        /* \"#utility.yul\":13301:13321   */\n      sub\n        /* \"#utility.yul\":13297:13298   */\n      0x00\n        /* \"#utility.yul\":13286:13295   */\n      dup4\n        /* \"#utility.yul\":13282:13299   */\n      add\n        /* \"#utility.yul\":13275:13322   */\n      mstore\n        /* \"#utility.yul\":13339:13457   */\n      tag_309\n        /* \"#utility.yul\":13452:13456   */\n      dup2\n        /* \"#utility.yul\":13443:13449   */\n      dup6\n        /* \"#utility.yul\":13435:13441   */\n      dup8\n        /* \"#utility.yul\":13339:13457   */\n      tag_168\n      jump\t// in\n    tag_309:\n        /* \"#utility.yul\":13331:13457   */\n      swap1\n      pop\n        /* \"#utility.yul\":13467:13539   */\n      tag_310\n        /* \"#utility.yul\":13535:13537   */\n      0x20\n        /* \"#utility.yul\":13524:13533   */\n      dup4\n        /* \"#utility.yul\":13520:13538   */\n      add\n        /* \"#utility.yul\":13511:13517   */\n      dup5\n        /* \"#utility.yul\":13467:13539   */\n      tag_149\n      jump\t// in\n    tag_310:\n        /* \"#utility.yul\":13043:13546   */\n      swap5\n      swap4\n      pop\n      pop\n      pop\n      pop\n      jump\t// out\n        /* \"#utility.yul\":13552:13884   */\n    tag_115:\n        /* \"#utility.yul\":13673:13677   */\n      0x00\n        /* \"#utility.yul\":13711:13713   */\n      0x40\n        /* \"#utility.yul\":13700:13709   */\n      dup3\n        /* \"#utility.yul\":13696:13714   */\n      add\n        /* \"#utility.yul\":13688:13714   */\n      swap1\n      pop\n        /* \"#utility.yul\":13724:13795   */\n      tag_312\n        /* \"#utility.yul\":13792:13793   */\n      0x00\n        /* \"#utility.yul\":13781:13790   */\n      dup4\n        /* \"#utility.yul\":13777:13794   */\n      add\n        /* \"#utility.yul\":13768:13774   */\n      dup6\n        /* \"#utility.yul\":13724:13795   */\n      tag_143\n      jump\t// in\n    tag_312:\n        /* \"#utility.yul\":13805:13877   */\n      tag_313\n        /* \"#utility.yul\":13873:13875   */\n      0x20\n        /* \"#utility.yul\":13862:13871   */\n      dup4\n        /* \"#utility.yul\":13858:13876   */\n      add\n        /* \"#utility.yul\":13849:13855   */\n      dup5\n        /* \"#utility.yul\":13805:13877   */\n      tag_149\n      jump\t// in\n    tag_313:\n        /* \"#utility.yul\":13552:13884   */\n      swap4\n      swap3\n      pop\n      pop\n      pop\n      jump\t// out\n\n    auxdata: 0xa2646970667358221220a57887a436d6e498bfeca27b698c977f4b56418840c3d7033dbe08cb2f688e4864736f6c634300081c0033\n}\n",
				"bytecode": {
					"linkReferences": {},
					"object": "608060405234801561000f575f5ffd5b506040516111c73803806111c783398181016040528101906100319190610228565b335f73ffffffffffffffffffffffffffffffffffffffff168173ffffffffffffffffffffffffffffffffffffffff16036100a2575f6040517f1e4fbdf70000000000000000000000000000000000000000000000000000000081526004016100999190610262565b60405180910390fd5b6100b1816100f860201b60201c565b508060015f6101000a81548173ffffffffffffffffffffffffffffffffffffffff021916908373ffffffffffffffffffffffffffffffffffffffff1602179055505061027b565b5f5f5f9054906101000a900473ffffffffffffffffffffffffffffffffffffffff169050815f5f6101000a81548173ffffffffffffffffffffffffffffffffffffffff021916908373ffffffffffffffffffffffffffffffffffffffff1602179055508173ffffffffffffffffffffffffffffffffffffffff168173ffffffffffffffffffffffffffffffffffffffff167f8be0079c531659141344cd1fd0a4f28419497f9722a3daafe3b4186f6b6457e060405160405180910390a35050565b5f5ffd5b5f73ffffffffffffffffffffffffffffffffffffffff82169050919050565b5f6101e6826101bd565b9050919050565b5f6101f7826101dc565b9050919050565b610207816101ed565b8114610211575f5ffd5b50565b5f81519050610222816101fe565b92915050565b5f6020828403121561023d5761023c6101b9565b5b5f61024a84828501610214565b91505092915050565b61025c816101dc565b82525050565b5f6020820190506102755f830184610253565b92915050565b610f3f806102885f395ff3fe608060405234801561000f575f5ffd5b5060043610610086575f3560e01c80637acd1f73116100595780637acd1f73146100ea5780638da5cb5b14610106578063daa328d414610124578063f2fde38b1461014057610086565b80632e1a7d4d1461008a578063340886a9146100a65780634ec42e8e146100c2578063715018a6146100e0575b5f5ffd5b6100a4600480360381019061009f9190610941565b61015c565b005b6100c060048036038101906100bb91906109cd565b6101ba565b005b6100ca61038c565b6040516100d79190610a92565b60405180910390f35b6100e86103b1565b005b61010460048036038101906100ff9190610b00565b6103c4565b005b61010e6105a7565b60405161011b9190610b7d565b60405180910390f35b61013e60048036038101906101399190610bd1565b6105ce565b005b61015a60048036038101906101559190610c26565b610619565b005b61016461069d565b6101b761016f6105a7565b8260015f9054906101000a900473ffffffffffffffffffffffffffffffffffffffff1673ffffffffffffffffffffffffffffffffffffffff166107249092919063ffffffff16565b50565b6101c261069d565b5f82829050036101fe576040517fd982238500000000000000000000000000000000000000000000000000000000815260040160405180910390fd5b5f5f90505b82829050811015610343575f73ffffffffffffffffffffffffffffffffffffffff1683838381811061023857610237610c51565b5b9050604002015f01602081019061024f9190610c26565b73ffffffffffffffffffffffffffffffffffffffff16036102a757806040517f8e605c6f00000000000000000000000000000000000000000000000000000000815260040161029e9190610c8d565b60405180910390fd5b6103388383838181106102bd576102bc610c51565b5b9050604002015f0160208101906102d49190610c26565b8484848181106102e7576102e6610c51565b5b9050604002016020013560015f9054906101000a900473ffffffffffffffffffffffffffffffffffffffff1673ffffffffffffffffffffffffffffffffffffffff166107249092919063ffffffff16565b806001019050610203565b508181604051610354929190610df4565b60405180910390207f83ee9118091e2dd219e46c8308df99b20b9aec5b274f9fc9242aefcbb20ecc4c60405160405180910390a25050565b60015f9054906101000a900473ffffffffffffffffffffffffffffffffffffffff1681565b6103b961069d565b6103c25f6107a3565b565b6103cc61069d565b5f8383905003610408576040517fd982238500000000000000000000000000000000000000000000000000000000815260040160405180910390fd5b5f8103610441576040517f2c5211c600000000000000000000000000000000000000000000000000000000815260040160405180910390fd5b5f5f90505b83839050811015610566575f73ffffffffffffffffffffffffffffffffffffffff1684848381811061047b5761047a610c51565b5b90506020020160208101906104909190610c26565b73ffffffffffffffffffffffffffffffffffffffff16036104e857806040517f8e605c6f0000000000000000000000000000000000000000000000000000000081526004016104df9190610c8d565b60405180910390fd5b61055b8484838181106104fe576104fd610c51565b5b90506020020160208101906105139190610c26565b8360015f9054906101000a900473ffffffffffffffffffffffffffffffffffffffff1673ffffffffffffffffffffffffffffffffffffffff166107249092919063ffffffff16565b806001019050610446565b507f69ade20fc1730af5552ecc10006440ce08b8f9a448a9625049916d86d5b2058f83838360405161059a93929190610eb2565b60405180910390a1505050565b5f5f5f9054906101000a900473ffffffffffffffffffffffffffffffffffffffff16905090565b6105d661069d565b8060015f6101000a81548173ffffffffffffffffffffffffffffffffffffffff021916908373ffffffffffffffffffffffffffffffffffffffff16021790555050565b61062161069d565b5f73ffffffffffffffffffffffffffffffffffffffff168173ffffffffffffffffffffffffffffffffffffffff1603610691575f6040517f1e4fbdf70000000000000000000000000000000000000000000000000000000081526004016106889190610b7d565b60405180910390fd5b61069a816107a3565b50565b6106a5610864565b73ffffffffffffffffffffffffffffffffffffffff166106c36105a7565b73ffffffffffffffffffffffffffffffffffffffff1614610722576106e6610864565b6040517f118cdaa70000000000000000000000000000000000000000000000000000000081526004016107199190610b7d565b60405180910390fd5b565b61079e838473ffffffffffffffffffffffffffffffffffffffff1663a9059cbb8585604051602401610757929190610ee2565b604051602081830303815290604052915060e01b6020820180517bffffffffffffffffffffffffffffffffffffffffffffffffffffffff838183161783525050505061086b565b505050565b5f5f5f9054906101000a900473ffffffffffffffffffffffffffffffffffffffff169050815f5f6101000a81548173ffffffffffffffffffffffffffffffffffffffff021916908373ffffffffffffffffffffffffffffffffffffffff1602179055508173ffffffffffffffffffffffffffffffffffffffff168173ffffffffffffffffffffffffffffffffffffffff167f8be0079c531659141344cd1fd0a4f28419497f9722a3daafe3b4186f6b6457e060405160405180910390a35050565b5f33905090565b5f5f60205f8451602086015f885af18061088a576040513d5f823e3d81fd5b3d92505f519150505f82146108a35760018114156108be565b5f8473ffffffffffffffffffffffffffffffffffffffff163b145b1561090057836040517f5274afe70000000000000000000000000000000000000000000000000000000081526004016108f79190610b7d565b60405180910390fd5b50505050565b5f5ffd5b5f5ffd5b5f819050919050565b6109208161090e565b811461092a575f5ffd5b50565b5f8135905061093b81610917565b92915050565b5f6020828403121561095657610955610906565b5b5f6109638482850161092d565b91505092915050565b5f5ffd5b5f5ffd5b5f5ffd5b5f5f83601f84011261098d5761098c61096c565b5b8235905067ffffffffffffffff8111156109aa576109a9610970565b5b6020830191508360408202830111156109c6576109c5610974565b5b9250929050565b5f5f602083850312156109e3576109e2610906565b5b5f83013567ffffffffffffffff811115610a00576109ff61090a565b5b610a0c85828601610978565b92509250509250929050565b5f73ffffffffffffffffffffffffffffffffffffffff82169050919050565b5f819050919050565b5f610a5a610a55610a5084610a18565b610a37565b610a18565b9050919050565b5f610a6b82610a40565b9050919050565b5f610a7c82610a61565b9050919050565b610a8c81610a72565b82525050565b5f602082019050610aa55f830184610a83565b92915050565b5f5f83601f840112610ac057610abf61096c565b5b8235905067ffffffffffffffff811115610add57610adc610970565b5b602083019150836020820283011115610af957610af8610974565b5b9250929050565b5f5f5f60408486031215610b1757610b16610906565b5b5f84013567ffffffffffffffff811115610b3457610b3361090a565b5b610b4086828701610aab565b93509350506020610b538682870161092d565b9150509250925092565b5f610b6782610a18565b9050919050565b610b7781610b5d565b82525050565b5f602082019050610b905f830184610b6e565b92915050565b5f610ba082610b5d565b9050919050565b610bb081610b96565b8114610bba575f5ffd5b50565b5f81359050610bcb81610ba7565b92915050565b5f60208284031215610be657610be5610906565b5b5f610bf384828501610bbd565b91505092915050565b610c0581610b5d565b8114610c0f575f5ffd5b50565b5f81359050610c2081610bfc565b92915050565b5f60208284031215610c3b57610c3a610906565b5b5f610c4884828501610c12565b91505092915050565b7f4e487b71000000000000000000000000000000000000000000000000000000005f52603260045260245ffd5b610c878161090e565b82525050565b5f602082019050610ca05f830184610c7e565b92915050565b5f81905092915050565b5f819050919050565b5f610cc76020840184610c12565b905092915050565b610cd881610b5d565b82525050565b5f610ce98383610ccf565b60208301905092915050565b5f610d03602084018461092d565b905092915050565b610d148161090e565b82525050565b5f610d258383610d0b565b60208301905092915050565b5f8201610d405f830183610cb9565b610d4a8482610cde565b935050610d5a6020830183610cf5565b610d648482610d1a565b935050505050565b5f610d778383610d31565b60408301905092915050565b5f82905092915050565b5f604082019050919050565b5f610da48385610ca6565b9350610daf82610cb0565b805f5b85811015610de757610dc48284610d83565b610dce8882610d6c565b9750610dd983610d8d565b925050600181019050610db2565b5085925050509392505050565b5f610e00828486610d99565b91508190509392505050565b5f82825260208201905092915050565b5f819050919050565b610e2e81610b5d565b82525050565b5f610e3f8383610e25565b60208301905092915050565b5f602082019050919050565b5f610e628385610e0c565b9350610e6d82610e1c565b805f5b85811015610ea557610e828284610cb9565b610e8c8882610e34565b9750610e9783610e4b565b925050600181019050610e70565b5085925050509392505050565b5f6040820190508181035f830152610ecb818587610e57565b9050610eda6020830184610c7e565b949350505050565b5f604082019050610ef55f830185610b6e565b610f026020830184610c7e565b939250505056fea2646970667358221220a57887a436d6e498bfeca27b698c977f4b56418840c3d7033dbe08cb2f688e4864736f6c634300081c0033",
					"opcodes": "PUSH1 0x80 PUSH1 0x40 MSTORE CALLVALUE DUP1 ISZERO PUSH2 0xF JUMPI PUSH0 PUSH0 REVERT JUMPDEST POP PUSH1 0x40 MLOAD PUSH2 0x11C7 CODESIZE SUB DUP1 PUSH2 0x11C7 DUP4 CODECOPY DUP2 DUP2 ADD PUSH1 0x40 MSTORE DUP2 ADD SWAP1 PUSH2 0x31 SWAP2 SWAP1 PUSH2 0x228 JUMP JUMPDEST CALLER PUSH0 PUSH20 0xFFFFFFFFFFFFFFFFFFFFFFFFFFFFFFFFFFFFFFFF AND DUP2 PUSH20 0xFFFFFFFFFFFFFFFFFFFFFFFFFFFFFFFFFFFFFFFF AND SUB PUSH2 0xA2 JUMPI PUSH0 PUSH1 0x40 MLOAD PUSH32 0x1E4FBDF700000000000000000000000000000000000000000000000000000000 DUP2 MSTORE PUSH1 0x4 ADD PUSH2 0x99 SWAP2 SWAP1 PUSH2 0x262 JUMP JUMPDEST PUSH1 0x40 MLOAD DUP1 SWAP2 SUB SWAP1 REVERT JUMPDEST PUSH2 0xB1 DUP2 PUSH2 0xF8 PUSH1 0x20 SHL PUSH1 0x20 SHR JUMP JUMPDEST POP DUP1 PUSH1 0x1 PUSH0 PUSH2 0x100 EXP DUP2 SLOAD DUP2 PUSH20 0xFFFFFFFFFFFFFFFFFFFFFFFFFFFFFFFFFFFFFFFF MUL NOT AND SWAP1 DUP4 PUSH20 0xFFFFFFFFFFFFFFFFFFFFFFFFFFFFFFFFFFFFFFFF AND MUL OR SWAP1 SSTORE POP POP PUSH2 0x27B JUMP JUMPDEST PUSH0 PUSH0 PUSH0 SWAP1 SLOAD SWAP1 PUSH2 0x100 EXP SWAP1 DIV PUSH20 0xFFFFFFFFFFFFFFFFFFFFFFFFFFFFFFFFFFFFFFFF AND SWAP1 POP DUP2 PUSH0 PUSH0 PUSH2 0x100 EXP DUP2 SLOAD DUP2 PUSH20 0xFFFFFFFFFFFFFFFFFFFFFFFFFFFFFFFFFFFFFFFF MUL NOT AND SWAP1 DUP4 PUSH20 0xFFFFFFFFFFFFFFFFFFFFFFFFFFFFFFFFFFFFFFFF AND MUL OR SWAP1 SSTORE POP DUP2 PUSH20 0xFFFFFFFFFFFFFFFFFFFFFFFFFFFFFFFFFFFFFFFF AND DUP2 PUSH20 0xFFFFFFFFFFFFFFFFFFFFFFFFFFFFFFFFFFFFFFFF AND PUSH32 0x8BE0079C531659141344CD1FD0A4F28419497F9722A3DAAFE3B4186F6B6457E0 PUSH1 0x40 MLOAD PUSH1 0x40 MLOAD DUP1 SWAP2 SUB SWAP1 LOG3 POP POP JUMP JUMPDEST PUSH0 PUSH0 REVERT JUMPDEST PUSH0 PUSH20 0xFFFFFFFFFFFFFFFFFFFFFFFFFFFFFFFFFFFFFFFF DUP3 AND SWAP1 POP SWAP2 SWAP1 POP JUMP JUMPDEST PUSH0 PUSH2 0x1E6 DUP3 PUSH2 0x1BD JUMP JUMPDEST SWAP1 POP SWAP2 SWAP1 POP JUMP JUMPDEST PUSH0 PUSH2 0x1F7 DUP3 PUSH2 0x1DC JUMP JUMPDEST SWAP1 POP SWAP2 SWAP1 POP JUMP JUMPDEST PUSH2 0x207 DUP2 PUSH2 0x1ED JUMP JUMPDEST DUP2 EQ PUSH2 0x211 JUMPI PUSH0 PUSH0 REVERT JUMPDEST POP JUMP JUMPDEST PUSH0 DUP2 MLOAD SWAP1 POP PUSH2 0x222 DUP2 PUSH2 0x1FE JUMP JUMPDEST SWAP3 SWAP2 POP POP JUMP JUMPDEST PUSH0 PUSH1 0x20 DUP3 DUP5 SUB SLT ISZERO PUSH2 0x23D JUMPI PUSH2 0x23C PUSH2 0x1B9 JUMP JUMPDEST JUMPDEST PUSH0 PUSH2 0x24A DUP5 DUP3 DUP6 ADD PUSH2 0x214 JUMP JUMPDEST SWAP2 POP POP SWAP3 SWAP2 POP POP JUMP JUMPDEST PUSH2 0x25C DUP2 PUSH2 0x1DC JUMP JUMPDEST DUP3 MSTORE POP POP JUMP JUMPDEST PUSH0 PUSH1 0x20 DUP3 ADD SWAP1 POP PUSH2 0x275 PUSH0 DUP4 ADD DUP5 PUSH2 0x253 JUMP JUMPDEST SWAP3 SWAP2 POP POP JUMP JUMPDEST PUSH2 0xF3F DUP1 PUSH2 0x288 PUSH0 CODECOPY PUSH0 RETURN INVALID PUSH1 0x80 PUSH1 0x40 MSTORE CALLVALUE DUP1 ISZERO PUSH2 0xF JUMPI PUSH0 PUSH0 REVERT JUMPDEST POP PUSH1 0x4 CALLDATASIZE LT PUSH2 0x86 JUMPI PUSH0 CALLDATALOAD PUSH1 0xE0 SHR DUP1 PUSH4 0x7ACD1F73 GT PUSH2 0x59 JUMPI DUP1 PUSH4 0x7ACD1F73 EQ PUSH2 0xEA JUMPI DUP1 PUSH4 0x8DA5CB5B EQ PUSH2 0x106 JUMPI DUP1 PUSH4 0xDAA328D4 EQ PUSH2 0x124 JUMPI DUP1 PUSH4 0xF2FDE38B EQ PUSH2 0x140 JUMPI PUSH2 0x86 JUMP JUMPDEST DUP1 PUSH4 0x2E1A7D4D EQ PUSH2 0x8A JUMPI DUP1 PUSH4 0x340886A9 EQ PUSH2 0xA6 JUMPI DUP1 PUSH4 0x4EC42E8E EQ PUSH2 0xC2 JUMPI DUP1 PUSH4 0x715018A6 EQ PUSH2 0xE0 JUMPI JUMPDEST PUSH0 PUSH0 REVERT JUMPDEST PUSH2 0xA4 PUSH1 0x4 DUP1 CALLDATASIZE SUB DUP2 ADD SWAP1 PUSH2 0x9F SWAP2 SWAP1 PUSH2 0x941 JUMP JUMPDEST PUSH2 0x15C JUMP JUMPDEST STOP JUMPDEST PUSH2 0xC0 PUSH1 0x4 DUP1 CALLDATASIZE SUB DUP2 ADD SWAP1 PUSH2 0xBB SWAP2 SWAP1 PUSH2 0x9CD JUMP JUMPDEST PUSH2 0x1BA JUMP JUMPDEST STOP JUMPDEST PUSH2 0xCA PUSH2 0x38C JUMP JUMPDEST PUSH1 0x40 MLOAD PUSH2 0xD7 SWAP2 SWAP1 PUSH2 0xA92 JUMP JUMPDEST PUSH1 0x40 MLOAD DUP1 SWAP2 SUB SWAP1 RETURN JUMPDEST PUSH2 0xE8 PUSH2 0x3B1 JUMP JUMPDEST STOP JUMPDEST PUSH2 0x104 PUSH1 0x4 DUP1 CALLDATASIZE SUB DUP2 ADD SWAP1 PUSH2 0xFF SWAP2 SWAP1 PUSH2 0xB00 JUMP JUMPDEST PUSH2 0x3C4 JUMP JUMPDEST STOP JUMPDEST PUSH2 0x10E PUSH2 0x5A7 JUMP JUMPDEST PUSH1 0x40 MLOAD PUSH2 0x11B SWAP2 SWAP1 PUSH2 0xB7D JUMP JUMPDEST PUSH1 0x40 MLOAD DUP1 SWAP2 SUB SWAP1 RETURN JUMPDEST PUSH2 0x13E PUSH1 0x4 DUP1 CALLDATASIZE SUB DUP2 ADD SWAP1 PUSH2 0x139 SWAP2 SWAP1 PUSH2 0xBD1 JUMP JUMPDEST PUSH2 0x5CE JUMP JUMPDEST STOP JUMPDEST PUSH2 0x15A PUSH1 0x4 DUP1 CALLDATASIZE SUB DUP2 ADD SWAP1 PUSH2 0x155 SWAP2 SWAP1 PUSH2 0xC26 JUMP JUMPDEST PUSH2 0x619 JUMP JUMPDEST STOP JUMPDEST PUSH2 0x164 PUSH2 0x69D JUMP JUMPDEST PUSH2 0x1B7 PUSH2 0x16F PUSH2 0x5A7 JUMP JUMPDEST DUP3 PUSH1 0x1 PUSH0 SWAP1 SLOAD SWAP1 PUSH2 0x100 EXP SWAP1 DIV PUSH20 0xFFFFFFFFFFFFFFFFFFFFFFFFFFFFFFFFFFFFFFFF AND PUSH20 0xFFFFFFFFFFFFFFFFFFFFFFFFFFFFFFFFFFFFFFFF AND PUSH2 0x724 SWAP1 SWAP3 SWAP2 SWAP1 PUSH4 0xFFFFFFFF AND JUMP JUMPDEST POP JUMP JUMPDEST PUSH2 0x1C2 PUSH2 0x69D JUMP JUMPDEST PUSH0 DUP3 DUP3 SWAP1 POP SUB PUSH2 0x1FE JUMPI PUSH1 0x40 MLOAD PUSH32 0xD982238500000000000000000000000000000000000000000000000000000000 DUP2 MSTORE PUSH1 0x4 ADD PUSH1 0x40 MLOAD DUP1 SWAP2 SUB SWAP1 REVERT JUMPDEST PUSH0 PUSH0 SWAP1 POP JUMPDEST DUP3 DUP3 SWAP1 POP DUP2 LT ISZERO PUSH2 0x343 JUMPI PUSH0 PUSH20 0xFFFFFFFFFFFFFFFFFFFFFFFFFFFFFFFFFFFFFFFF AND DUP4 DUP4 DUP4 DUP2 DUP2 LT PUSH2 0x238 JUMPI PUSH2 0x237 PUSH2 0xC51 JUMP JUMPDEST JUMPDEST SWAP1 POP PUSH1 0x40 MUL ADD PUSH0 ADD PUSH1 0x20 DUP2 ADD SWAP1 PUSH2 0x24F SWAP2 SWAP1 PUSH2 0xC26 JUMP JUMPDEST PUSH20 0xFFFFFFFFFFFFFFFFFFFFFFFFFFFFFFFFFFFFFFFF AND SUB PUSH2 0x2A7 JUMPI DUP1 PUSH1 0x40 MLOAD PUSH32 0x8E605C6F00000000000000000000000000000000000000000000000000000000 DUP2 MSTORE PUSH1 0x4 ADD PUSH2 0x29E SWAP2 SWAP1 PUSH2 0xC8D JUMP JUMPDEST PUSH1 0x40 MLOAD DUP1 SWAP2 SUB SWAP1 REVERT JUMPDEST PUSH2 0x338 DUP4 DUP4 DUP4 DUP2 DUP2 LT PUSH2 0x2BD JUMPI PUSH2 0x2BC PUSH2 0xC51 JUMP JUMPDEST JUMPDEST SWAP1 POP PUSH1 0x40 MUL ADD PUSH0 ADD PUSH1 0x20 DUP2 ADD SWAP1 PUSH2 0x2D4 SWAP2 SWAP1 PUSH2 0xC26 JUMP JUMPDEST DUP5 DUP5 DUP5 DUP2 DUP2 LT PUSH2 0x2E7 JUMPI PUSH2 0x2E6 PUSH2 0xC51 JUMP JUMPDEST JUMPDEST SWAP1 POP PUSH1 0x40 MUL ADD PUSH1 0x20 ADD CALLDATALOAD PUSH1 0x1 PUSH0 SWAP1 SLOAD SWAP1 PUSH2 0x100 EXP SWAP1 DIV PUSH20 0xFFFFFFFFFFFFFFFFFFFFFFFFFFFFFFFFFFFFFFFF AND PUSH20 0xFFFFFFFFFFFFFFFFFFFFFFFFFFFFFFFFFFFFFFFF AND PUSH2 0x724 SWAP1 SWAP3 SWAP2 SWAP1 PUSH4 0xFFFFFFFF AND JUMP JUMPDEST DUP1 PUSH1 0x1 ADD SWAP1 POP PUSH2 0x203 JUMP JUMPDEST POP DUP2 DUP2 PUSH1 0x40 MLOAD PUSH2 0x354 SWAP3 SWAP2 SWAP1 PUSH2 0xDF4 JUMP JUMPDEST PUSH1 0x40 MLOAD DUP1 SWAP2 SUB SWAP1 KECCAK256 PUSH32 0x83EE9118091E2DD219E46C8308DF99B20B9AEC5B274F9FC9242AEFCBB20ECC4C PUSH1 0x40 MLOAD PUSH1 0x40 MLOAD DUP1 SWAP2 SUB SWAP1 LOG2 POP POP JUMP JUMPDEST PUSH1 0x1 PUSH0 SWAP1 SLOAD SWAP1 PUSH2 0x100 EXP SWAP1 DIV PUSH20 0xFFFFFFFFFFFFFFFFFFFFFFFFFFFFFFFFFFFFFFFF AND DUP2 JUMP JUMPDEST PUSH2 0x3B9 PUSH2 0x69D JUMP JUMPDEST PUSH2 0x3C2 PUSH0 PUSH2 0x7A3 JUMP JUMPDEST JUMP JUMPDEST PUSH2 0x3CC PUSH2 0x69D JUMP JUMPDEST PUSH0 DUP4 DUP4 SWAP1 POP SUB PUSH2 0x408 JUMPI PUSH1 0x40 MLOAD PUSH32 0xD982238500000000000000000000000000000000000000000000000000000000 DUP2 MSTORE PUSH1 0x4 ADD PUSH1 0x40 MLOAD DUP1 SWAP2 SUB SWAP1 REVERT JUMPDEST PUSH0 DUP2 SUB PUSH2 0x441 JUMPI PUSH1 0x40 MLOAD PUSH32 0x2C5211C600000000000000000000000000000000000000000000000000000000 DUP2 MSTORE PUSH1 0x4 ADD PUSH1 0x40 MLOAD DUP1 SWAP2 SUB SWAP1 REVERT JUMPDEST PUSH0 PUSH0 SWAP1 POP JUMPDEST DUP4 DUP4 SWAP1 POP DUP2 LT ISZERO PUSH2 0x566 JUMPI PUSH0 PUSH20 0xFFFFFFFFFFFFFFFFFFFFFFFFFFFFFFFFFFFFFFFF AND DUP5 DUP5 DUP4 DUP2 DUP2 LT PUSH2 0x47B JUMPI PUSH2 0x47A PUSH2 0xC51 JUMP JUMPDEST JUMPDEST SWAP1 POP PUSH1 0x20 MUL ADD PUSH1 0x20 DUP2 ADD SWAP1 PUSH2 0x490 SWAP2 SWAP1 PUSH2 0xC26 JUMP JUMPDEST PUSH20 0xFFFFFFFFFFFFFFFFFFFFFFFFFFFFFFFFFFFFFFFF AND SUB PUSH2 0x4E8 JUMPI DUP1 PUSH1 0x40 MLOAD PUSH32 0x8E605C6F00000000000000000000000000000000000000000000000000000000 DUP2 MSTORE PUSH1 0x4 ADD PUSH2 0x4DF SWAP2 SWAP1 PUSH2 0xC8D JUMP JUMPDEST PUSH1 0x40 MLOAD DUP1 SWAP2 SUB SWAP1 REVERT JUMPDEST PUSH2 0x55B DUP5 DUP5 DUP4 DUP2 DUP2 LT PUSH2 0x4FE JUMPI PUSH2 0x4FD PUSH2 0xC51 JUMP JUMPDEST JUMPDEST SWAP1 POP PUSH1 0x20 MUL ADD PUSH1 0x20 DUP2 ADD SWAP1 PUSH2 0x513 SWAP2 SWAP1 PUSH2 0xC26 JUMP JUMPDEST DUP4 PUSH1 0x1 PUSH0 SWAP1 SLOAD SWAP1 PUSH2 0x100 EXP SWAP1 DIV PUSH20 0xFFFFFFFFFFFFFFFFFFFFFFFFFFFFFFFFFFFFFFFF AND PUSH20 0xFFFFFFFFFFFFFFFFFFFFFFFFFFFFFFFFFFFFFFFF AND PUSH2 0x724 SWAP1 SWAP3 SWAP2 SWAP1 PUSH4 0xFFFFFFFF AND JUMP JUMPDEST DUP1 PUSH1 0x1 ADD SWAP1 POP PUSH2 0x446 JUMP JUMPDEST POP PUSH32 0x69ADE20FC1730AF5552ECC10006440CE08B8F9A448A9625049916D86D5B2058F DUP4 DUP4 DUP4 PUSH1 0x40 MLOAD PUSH2 0x59A SWAP4 SWAP3 SWAP2 SWAP1 PUSH2 0xEB2 JUMP JUMPDEST PUSH1 0x40 MLOAD DUP1 SWAP2 SUB SWAP1 LOG1 POP POP POP JUMP JUMPDEST PUSH0 PUSH0 PUSH0 SWAP1 SLOAD SWAP1 PUSH2 0x100 EXP SWAP1 DIV PUSH20 0xFFFFFFFFFFFFFFFFFFFFFFFFFFFFFFFFFFFFFFFF AND SWAP1 POP SWAP1 JUMP JUMPDEST PUSH2 0x5D6 PUSH2 0x69D JUMP JUMPDEST DUP1 PUSH1 0x1 PUSH0 PUSH2 0x100 EXP DUP2 SLOAD DUP2 PUSH20 0xFFFFFFFFFFFFFFFFFFFFFFFFFFFFFFFFFFFFFFFF MUL NOT AND SWAP1 DUP4 PUSH20 0xFFFFFFFFFFFFFFFFFFFFFFFFFFFFFFFFFFFFFFFF AND MUL OR SWAP1 SSTORE POP POP JUMP JUMPDEST PUSH2 0x621 PUSH2 0x69D JUMP JUMPDEST PUSH0 PUSH20 0xFFFFFFFFFFFFFFFFFFFFFFFFFFFFFFFFFFFFFFFF AND DUP2 PUSH20 0xFFFFFFFFFFFFFFFFFFFFFFFFFFFFFFFFFFFFFFFF AND SUB PUSH2 0x691 JUMPI PUSH0 PUSH1 0x40 MLOAD PUSH32 0x1E4FBDF700000000000000000000000000000000000000000000000000000000 DUP2 MSTORE PUSH1 0x4 ADD PUSH2 0x688 SWAP2 SWAP1 PUSH2 0xB7D JUMP JUMPDEST PUSH1 0x40 MLOAD DUP1 SWAP2 SUB SWAP1 REVERT JUMPDEST PUSH2 0x69A DUP2 PUSH2 0x7A3 JUMP JUMPDEST POP JUMP JUMPDEST PUSH2 0x6A5 PUSH2 0x864 JUMP JUMPDEST PUSH20 0xFFFFFFFFFFFFFFFFFFFFFFFFFFFFFFFFFFFFFFFF AND PUSH2 0x6C3 PUSH2 0x5A7 JUMP JUMPDEST PUSH20 0xFFFFFFFFFFFFFFFFFFFFFFFFFFFFFFFFFFFFFFFF AND EQ PUSH2 0x722 JUMPI PUSH2 0x6E6 PUSH2 0x864 JUMP JUMPDEST PUSH1 0x40 MLOAD PUSH32 0x118CDAA700000000000000000000000000000000000000000000000000000000 DUP2 MSTORE PUSH1 0x4 ADD PUSH2 0x719 SWAP2 SWAP1 PUSH2 0xB7D JUMP JUMPDEST PUSH1 0x40 MLOAD DUP1 SWAP2 SUB SWAP1 REVERT JUMPDEST JUMP JUMPDEST PUSH2 0x79E DUP4 DUP5 PUSH20 0xFFFFFFFFFFFFFFFFFFFFFFFFFFFFFFFFFFFFFFFF AND PUSH4 0xA9059CBB DUP6 DUP6 PUSH1 0x40 MLOAD PUSH1 0x24 ADD PUSH2 0x757 SWAP3 SWAP2 SWAP1 PUSH2 0xEE2 JUMP JUMPDEST PUSH1 0x40 MLOAD PUSH1 0x20 DUP2 DUP4 SUB SUB DUP2 MSTORE SWAP1 PUSH1 0x40 MSTORE SWAP2 POP PUSH1 0xE0 SHL PUSH1 0x20 DUP3 ADD DUP1 MLOAD PUSH28 0xFFFFFFFFFFFFFFFFFFFFFFFFFFFFFFFFFFFFFFFFFFFFFFFFFFFFFFFF DUP4 DUP2 DUP4 AND OR DUP4 MSTORE POP POP POP POP PUSH2 0x86B JUMP JUMPDEST POP POP POP JUMP JUMPDEST PUSH0 PUSH0 PUSH0 SWAP1 SLOAD SWAP1 PUSH2 0x100 EXP SWAP1 DIV PUSH20 0xFFFFFFFFFFFFFFFFFFFFFFFFFFFFFFFFFFFFFFFF AND SWAP1 POP DUP2 PUSH0 PUSH0 PUSH2 0x100 EXP DUP2 SLOAD DUP2 PUSH20 0xFFFFFFFFFFFFFFFFFFFFFFFFFFFFFFFFFFFFFFFF MUL NOT AND SWAP1 DUP4 PUSH20 0xFFFFFFFFFFFFFFFFFFFFFFFFFFFFFFFFFFFFFFFF AND MUL OR SWAP1 SSTORE POP DUP2 PUSH20 0xFFFFFFFFFFFFFFFFFFFFFFFFFFFFFFFFFFFFFFFF AND DUP2 PUSH20 0xFFFFFFFFFFFFFFFFFFFFFFFFFFFFFFFFFFFFFFFF AND PUSH32 0x8BE0079C531659141344CD1FD0A4F28419497F9722A3DAAFE3B4186F6B6457E0 PUSH1 0x40 MLOAD PUSH1 0x40 MLOAD DUP1 SWAP2 SUB SWAP1 LOG3 POP POP JUMP JUMPDEST PUSH0 CALLER SWAP1 POP SWAP1 JUMP JUMPDEST PUSH0 PUSH0 PUSH1 0x20 PUSH0 DUP5 MLOAD PUSH1 0x20 DUP7 ADD PUSH0 DUP9 GAS CALL DUP1 PUSH2 0x88A JUMPI PUSH1 0x40 MLOAD RETURNDATASIZE PUSH0 DUP3 RETURNDATACOPY RETURNDATASIZE DUP2 REVERT JUMPDEST RETURNDATASIZE SWAP3 POP PUSH0 MLOAD SWAP2 POP POP PUSH0 DUP3 EQ PUSH2 0x8A3 JUMPI PUSH1 0x1 DUP2 EQ ISZERO PUSH2 0x8BE JUMP JUMPDEST PUSH0 DUP5 PUSH20 0xFFFFFFFFFFFFFFFFFFFFFFFFFFFFFFFFFFFFFFFF AND EXTCODESIZE EQ JUMPDEST ISZERO PUSH2 0x900 JUMPI DUP4 PUSH1 0x40 MLOAD PUSH32 0x5274AFE700000000000000000000000000000000000000000000000000000000 DUP2 MSTORE PUSH1 0x4 ADD PUSH2 0x8F7 SWAP2 SWAP1 PUSH2 0xB7D JUMP JUMPDEST PUSH1 0x40 MLOAD DUP1 SWAP2 SUB SWAP1 REVERT JUMPDEST POP POP POP POP JUMP JUMPDEST PUSH0 PUSH0 REVERT JUMPDEST PUSH0 PUSH0 REVERT JUMPDEST PUSH0 DUP2 SWAP1 POP SWAP2 SWAP1 POP JUMP JUMPDEST PUSH2 0x920 DUP2 PUSH2 0x90E JUMP JUMPDEST DUP2 EQ PUSH2 0x92A JUMPI PUSH0 PUSH0 REVERT JUMPDEST POP JUMP JUMPDEST PUSH0 DUP2 CALLDATALOAD SWAP1 POP PUSH2 0x93B DUP2 PUSH2 0x917 JUMP JUMPDEST SWAP3 SWAP2 POP POP JUMP JUMPDEST PUSH0 PUSH1 0x20 DUP3 DUP5 SUB SLT ISZERO PUSH2 0x956 JUMPI PUSH2 0x955 PUSH2 0x906 JUMP JUMPDEST JUMPDEST PUSH0 PUSH2 0x963 DUP5 DUP3 DUP6 ADD PUSH2 0x92D JUMP JUMPDEST SWAP2 POP POP SWAP3 SWAP2 POP POP JUMP JUMPDEST PUSH0 PUSH0 REVERT JUMPDEST PUSH0 PUSH0 REVERT JUMPDEST PUSH0 PUSH0 REVERT JUMPDEST PUSH0 PUSH0 DUP4 PUSH1 0x1F DUP5 ADD SLT PUSH2 0x98D JUMPI PUSH2 0x98C PUSH2 0x96C JUMP JUMPDEST JUMPDEST DUP3 CALLDATALOAD SWAP1 POP PUSH8 0xFFFFFFFFFFFFFFFF DUP2 GT ISZERO PUSH2 0x9AA JUMPI PUSH2 0x9A9 PUSH2 0x970 JUMP JUMPDEST JUMPDEST PUSH1 0x20 DUP4 ADD SWAP2 POP DUP4 PUSH1 0x40 DUP3 MUL DUP4 ADD GT ISZERO PUSH2 0x9C6 JUMPI PUSH2 0x9C5 PUSH2 0x974 JUMP JUMPDEST JUMPDEST SWAP3 POP SWAP3 SWAP1 POP JUMP JUMPDEST PUSH0 PUSH0 PUSH1 0x20 DUP4 DUP6 SUB SLT ISZERO PUSH2 0x9E3 JUMPI PUSH2 0x9E2 PUSH2 0x906 JUMP JUMPDEST JUMPDEST PUSH0 DUP4 ADD CALLDATALOAD PUSH8 0xFFFFFFFFFFFFFFFF DUP2 GT ISZERO PUSH2 0xA00 JUMPI PUSH2 0x9FF PUSH2 0x90A JUMP JUMPDEST JUMPDEST PUSH2 0xA0C DUP6 DUP3 DUP7 ADD PUSH2 0x978 JUMP JUMPDEST SWAP3 POP SWAP3 POP POP SWAP3 POP SWAP3 SWAP1 POP JUMP JUMPDEST PUSH0 PUSH20 0xFFFFFFFFFFFFFFFFFFFFFFFFFFFFFFFFFFFFFFFF DUP3 AND SWAP1 POP SWAP2 SWAP1 POP JUMP JUMPDEST PUSH0 DUP2 SWAP1 POP SWAP2 SWAP1 POP JUMP JUMPDEST PUSH0 PUSH2 0xA5A PUSH2 0xA55 PUSH2 0xA50 DUP5 PUSH2 0xA18 JUMP JUMPDEST PUSH2 0xA37 JUMP JUMPDEST PUSH2 0xA18 JUMP JUMPDEST SWAP1 POP SWAP2 SWAP1 POP JUMP JUMPDEST PUSH0 PUSH2 0xA6B DUP3 PUSH2 0xA40 JUMP JUMPDEST SWAP1 POP SWAP2 SWAP1 POP JUMP JUMPDEST PUSH0 PUSH2 0xA7C DUP3 PUSH2 0xA61 JUMP JUMPDEST SWAP1 POP SWAP2 SWAP1 POP JUMP JUMPDEST PUSH2 0xA8C DUP2 PUSH2 0xA72 JUMP JUMPDEST DUP3 MSTORE POP POP JUMP JUMPDEST PUSH0 PUSH1 0x20 DUP3 ADD SWAP1 POP PUSH2 0xAA5 PUSH0 DUP4 ADD DUP5 PUSH2 0xA83 JUMP JUMPDEST SWAP3 SWAP2 POP POP JUMP JUMPDEST PUSH0 PUSH0 DUP4 PUSH1 0x1F DUP5 ADD SLT PUSH2 0xAC0 JUMPI PUSH2 0xABF PUSH2 0x96C JUMP JUMPDEST JUMPDEST DUP3 CALLDATALOAD SWAP1 POP PUSH8 0xFFFFFFFFFFFFFFFF DUP2 GT ISZERO PUSH2 0xADD JUMPI PUSH2 0xADC PUSH2 0x970 JUMP JUMPDEST JUMPDEST PUSH1 0x20 DUP4 ADD SWAP2 POP DUP4 PUSH1 0x20 DUP3 MUL DUP4 ADD GT ISZERO PUSH2 0xAF9 JUMPI PUSH2 0xAF8 PUSH2 0x974 JUMP JUMPDEST JUMPDEST SWAP3 POP SWAP3 SWAP1 POP JUMP JUMPDEST PUSH0 PUSH0 PUSH0 PUSH1 0x40 DUP5 DUP7 SUB SLT ISZERO PUSH2 0xB17 JUMPI PUSH2 0xB16 PUSH2 0x906 JUMP JUMPDEST JUMPDEST PUSH0 DUP5 ADD CALLDATALOAD PUSH8 0xFFFFFFFFFFFFFFFF DUP2 GT ISZERO PUSH2 0xB34 JUMPI PUSH2 0xB33 PUSH2 0x90A JUMP JUMPDEST JUMPDEST PUSH2 0xB40 DUP7 DUP3 DUP8 ADD PUSH2 0xAAB JUMP JUMPDEST SWAP4 POP SWAP4 POP POP PUSH1 0x20 PUSH2 0xB53 DUP7 DUP3 DUP8 ADD PUSH2 0x92D JUMP JUMPDEST SWAP2 POP POP SWAP3 POP SWAP3 POP SWAP3 JUMP JUMPDEST PUSH0 PUSH2 0xB67 DUP3 PUSH2 0xA18 JUMP JUMPDEST SWAP1 POP SWAP2 SWAP1 POP JUMP JUMPDEST PUSH2 0xB77 DUP2 PUSH2 0xB5D JUMP JUMPDEST DUP3 MSTORE POP POP JUMP JUMPDEST PUSH0 PUSH1 0x20 DUP3 ADD SWAP1 POP PUSH2 0xB90 PUSH0 DUP4 ADD DUP5 PUSH2 0xB6E JUMP JUMPDEST SWAP3 SWAP2 POP POP JUMP JUMPDEST PUSH0 PUSH2 0xBA0 DUP3 PUSH2 0xB5D JUMP JUMPDEST SWAP1 POP SWAP2 SWAP1 POP JUMP JUMPDEST PUSH2 0xBB0 DUP2 PUSH2 0xB96 JUMP JUMPDEST DUP2 EQ PUSH2 0xBBA JUMPI PUSH0 PUSH0 REVERT JUMPDEST POP JUMP JUMPDEST PUSH0 DUP2 CALLDATALOAD SWAP1 POP PUSH2 0xBCB DUP2 PUSH2 0xBA7 JUMP JUMPDEST SWAP3 SWAP2 POP POP JUMP JUMPDEST PUSH0 PUSH1 0x20 DUP3 DUP5 SUB SLT ISZERO PUSH2 0xBE6 JUMPI PUSH2 0xBE5 PUSH2 0x906 JUMP JUMPDEST JUMPDEST PUSH0 PUSH2 0xBF3 DUP5 DUP3 DUP6 ADD PUSH2 0xBBD JUMP JUMPDEST SWAP2 POP POP SWAP3 SWAP2 POP POP JUMP JUMPDEST PUSH2 0xC05 DUP2 PUSH2 0xB5D JUMP JUMPDEST DUP2 EQ PUSH2 0xC0F JUMPI PUSH0 PUSH0 REVERT JUMPDEST POP JUMP JUMPDEST PUSH0 DUP2 CALLDATALOAD SWAP1 POP PUSH2 0xC20 DUP2 PUSH2 0xBFC JUMP JUMPDEST SWAP3 SWAP2 POP POP JUMP JUMPDEST PUSH0 PUSH1 0x20 DUP3 DUP5 SUB SLT ISZERO PUSH2 0xC3B JUMPI PUSH2 0xC3A PUSH2 0x906 JUMP JUMPDEST JUMPDEST PUSH0 PUSH2 0xC48 DUP5 DUP3 DUP6 ADD PUSH2 0xC12 JUMP JUMPDEST SWAP2 POP POP SWAP3 SWAP2 POP POP JUMP JUMPDEST PUSH32 0x4E487B7100000000000000000000000000000000000000000000000000000000 PUSH0 MSTORE PUSH1 0x32 PUSH1 0x4 MSTORE PUSH1 0x24 PUSH0 REVERT JUMPDEST PUSH2 0xC87 DUP2 PUSH2 0x90E JUMP JUMPDEST DUP3 MSTORE POP POP JUMP JUMPDEST PUSH0 PUSH1 0x20 DUP3 ADD SWAP1 POP PUSH2 0xCA0 PUSH0 DUP4 ADD DUP5 PUSH2 0xC7E JUMP JUMPDEST SWAP3 SWAP2 POP POP JUMP JUMPDEST PUSH0 DUP2 SWAP1 POP SWAP3 SWAP2 POP POP JUMP JUMPDEST PUSH0 DUP2 SWAP1 POP SWAP2 SWAP1 POP JUMP JUMPDEST PUSH0 PUSH2 0xCC7 PUSH1 0x20 DUP5 ADD DUP5 PUSH2 0xC12 JUMP JUMPDEST SWAP1 POP SWAP3 SWAP2 POP POP JUMP JUMPDEST PUSH2 0xCD8 DUP2 PUSH2 0xB5D JUMP JUMPDEST DUP3 MSTORE POP POP JUMP JUMPDEST PUSH0 PUSH2 0xCE9 DUP4 DUP4 PUSH2 0xCCF JUMP JUMPDEST PUSH1 0x20 DUP4 ADD SWAP1 POP SWAP3 SWAP2 POP POP JUMP JUMPDEST PUSH0 PUSH2 0xD03 PUSH1 0x20 DUP5 ADD DUP5 PUSH2 0x92D JUMP JUMPDEST SWAP1 POP SWAP3 SWAP2 POP POP JUMP JUMPDEST PUSH2 0xD14 DUP2 PUSH2 0x90E JUMP JUMPDEST DUP3 MSTORE POP POP JUMP JUMPDEST PUSH0 PUSH2 0xD25 DUP4 DUP4 PUSH2 0xD0B JUMP JUMPDEST PUSH1 0x20 DUP4 ADD SWAP1 POP SWAP3 SWAP2 POP POP JUMP JUMPDEST PUSH0 DUP3 ADD PUSH2 0xD40 PUSH0 DUP4 ADD DUP4 PUSH2 0xCB9 JUMP JUMPDEST PUSH2 0xD4A DUP5 DUP3 PUSH2 0xCDE JUMP JUMPDEST SWAP4 POP POP PUSH2 0xD5A PUSH1 0x20 DUP4 ADD DUP4 PUSH2 0xCF5 JUMP JUMPDEST PUSH2 0xD64 DUP5 DUP3 PUSH2 0xD1A JUMP JUMPDEST SWAP4 POP POP POP POP POP JUMP JUMPDEST PUSH0 PUSH2 0xD77 DUP4 DUP4 PUSH2 0xD31 JUMP JUMPDEST PUSH1 0x40 DUP4 ADD SWAP1 POP SWAP3 SWAP2 POP POP JUMP JUMPDEST PUSH0 DUP3 SWAP1 POP SWAP3 SWAP2 POP POP JUMP JUMPDEST PUSH0 PUSH1 0x40 DUP3 ADD SWAP1 POP SWAP2 SWAP1 POP JUMP JUMPDEST PUSH0 PUSH2 0xDA4 DUP4 DUP6 PUSH2 0xCA6 JUMP JUMPDEST SWAP4 POP PUSH2 0xDAF DUP3 PUSH2 0xCB0 JUMP JUMPDEST DUP1 PUSH0 JUMPDEST DUP6 DUP2 LT ISZERO PUSH2 0xDE7 JUMPI PUSH2 0xDC4 DUP3 DUP5 PUSH2 0xD83 JUMP JUMPDEST PUSH2 0xDCE DUP9 DUP3 PUSH2 0xD6C JUMP JUMPDEST SWAP8 POP PUSH2 0xDD9 DUP4 PUSH2 0xD8D JUMP JUMPDEST SWAP3 POP POP PUSH1 0x1 DUP2 ADD SWAP1 POP PUSH2 0xDB2 JUMP JUMPDEST POP DUP6 SWAP3 POP POP POP SWAP4 SWAP3 POP POP POP JUMP JUMPDEST PUSH0 PUSH2 0xE00 DUP3 DUP5 DUP7 PUSH2 0xD99 JUMP JUMPDEST SWAP2 POP DUP2 SWAP1 POP SWAP4 SWAP3 POP POP POP JUMP JUMPDEST PUSH0 DUP3 DUP3 MSTORE PUSH1 0x20 DUP3 ADD SWAP1 POP SWAP3 SWAP2 POP POP JUMP JUMPDEST PUSH0 DUP2 SWAP1 POP SWAP2 SWAP1 POP JUMP JUMPDEST PUSH2 0xE2E DUP2 PUSH2 0xB5D JUMP JUMPDEST DUP3 MSTORE POP POP JUMP JUMPDEST PUSH0 PUSH2 0xE3F DUP4 DUP4 PUSH2 0xE25 JUMP JUMPDEST PUSH1 0x20 DUP4 ADD SWAP1 POP SWAP3 SWAP2 POP POP JUMP JUMPDEST PUSH0 PUSH1 0x20 DUP3 ADD SWAP1 POP SWAP2 SWAP1 POP JUMP JUMPDEST PUSH0 PUSH2 0xE62 DUP4 DUP6 PUSH2 0xE0C JUMP JUMPDEST SWAP4 POP PUSH2 0xE6D DUP3 PUSH2 0xE1C JUMP JUMPDEST DUP1 PUSH0 JUMPDEST DUP6 DUP2 LT ISZERO PUSH2 0xEA5 JUMPI PUSH2 0xE82 DUP3 DUP5 PUSH2 0xCB9 JUMP JUMPDEST PUSH2 0xE8C DUP9 DUP3 PUSH2 0xE34 JUMP JUMPDEST SWAP8 POP PUSH2 0xE97 DUP4 PUSH2 0xE4B JUMP JUMPDEST SWAP3 POP POP PUSH1 0x1 DUP2 ADD SWAP1 POP PUSH2 0xE70 JUMP JUMPDEST POP DUP6 SWAP3 POP POP POP SWAP4 SWAP3 POP POP POP JUMP JUMPDEST PUSH0 PUSH1 0x40 DUP3 ADD SWAP1 POP DUP2 DUP2 SUB PUSH0 DUP4 ADD MSTORE PUSH2 0xECB DUP2 DUP6 DUP8 PUSH2 0xE57 JUMP JUMPDEST SWAP1 POP PUSH2 0xEDA PUSH1 0x20 DUP4 ADD DUP5 PUSH2 0xC7E JUMP JUMPDEST SWAP5 SWAP4 POP POP POP POP JUMP JUMPDEST PUSH0 PUSH1 0x40 DUP3 ADD SWAP1 POP PUSH2 0xEF5 PUSH0 DUP4 ADD DUP6 PUSH2 0xB6E JUMP JUMPDEST PUSH2 0xF02 PUSH1 0x20 DUP4 ADD DUP5 PUSH2 0xC7E JUMP JUMPDEST SWAP4 SWAP3 POP POP POP JUMP INVALID LOG2 PUSH5 0x6970667358 0x22 SLT KECCAK256 0xA5 PUSH25 0x87A436D6E498BFECA27B698C977F4B56418840C3D7033DBE08 0xCB 0x2F PUSH9 0x8E4864736F6C634300 ADDMOD SHR STOP CALLER "
				},
				"gasEstimates": {
					"creation": {
						"codeDepositCost": "780600",
						"executionCost": "infinite",
						"totalCost": "infinite"
					},
					"external": {
						"antToken()": "infinite",
						"batchAirdrop((address,uint256)[])": "infinite",
						"owner()": "2536",
						"renounceOwnership()": "infinite",
						"setAntToken(address)": "infinite",
						"transferOwnership(address)": "infinite",
						"uniformAirdrop(address[],uint256)": "infinite",
						"withdraw(uint256)": "infinite"
					}
				},
				"methodIdentifiers": {
					"antToken()": "4ec42e8e",
					"batchAirdrop((address,uint256)[])": "340886a9",
					"owner()": "8da5cb5b",
					"renounceOwnership()": "715018a6",
					"setAntToken(address)": "daa328d4",
					"transferOwnership(address)": "f2fde38b",
					"uniformAirdrop(address[],uint256)": "7acd1f73",
					"withdraw(uint256)": "2e1a7d4d"
				}
			},
			"storageLayout": {
				"storage": [
					{
						"astId": 8,
						"contract": "src/Airdrop.sol:Airdrop",
						"label": "_owner",
						"offset": 0,
						"slot": "0",
						"type": "t_address"
					},
					{
						"astId": 806,
						"contract": "src/Airdrop.sol:Airdrop",
						"label": "antToken",
						"offset": 0,
						"slot": "1",
						"type": "t_contract(IERC20)315"
					}
				],
				"types": {
					"t_address": {
						"encoding": "inplace",
						"label": "address",
						"numberOfBytes": "20"
					},
					"t_contract(IERC20)315": {
						"encoding": "inplace",
						"label": "contract IERC20",
						"numberOfBytes": "20"
					}
				}
			},
			"userdoc": {
				"kind": "user",
				"methods": {
					"batchAirdrop((address,uint256)[])": {
						"notice": "Performs batch transfer of tokens to multiple addresses"
					}
				},
				"version": 1
			}
		}
	}
}