{
	"data": {
		"bytecode": {
			"linkReferences": {},
			"object": "60c060405234801561000f575f5ffd5b5060405161072a38038061072a83398101604081905261002e9161009b565b60015f556001600160a01b038216158061004f57506001600160a01b038116155b1561006d576040516342bcdf7f60e11b815260040160405180910390fd5b6001600160a01b039182166080521660a0526100d3565b6001600160a01b0381168114610098575f5ffd5b50565b5f5f604083850312156100ac575f5ffd5b82516100b781610084565b60208401519092506100c881610084565b809150509250929050565b60805160a0516106236101075f395f818160ff015281816101a0015261032f01525f8181608e01526102ac01526106235ff3fe608060405234801561000f575f5ffd5b5060043610610085575f3560e01c80637f384acf116100585780637f384acf1461012b5780639c7e4a6614610135578063ba175dfa14610148578063c349026314610153575f5ffd5b806302db104b14610089578063170c62dc146100cd578063317e6d23146100fa5780634e30181014610121575b5f5ffd5b6100b07f000000000000000000000000000000000000000000000000000000000000000081565b6040516001600160a01b0390911681526020015b60405180910390f35b6100ec6100db366004610502565b60016020525f908152604090205481565b6040519081526020016100c4565b6100b07f000000000000000000000000000000000000000000000000000000000000000081565b6100ec6276a70081565b6100ec62ed4e0081565b6100ec610143366004610502565b610168565b6100ec6367ab57e081565b610166610161366004610519565b610178565b005b5f6101728261030d565b92915050565b61018061040d565b6040516331a9108f60e11b81526004810183905233906001600160a01b037f00000000000000000000000000000000000000000000000000000000000000001690636352211e90602401602060405180830381865afa1580156101e5573d5f5f3e3d5ffd5b505050506040513d601f19601f820116820180604052508101906102099190610539565b6001600160a01b03161461022f576040516282b42960e81b815260040160405180910390fd5b805f0361024f576040516307a1cab560e11b815260040160405180910390fd5b5f6102598361030d565b90508082111561027c5760405163d89f341b60e01b815260040160405180910390fd5b5f838152600160205260408120805484929061029990849061057a565b909155506102d390506001600160a01b037f0000000000000000000000000000000000000000000000000000000000000000163384610435565b604051829084907fbde2d72390af9d0444bb1c4f938971ecb673ed26f5f57f8fa44c553fe01d0d3a905f90a35061030960015f55565b5050565b60405163fd70d17760e01b8152600481018290525f9081906001600160a01b037f0000000000000000000000000000000000000000000000000000000000000000169063fd70d17790602401602060405180830381865afa158015610374573d5f5f3e3d5ffd5b505050506040513d601f19601f82011682018060405250810190610398919061058d565b5f848152600160205260408120549192506103b76367ab57e0426105a4565b90505f62ed4e0082106103d5576103ce83856105a4565b9050610404565b6276a7008210610404578260646103ed8660326105b7565b6103f791906105ce565b61040191906105a4565b90505b95945050505050565b60025f540361042f57604051633ee5aeb560e01b815260040160405180910390fd5b60025f55565b604080516001600160a01b038416602482015260448082018490528251808303909101815260649091019091526020810180516001600160e01b031663a9059cbb60e01b17905261048790849061048c565b505050565b5f5f60205f8451602086015f885af1806104ab576040513d5f823e3d81fd5b50505f513d915081156104c25780600114156104cf565b6001600160a01b0384163b155b156104fc57604051635274afe760e01b81526001600160a01b038516600482015260240160405180910390fd5b50505050565b5f60208284031215610512575f5ffd5b5035919050565b5f5f6040838503121561052a575f5ffd5b50508035926020909101359150565b5f60208284031215610549575f5ffd5b81516001600160a01b038116811461055f575f5ffd5b9392505050565b634e487b7160e01b5f52601160045260245ffd5b8082018082111561017257610172610566565b5f6020828403121561059d575f5ffd5b5051919050565b8181038181111561017257610172610566565b808202811582820484141761017257610172610566565b5f826105e857634e487b7160e01b5f52601260045260245ffd5b50049056fea26469706673582212206656b7213bc8277a0f7604268390558531e8d78ec4c04eef60f4c11b849d08cd64736f6c634300081c0033",
			"opcodes": "PUSH1 0xC0 PUSH1 0x40 MSTORE CALLVALUE DUP1 ISZERO PUSH2 0xF JUMPI PUSH0 PUSH0 REVERT JUMPDEST POP PUSH1 0x40 MLOAD PUSH2 0x72A CODESIZE SUB DUP1 PUSH2 0x72A DUP4 CODECOPY DUP2 ADD PUSH1 0x40 DUP2 SWAP1 MSTORE PUSH2 0x2E SWAP2 PUSH2 0x9B JUMP JUMPDEST PUSH1 0x1 PUSH0 SSTORE PUSH1 0x1 PUSH1 0x1 PUSH1 0xA0 SHL SUB DUP3 AND ISZERO DUP1 PUSH2 0x4F JUMPI POP PUSH1 0x1 PUSH1 0x1 PUSH1 0xA0 SHL SUB DUP2 AND ISZERO JUMPDEST ISZERO PUSH2 0x6D JUMPI PUSH1 0x40 MLOAD PUSH4 0x42BCDF7F PUSH1 0xE1 SHL DUP2 MSTORE PUSH1 0x4 ADD PUSH1 0x40 MLOAD DUP1 SWAP2 SUB SWAP1 REVERT JUMPDEST PUSH1 0x1 PUSH1 0x1 PUSH1 0xA0 SHL SUB SWAP2 DUP3 AND PUSH1 0x80 MSTORE AND PUSH1 0xA0 MSTORE PUSH2 0xD3 JUMP JUMPDEST PUSH1 0x1 PUSH1 0x1 PUSH1 0xA0 SHL SUB DUP2 AND DUP2 EQ PUSH2 0x98 JUMPI PUSH0 PUSH0 REVERT JUMPDEST POP JUMP JUMPDEST PUSH0 PUSH0 PUSH1 0x40 DUP4 DUP6 SUB SLT ISZERO PUSH2 0xAC JUMPI PUSH0 PUSH0 REVERT JUMPDEST DUP3 MLOAD PUSH2 0xB7 DUP2 PUSH2 0x84 JUMP JUMPDEST PUSH1 0x20 DUP5 ADD MLOAD SWAP1 SWAP3 POP PUSH2 0xC8 DUP2 PUSH2 0x84 JUMP JUMPDEST DUP1 SWAP2 POP POP SWAP3 POP SWAP3 SWAP1 POP JUMP JUMPDEST PUSH1 0x80 MLOAD PUSH1 0xA0 MLOAD PUSH2 0x623 PUSH2 0x107 PUSH0 CODECOPY PUSH0 DUP2 DUP2 PUSH1 0xFF ADD MSTORE DUP2 DUP2 PUSH2 0x1A0 ADD MSTORE PUSH2 0x32F ADD MSTORE PUSH0 DUP2 DUP2 PUSH1 0x8E ADD MSTORE PUSH2 0x2AC ADD MSTORE PUSH2 0x623 PUSH0 RETURN INVALID PUSH1 0x80 PUSH1 0x40 MSTORE CALLVALUE DUP1 ISZERO PUSH2 0xF JUMPI PUSH0 PUSH0 REVERT JUMPDEST POP PUSH1 0x4 CALLDATASIZE LT PUSH2 0x85 JUMPI PUSH0 CALLDATALOAD PUSH1 0xE0 SHR DUP1 PUSH4 0x7F384ACF GT PUSH2 0x58 JUMPI DUP1 PUSH4 0x7F384ACF EQ PUSH2 0x12B JUMPI DUP1 PUSH4 0x9C7E4A66 EQ PUSH2 0x135 JUMPI DUP1 PUSH4 0xBA175DFA EQ PUSH2 0x148 JUMPI DUP1 PUSH4 0xC3490263 EQ PUSH2 0x153 JUMPI PUSH0 PUSH0 REVERT JUMPDEST DUP1 PUSH4 0x2DB104B EQ PUSH2 0x89 JUMPI DUP1 PUSH4 0x170C62DC EQ PUSH2 0xCD JUMPI DUP1 PUSH4 0x317E6D23 EQ PUSH2 0xFA JUMPI DUP1 PUSH4 0x4E301810 EQ PUSH2 0x121 JUMPI JUMPDEST PUSH0 PUSH0 REVERT JUMPDEST PUSH2 0xB0 PUSH32 0x0 DUP2 JUMP JUMPDEST PUSH1 0x40 MLOAD PUSH1 0x1 PUSH1 0x1 PUSH1 0xA0 SHL SUB SWAP1 SWAP2 AND DUP2 MSTORE PUSH1 0x20 ADD JUMPDEST PUSH1 0x40 MLOAD DUP1 SWAP2 SUB SWAP1 RETURN JUMPDEST PUSH2 0xEC PUSH2 0xDB CALLDATASIZE PUSH1 0x4 PUSH2 0x502 JUMP JUMPDEST PUSH1 0x1 PUSH1 0x20 MSTORE PUSH0 SWAP1 DUP2 MSTORE PUSH1 0x40 SWAP1 KECCAK256 SLOAD DUP2 JUMP JUMPDEST PUSH1 0x40 MLOAD SWAP1 DUP2 MSTORE PUSH1 0x20 ADD PUSH2 0xC4 JUMP JUMPDEST PUSH2 0xB0 PUSH32 0x0 DUP2 JUMP JUMPDEST PUSH2 0xEC PUSH3 0x76A700 DUP2 JUMP JUMPDEST PUSH2 0xEC PUSH3 0xED4E00 DUP2 JUMP JUMPDEST PUSH2 0xEC PUSH2 0x143 CALLDATASIZE PUSH1 0x4 PUSH2 0x502 JUMP JUMPDEST PUSH2 0x168 JUMP JUMPDEST PUSH2 0xEC PUSH4 0x67AB57E0 DUP2 JUMP JUMPDEST PUSH2 0x166 PUSH2 0x161 CALLDATASIZE PUSH1 0x4 PUSH2 0x519 JUMP JUMPDEST PUSH2 0x178 JUMP JUMPDEST STOP JUMPDEST PUSH0 PUSH2 0x172 DUP3 PUSH2 0x30D JUMP JUMPDEST SWAP3 SWAP2 POP POP JUMP JUMPDEST PUSH2 0x180 PUSH2 0x40D JUMP JUMPDEST PUSH1 0x40 MLOAD PUSH4 0x31A9108F PUSH1 0xE1 SHL DUP2 MSTORE PUSH1 0x4 DUP2 ADD DUP4 SWAP1 MSTORE CALLER SWAP1 PUSH1 0x1 PUSH1 0x1 PUSH1 0xA0 SHL SUB PUSH32 0x0 AND SWAP1 PUSH4 0x6352211E SWAP1 PUSH1 0x24 ADD PUSH1 0x20 PUSH1 0x40 MLOAD DUP1 DUP4 SUB DUP2 DUP7 GAS STATICCALL ISZERO DUP1 ISZERO PUSH2 0x1E5 JUMPI RETURNDATASIZE PUSH0 PUSH0 RETURNDATACOPY RETURNDATASIZE PUSH0 REVERT JUMPDEST POP POP POP POP PUSH1 0x40 MLOAD RETURNDATASIZE PUSH1 0x1F NOT PUSH1 0x1F DUP3 ADD AND DUP3 ADD DUP1 PUSH1 0x40 MSTORE POP DUP2 ADD SWAP1 PUSH2 0x209 SWAP2 SWAP1 PUSH2 0x539 JUMP JUMPDEST PUSH1 0x1 PUSH1 0x1 PUSH1 0xA0 SHL SUB AND EQ PUSH2 0x22F JUMPI PUSH1 0x40 MLOAD PUSH3 0x82B429 PUSH1 0xE8 SHL DUP2 MSTORE PUSH1 0x4 ADD PUSH1 0x40 MLOAD DUP1 SWAP2 SUB SWAP1 REVERT JUMPDEST DUP1 PUSH0 SUB PUSH2 0x24F JUMPI PUSH1 0x40 MLOAD PUSH4 0x7A1CAB5 PUSH1 0xE1 SHL DUP2 MSTORE PUSH1 0x4 ADD PUSH1 0x40 MLOAD DUP1 SWAP2 SUB SWAP1 REVERT JUMPDEST PUSH0 PUSH2 0x259 DUP4 PUSH2 0x30D JUMP JUMPDEST SWAP1 POP DUP1 DUP3 GT ISZERO PUSH2 0x27C JUMPI PUSH1 0x40 MLOAD PUSH4 0xD89F341B PUSH1 0xE0 SHL DUP2 MSTORE PUSH1 0x4 ADD PUSH1 0x40 MLOAD DUP1 SWAP2 SUB SWAP1 REVERT JUMPDEST PUSH0 DUP4 DUP2 MSTORE PUSH1 0x1 PUSH1 0x20 MSTORE PUSH1 0x40 DUP2 KECCAK256 DUP1 SLOAD DUP5 SWAP3 SWAP1 PUSH2 0x299 SWAP1 DUP5 SWAP1 PUSH2 0x57A JUMP JUMPDEST SWAP1 SWAP2 SSTORE POP PUSH2 0x2D3 SWAP1 POP PUSH1 0x1 PUSH1 0x1 PUSH1 0xA0 SHL SUB PUSH32 0x0 AND CALLER DUP5 PUSH2 0x435 JUMP JUMPDEST PUSH1 0x40 MLOAD DUP3 SWAP1 DUP5 SWAP1 PUSH32 0xBDE2D72390AF9D0444BB1C4F938971ECB673ED26F5F57F8FA44C553FE01D0D3A SWAP1 PUSH0 SWAP1 LOG3 POP PUSH2 0x309 PUSH1 0x1 PUSH0 SSTORE JUMP JUMPDEST POP POP JUMP JUMPDEST PUSH1 0x40 MLOAD PUSH4 0xFD70D177 PUSH1 0xE0 SHL DUP2 MSTORE PUSH1 0x4 DUP2 ADD DUP3 SWAP1 MSTORE PUSH0 SWAP1 DUP2 SWAP1 PUSH1 0x1 PUSH1 0x1 PUSH1 0xA0 SHL SUB PUSH32 0x0 AND SWAP1 PUSH4 0xFD70D177 SWAP1 PUSH1 0x24 ADD PUSH1 0x20 PUSH1 0x40 MLOAD DUP1 DUP4 SUB DUP2 DUP7 GAS STATICCALL ISZERO DUP1 ISZERO PUSH2 0x374 JUMPI RETURNDATASIZE PUSH0 PUSH0 RETURNDATACOPY RETURNDATASIZE PUSH0 REVERT JUMPDEST POP POP POP POP PUSH1 0x40 MLOAD RETURNDATASIZE PUSH1 0x1F NOT PUSH1 0x1F DUP3 ADD AND DUP3 ADD DUP1 PUSH1 0x40 MSTORE POP DUP2 ADD SWAP1 PUSH2 0x398 SWAP2 SWAP1 PUSH2 0x58D JUMP JUMPDEST PUSH0 DUP5 DUP2 MSTORE PUSH1 0x1 PUSH1 0x20 MSTORE PUSH1 0x40 DUP2 KECCAK256 SLOAD SWAP2 SWAP3 POP PUSH2 0x3B7 PUSH4 0x67AB57E0 TIMESTAMP PUSH2 0x5A4 JUMP JUMPDEST SWAP1 POP PUSH0 PUSH3 0xED4E00 DUP3 LT PUSH2 0x3D5 JUMPI PUSH2 0x3CE DUP4 DUP6 PUSH2 0x5A4 JUMP JUMPDEST SWAP1 POP PUSH2 0x404 JUMP JUMPDEST PUSH3 0x76A700 DUP3 LT PUSH2 0x404 JUMPI DUP3 PUSH1 0x64 PUSH2 0x3ED DUP7 PUSH1 0x32 PUSH2 0x5B7 JUMP JUMPDEST PUSH2 0x3F7 SWAP2 SWAP1 PUSH2 0x5CE JUMP JUMPDEST PUSH2 0x401 SWAP2 SWAP1 PUSH2 0x5A4 JUMP JUMPDEST SWAP1 POP JUMPDEST SWAP6 SWAP5 POP POP POP POP POP JUMP JUMPDEST PUSH1 0x2 PUSH0 SLOAD SUB PUSH2 0x42F JUMPI PUSH1 0x40 MLOAD PUSH4 0x3EE5AEB5 PUSH1 0xE0 SHL DUP2 MSTORE PUSH1 0x4 ADD PUSH1 0x40 MLOAD DUP1 SWAP2 SUB SWAP1 REVERT JUMPDEST PUSH1 0x2 PUSH0 SSTORE JUMP JUMPDEST PUSH1 0x40 DUP1 MLOAD PUSH1 0x1 PUSH1 0x1 PUSH1 0xA0 SHL SUB DUP5 AND PUSH1 0x24 DUP3 ADD MSTORE PUSH1 0x44 DUP1 DUP3 ADD DUP5 SWAP1 MSTORE DUP3 MLOAD DUP1 DUP4 SUB SWAP1 SWAP2 ADD DUP2 MSTORE PUSH1 0x64 SWAP1 SWAP2 ADD SWAP1 SWAP2 MSTORE PUSH1 0x20 DUP2 ADD DUP1 MLOAD PUSH1 0x1 PUSH1 0x1 PUSH1 0xE0 SHL SUB AND PUSH4 0xA9059CBB PUSH1 0xE0 SHL OR SWAP1 MSTORE PUSH2 0x487 SWAP1 DUP5 SWAP1 PUSH2 0x48C JUMP JUMPDEST POP POP POP JUMP JUMPDEST PUSH0 PUSH0 PUSH1 0x20 PUSH0 DUP5 MLOAD PUSH1 0x20 DUP7 ADD PUSH0 DUP9 GAS CALL DUP1 PUSH2 0x4AB JUMPI PUSH1 0x40 MLOAD RETURNDATASIZE PUSH0 DUP3 RETURNDATACOPY RETURNDATASIZE DUP2 REVERT JUMPDEST POP POP PUSH0 MLOAD RETURNDATASIZE SWAP2 POP DUP2 ISZERO PUSH2 0x4C2 JUMPI DUP1 PUSH1 0x1 EQ ISZERO PUSH2 0x4CF JUMP JUMPDEST PUSH1 0x1 PUSH1 0x1 PUSH1 0xA0 SHL SUB DUP5 AND EXTCODESIZE ISZERO JUMPDEST ISZERO PUSH2 0x4FC JUMPI PUSH1 0x40 MLOAD PUSH4 0x5274AFE7 PUSH1 0xE0 SHL DUP2 MSTORE PUSH1 0x1 PUSH1 0x1 PUSH1 0xA0 SHL SUB DUP6 AND PUSH1 0x4 DUP3 ADD MSTORE PUSH1 0x24 ADD PUSH1 0x40 MLOAD DUP1 SWAP2 SUB SWAP1 REVERT JUMPDEST POP POP POP POP JUMP JUMPDEST PUSH0 PUSH1 0x20 DUP3 DUP5 SUB SLT ISZERO PUSH2 0x512 JUMPI PUSH0 PUSH0 REVERT JUMPDEST POP CALLDATALOAD SWAP2 SWAP1 POP JUMP JUMPDEST PUSH0 PUSH0 PUSH1 0x40 DUP4 DUP6 SUB SLT ISZERO PUSH2 0x52A JUMPI PUSH0 PUSH0 REVERT JUMPDEST POP POP DUP1 CALLDATALOAD SWAP3 PUSH1 0x20 SWAP1 SWAP2 ADD CALLDATALOAD SWAP2 POP JUMP JUMPDEST PUSH0 PUSH1 0x20 DUP3 DUP5 SUB SLT ISZERO PUSH2 0x549 JUMPI PUSH0 PUSH0 REVERT JUMPDEST DUP2 MLOAD PUSH1 0x1 PUSH1 0x1 PUSH1 0xA0 SHL SUB DUP2 AND DUP2 EQ PUSH2 0x55F JUMPI PUSH0 PUSH0 REVERT JUMPDEST SWAP4 SWAP3 POP POP POP JUMP JUMPDEST PUSH4 0x4E487B71 PUSH1 0xE0 SHL PUSH0 MSTORE PUSH1 0x11 PUSH1 0x4 MSTORE PUSH1 0x24 PUSH0 REVERT JUMPDEST DUP1 DUP3 ADD DUP1 DUP3 GT ISZERO PUSH2 0x172 JUMPI PUSH2 0x172 PUSH2 0x566 JUMP JUMPDEST PUSH0 PUSH1 0x20 DUP3 DUP5 SUB SLT ISZERO PUSH2 0x59D JUMPI PUSH0 PUSH0 REVERT JUMPDEST POP MLOAD SWAP2 SWAP1 POP JUMP JUMPDEST DUP2 DUP2 SUB DUP2 DUP2 GT ISZERO PUSH2 0x172 JUMPI PUSH2 0x172 PUSH2 0x566 JUMP JUMPDEST DUP1 DUP3 MUL DUP2 ISZERO DUP3 DUP3 DIV DUP5 EQ OR PUSH2 0x172 JUMPI PUSH2 0x172 PUSH2 0x566 JUMP JUMPDEST PUSH0 DUP3 PUSH2 0x5E8 JUMPI PUSH4 0x4E487B71 PUSH1 0xE0 SHL PUSH0 MSTORE PUSH1 0x12 PUSH1 0x4 MSTORE PUSH1 0x24 PUSH0 REVERT JUMPDEST POP DIV SWAP1 JUMP INVALID LOG2 PUSH5 0x6970667358 0x22 SLT KECCAK256 PUSH7 0x56B7213BC8277A 0xF PUSH23 0x4268390558531E8D78EC4C04EEF60F4C11B849D08CD64 PUSH20 0x6F6C634300081C00330000000000000000000000 "
		},
		"gasEstimates": {
			"creation": {
				"codeDepositCost": "314200",
				"executionCost": "infinite",
				"totalCost": "infinite"
			},
			"external": {
				"ANT_TOKEN()": "infinite",
				"AUTONOMI_NFT()": "infinite",
				"VESTING_PERIOD_1()": "261",
				"VESTING_PERIOD_2()": "194",
				"VESTING_START_TIMESTAMP()": "238",
				"claim(uint256,uint256)": "infinite",
				"getClaimable(uint256)": "infinite",
				"totalAntClaimedForTokenId(uint256)": "2458"
			},
			"internal": {
				"_claimable(uint256)": "infinite"
			}
		},
		"methodIdentifiers": {
			"ANT_TOKEN()": "02db104b",
			"AUTONOMI_NFT()": "317e6d23",
			"VESTING_PERIOD_1()": "4e301810",
			"VESTING_PERIOD_2()": "7f384acf",
			"VESTING_START_TIMESTAMP()": "ba175dfa",
			"claim(uint256,uint256)": "c3490263",
			"getClaimable(uint256)": "9c7e4a66",
			"totalAntClaimedForTokenId(uint256)": "170c62dc"
		}
	},
	"abi": [
		{
			"inputs": [
				{
					"internalType": "contract IERC20",
					"name": "antToken",
					"type": "address"
				},
				{
					"internalType": "contract IAutonomiNFT",
					"name": "autonomiNFT",
					"type": "address"
				}
			],
			"stateMutability": "nonpayable",
			"type": "constructor"
		},
		{
			"inputs": [],
			"name": "ReentrancyGuardReentrantCall",
			"type": "error"
		},
		{
			"inputs": [
				{
					"internalType": "address",
					"name": "token",
					"type": "address"
				}
			],
			"name": "SafeERC20FailedOperation",
			"type": "error"
		},
		{
			"inputs": [],
			"name": "TryingToClaimTooMuch",
			"type": "error"
		},
		{
			"inputs": [],
			"name": "Unauthorized",
			"type": "error"
		},
		{
			"inputs": [],
			"name": "ZeroAddressNotAllowed",
			"type": "error"
		},
		{
			"inputs": [],
			"name": "ZeroAmountNotAllowed",
			"type": "error"
		},
		{
			"anonymous": false,
			"inputs": [
				{
					"indexed": true,
					"internalType": "uint256",
					"name": "tokenId",
					"type": "uint256"
				},
				{
					"indexed": true,
					"internalType": "uint256",
					"name": "amount",
					"type": "uint256"
				}
			],
			"name": "TokensClaimed",
			"type": "event"
		},
		{
			"inputs": [],
			"name": "ANT_TOKEN",
			"outputs": [
				{
					"internalType": "contract IERC20",
					"name": "",
					"type": "address"
				}
			],
			"stateMutability": "view",
			"type": "function"
		},
		{
			"inputs": [],
			"name": "AUTONOMI_NFT",
			"outputs": [
				{
					"internalType": "contract IAutonomiNFT",
					"name": "",
					"type": "address"
				}
			],
			"stateMutability": "view",
			"type": "function"
		},
		{
			"inputs": [],
			"name": "VESTING_PERIOD_1",
			"outputs": [
				{
					"internalType": "uint256",
					"name": "",
					"type": "uint256"
				}
			],
			"stateMutability": "view",
			"type": "function"
		},
		{
			"inputs": [],
			"name": "VESTING_PERIOD_2",
			"outputs": [
				{
					"internalType": "uint256",
					"name": "",
					"type": "uint256"
				}
			],
			"stateMutability": "view",
			"type": "function"
		},
		{
			"inputs": [],
			"name": "VESTING_START_TIMESTAMP",
			"outputs": [
				{
					"internalType": "uint256",
					"name": "",
					"type": "uint256"
				}
			],
			"stateMutability": "view",
			"type": "function"
		},
		{
			"inputs": [
				{
					"internalType": "uint256",
					"name": "tokenId",
					"type": "uint256"
				},
				{
					"internalType": "uint256",
					"name": "amount",
					"type": "uint256"
				}
			],
			"name": "claim",
			"outputs": [],
			"stateMutability": "nonpayable",
			"type": "function"
		},
		{
			"inputs": [
				{
					"internalType": "uint256",
					"name": "tokenId",
					"type": "uint256"
				}
			],
			"name": "getClaimable",
			"outputs": [
				{
					"internalType": "uint256",
					"name": "",
					"type": "uint256"
				}
			],
			"stateMutability": "view",
			"type": "function"
		},
		{
			"inputs": [
				{
					"internalType": "uint256",
					"name": "",
					"type": "uint256"
				}
			],
			"name": "totalAntClaimedForTokenId",
			"outputs": [
				{
					"internalType": "uint256",
					"name": "",
					"type": "uint256"
				}
			],
			"stateMutability": "view",
			"type": "function"
		}
	]
}