{
	"src/Claims.sol": {
		"Claims": {
			"abi": [
				{
					"inputs": [
						{
							"internalType": "contract IERC20",
							"name": "antToken",
							"type": "address"
						},
						{
							"internalType": "contract IAutonomiNFT",
							"name": "autonomiNFT",
							"type": "address"
						}
					],
					"stateMutability": "nonpayable",
					"type": "constructor"
				},
				{
					"inputs": [],
					"name": "ReentrancyGuardReentrantCall",
					"type": "error"
				},
				{
					"inputs": [
						{
							"internalType": "address",
							"name": "token",
							"type": "address"
						}
					],
					"name": "SafeERC20FailedOperation",
					"type": "error"
				},
				{
					"inputs": [],
					"name": "TryingToClaimTooMuch",
					"type": "error"
				},
				{
					"inputs": [],
					"name": "Unauthorized",
					"type": "error"
				},
				{
					"inputs": [],
					"name": "ZeroAddressNotAllowed",
					"type": "error"
				},
				{
					"inputs": [],
					"name": "ZeroAmountNotAllowed",
					"type": "error"
				},
				{
					"anonymous": false,
					"inputs": [
						{
							"indexed": true,
							"internalType": "uint256",
							"name": "tokenId",
							"type": "uint256"
						},
						{
							"indexed": true,
							"internalType": "uint256",
							"name": "amount",
							"type": "uint256"
						}
					],
					"name": "TokensClaimed",
					"type": "event"
				},
				{
					"inputs": [],
					"name": "ANT_TOKEN",
					"outputs": [
						{
							"internalType": "contract IERC20",
							"name": "",
							"type": "address"
						}
					],
					"stateMutability": "view",
					"type": "function"
				},
				{
					"inputs": [],
					"name": "AUTONOMI_NFT",
					"outputs": [
						{
							"internalType": "contract IAutonomiNFT",
							"name": "",
							"type": "address"
						}
					],
					"stateMutability": "view",
					"type": "function"
				},
				{
					"inputs": [],
					"name": "VESTING_PERIOD_1",
					"outputs": [
						{
							"internalType": "uint256",
							"name": "",
							"type": "uint256"
						}
					],
					"stateMutability": "view",
					"type": "function"
				},
				{
					"inputs": [],
					"name": "VESTING_PERIOD_2",
					"outputs": [
						{
							"internalType": "uint256",
							"name": "",
							"type": "uint256"
						}
					],
					"stateMutability": "view",
					"type": "function"
				},
				{
					"inputs": [],
					"name": "VESTING_START_TIMESTAMP",
					"outputs": [
						{
							"internalType": "uint256",
							"name": "",
							"type": "uint256"
						}
					],
					"stateMutability": "view",
					"type": "function"
				},
				{
					"inputs": [
						{
							"internalType": "uint256",
							"name": "tokenId",
							"type": "uint256"
						},
						{
							"internalType": "uint256",
							"name": "amount",
							"type": "uint256"
						}
					],
					"name": "claim",
					"outputs": [],
					"stateMutability": "nonpayable",
					"type": "function"
				},
				{
					"inputs": [
						{
							"internalType": "uint256",
							"name": "tokenId",
							"type": "uint256"
						}
					],
					"name": "getClaimable",
					"outputs": [
						{
							"internalType": "uint256",
							"name": "",
							"type": "uint256"
						}
					],
					"stateMutability": "view",
					"type": "function"
				},
				{
					"inputs": [
						{
							"internalType": "uint256",
							"name": "",
							"type": "uint256"
						}
					],
					"name": "totalAntClaimedForTokenId",
					"outputs": [
						{
							"internalType": "uint256",
							"name": "",
							"type": "uint256"
						}
					],
					"stateMutability": "view",
					"type": "function"
				}
			],
			"devdoc": {
				"errors": {
					"ReentrancyGuardReentrantCall()": [
						{
							"details": "Unauthorized reentrant call."
						}
					],
					"SafeERC20FailedOperation(address)": [
						{
							"details": "An operation with an ERC-20 token failed."
						}
					]
				},
				"kind": "dev",
				"methods": {
					"claim(uint256,uint256)": {
						"details": "The total claimable amount is unlocked during a period of 6 months, with the 50% unlocked after 3 months, and the rest after 6 months. Autonomi NFT holders can claim any amount less than or equal to the unlocked amount, minus the amount they already claimed. The amount claimed should never be more than the total allocation to that NFT. NFT holders should be able to claim all their allocated ANT tokens after the 6 month vesting periods have passed."
					}
				},
				"version": 1
			},
			"evm": {
				"assembly": "    /* \"src/Claims.sol\":329:3191  contract Claims is IClaims, ReentrancyGuard {... */\n  mstore(0x40, 0xc0)\n    /* \"src/Claims.sol\":912:1180  constructor(IERC20 antToken, IAutonomiNFT autonomiNFT) {... */\n  callvalue\n  dup1\n  iszero\n  tag_1\n  jumpi\n  revert(0x00, 0x00)\ntag_1:\n  pop\n  mload(0x40)\n  sub(codesize, bytecodeSize)\n  dup1\n  bytecodeSize\n  dup4\n  codecopy\n  dup2\n  add\n  0x40\n  dup2\n  swap1\n  mstore\n  tag_2\n  swap2\n  tag_3\n  jump\t// in\ntag_2:\n    /* \"lib/openzeppelin-contracts/contracts/utils/ReentrancyGuard.sol\":1857:1858  1 */\n  0x01\n    /* \"lib/openzeppelin-contracts/contracts/utils/ReentrancyGuard.sol\":2061:2068  _status */\n  0x00\n    /* \"lib/openzeppelin-contracts/contracts/utils/ReentrancyGuard.sol\":2061:2082  _status = NOT_ENTERED */\n  sstore\n  sub(shl(0xa0, 0x01), 0x01)\n    /* \"src/Claims.sol\":981:1012  address(antToken) == address(0) */\n  dup3\n  and\n  iszero\n  dup1\n    /* \"src/Claims.sol\":981:1050  address(antToken) == address(0) || address(autonomiNFT) == address(0) */\n  tag_8\n  jumpi\n  pop\n  sub(shl(0xa0, 0x01), 0x01)\n    /* \"src/Claims.sol\":1016:1050  address(autonomiNFT) == address(0) */\n  dup2\n  and\n  iszero\n    /* \"src/Claims.sol\":981:1050  address(antToken) == address(0) || address(autonomiNFT) == address(0) */\ntag_8:\n    /* \"src/Claims.sol\":977:1107  if (address(antToken) == address(0) || address(autonomiNFT) == address(0)) {... */\n  iszero\n  tag_9\n  jumpi\n    /* \"src/Claims.sol\":1073:1096  ZeroAddressNotAllowed() */\n  mload(0x40)\n  shl(0xe1, 0x42bcdf7f)\n  dup2\n  mstore\n  0x04\n  add\n  mload(0x40)\n  dup1\n  swap2\n  sub\n  swap1\n  revert\n    /* \"src/Claims.sol\":977:1107  if (address(antToken) == address(0) || address(autonomiNFT) == address(0)) {... */\ntag_9:\n  sub(shl(0xa0, 0x01), 0x01)\n    /* \"src/Claims.sol\":1117:1137  ANT_TOKEN = antToken */\n  swap2\n  dup3\n  and\n  0x80\n  mstore\n    /* \"src/Claims.sol\":1147:1173  AUTONOMI_NFT = autonomiNFT */\n  and\n  0xa0\n  mstore\n    /* \"src/Claims.sol\":329:3191  contract Claims is IClaims, ReentrancyGuard {... */\n  jump(tag_12)\n    /* \"#utility.yul\":14:153   */\ntag_11:\n  sub(shl(0xa0, 0x01), 0x01)\n    /* \"#utility.yul\":97:128   */\n  dup2\n  and\n    /* \"#utility.yul\":87:129   */\n  dup2\n  eq\n    /* \"#utility.yul\":77:147   */\n  tag_14\n  jumpi\n    /* \"#utility.yul\":143:144   */\n  0x00\n    /* \"#utility.yul\":140:141   */\n  0x00\n    /* \"#utility.yul\":133:145   */\n  revert\n    /* \"#utility.yul\":77:147   */\ntag_14:\n    /* \"#utility.yul\":14:153   */\n  pop\n  jump\t// out\n    /* \"#utility.yul\":158:594   */\ntag_3:\n    /* \"#utility.yul\":272:278   */\n  0x00\n    /* \"#utility.yul\":280:286   */\n  0x00\n    /* \"#utility.yul\":333:335   */\n  0x40\n    /* \"#utility.yul\":321:330   */\n  dup4\n    /* \"#utility.yul\":312:319   */\n  dup6\n    /* \"#utility.yul\":308:331   */\n  sub\n    /* \"#utility.yul\":304:336   */\n  slt\n    /* \"#utility.yul\":301:353   */\n  iszero\n  tag_16\n  jumpi\n    /* \"#utility.yul\":349:350   */\n  0x00\n    /* \"#utility.yul\":346:347   */\n  0x00\n    /* \"#utility.yul\":339:351   */\n  revert\n    /* \"#utility.yul\":301:353   */\ntag_16:\n    /* \"#utility.yul\":381:390   */\n  dup3\n    /* \"#utility.yul\":375:391   */\n  mload\n    /* \"#utility.yul\":400:439   */\n  tag_17\n    /* \"#utility.yul\":433:438   */\n  dup2\n    /* \"#utility.yul\":400:439   */\n  tag_11\n  jump\t// in\ntag_17:\n    /* \"#utility.yul\":508:510   */\n  0x20\n    /* \"#utility.yul\":493:511   */\n  dup5\n  add\n    /* \"#utility.yul\":487:512   */\n  mload\n    /* \"#utility.yul\":458:463   */\n  swap1\n  swap3\n  pop\n    /* \"#utility.yul\":521:562   */\n  tag_18\n    /* \"#utility.yul\":487:512   */\n  dup2\n    /* \"#utility.yul\":521:562   */\n  tag_11\n  jump\t// in\ntag_18:\n    /* \"#utility.yul\":581:588   */\n  dup1\n    /* \"#utility.yul\":571:588   */\n  swap2\n  pop\n  pop\n    /* \"#utility.yul\":158:594   */\n  swap3\n  pop\n  swap3\n  swap1\n  pop\n  jump\t// out\ntag_12:\n    /* \"src/Claims.sol\":329:3191  contract Claims is IClaims, ReentrancyGuard {... */\n  mload(0x80)\n  mload(0xa0)\n  codecopy(0x00, dataOffset(sub_0), dataSize(sub_0))\n  0x00\n  assignImmutable(\"0x91bb576fe1119b95673556c97f460f2730aaf5e50b5a2b3c73c380bf4786ebe1\")\n  0x00\n  assignImmutable(\"0x7d2aca65cd8181aea74105e2b470fac116fbd6f587d1085ea1412760bb2ab33a\")\n  return(0x00, dataSize(sub_0))\nstop\n\nsub_0: assembly {\n        /* \"src/Claims.sol\":329:3191  contract Claims is IClaims, ReentrancyGuard {... */\n      mstore(0x40, 0x80)\n      callvalue\n      dup1\n      iszero\n      tag_1\n      jumpi\n      revert(0x00, 0x00)\n    tag_1:\n      pop\n      jumpi(tag_2, lt(calldatasize, 0x04))\n      shr(0xe0, calldataload(0x00))\n      dup1\n      0x7f384acf\n      gt\n      tag_11\n      jumpi\n      dup1\n      0x7f384acf\n      eq\n      tag_7\n      jumpi\n      dup1\n      0x9c7e4a66\n      eq\n      tag_8\n      jumpi\n      dup1\n      0xba175dfa\n      eq\n      tag_9\n      jumpi\n      dup1\n      0xc3490263\n      eq\n      tag_10\n      jumpi\n      revert(0x00, 0x00)\n    tag_11:\n      dup1\n      0x02db104b\n      eq\n      tag_3\n      jumpi\n      dup1\n      0x170c62dc\n      eq\n      tag_4\n      jumpi\n      dup1\n      0x317e6d23\n      eq\n      tag_5\n      jumpi\n      dup1\n      0x4e301810\n      eq\n      tag_6\n      jumpi\n    tag_2:\n      revert(0x00, 0x00)\n        /* \"src/Claims.sol\":824:857  IERC20 public immutable ANT_TOKEN */\n    tag_3:\n      tag_12\n      immutable(\"0x7d2aca65cd8181aea74105e2b470fac116fbd6f587d1085ea1412760bb2ab33a\")\n      dup2\n      jump\n    tag_12:\n      mload(0x40)\n      sub(shl(0xa0, 0x01), 0x01)\n        /* \"#utility.yul\":192:224   */\n      swap1\n      swap2\n      and\n        /* \"#utility.yul\":174:225   */\n      dup2\n      mstore\n        /* \"#utility.yul\":162:164   */\n      0x20\n        /* \"#utility.yul\":147:165   */\n      add\n        /* \"src/Claims.sol\":824:857  IERC20 public immutable ANT_TOKEN */\n    tag_14:\n      mload(0x40)\n      dup1\n      swap2\n      sub\n      swap1\n      return\n        /* \"src/Claims.sol\":757:817  mapping(uint256 => uint256) public totalAntClaimedForTokenId */\n    tag_4:\n      tag_16\n      tag_17\n      calldatasize\n      0x04\n      tag_18\n      jump\t// in\n    tag_17:\n      mstore(0x20, 0x01)\n      0x00\n      swap1\n      dup2\n      mstore\n      0x40\n      swap1\n      keccak256\n      sload\n      dup2\n      jump\n    tag_16:\n      mload(0x40)\n        /* \"#utility.yul\":613:638   */\n      swap1\n      dup2\n      mstore\n        /* \"#utility.yul\":601:603   */\n      0x20\n        /* \"#utility.yul\":586:604   */\n      add\n        /* \"src/Claims.sol\":757:817  mapping(uint256 => uint256) public totalAntClaimedForTokenId */\n      tag_14\n        /* \"#utility.yul\":467:644   */\n      jump\n        /* \"src/Claims.sol\":863:905  IAutonomiNFT public immutable AUTONOMI_NFT */\n    tag_5:\n      tag_12\n      immutable(\"0x91bb576fe1119b95673556c97f460f2730aaf5e50b5a2b3c73c380bf4786ebe1\")\n      dup2\n      jump\n        /* \"src/Claims.sol\":619:669  uint256 public constant VESTING_PERIOD_1 = 90 days */\n    tag_6:\n      tag_16\n        /* \"src/Claims.sol\":662:669  90 days */\n      0x76a700\n        /* \"src/Claims.sol\":619:669  uint256 public constant VESTING_PERIOD_1 = 90 days */\n      dup2\n      jump\n        /* \"src/Claims.sol\":687:738  uint256 public constant VESTING_PERIOD_2 = 180 days */\n    tag_7:\n      tag_16\n        /* \"src/Claims.sol\":730:738  180 days */\n      0xed4e00\n        /* \"src/Claims.sol\":687:738  uint256 public constant VESTING_PERIOD_2 = 180 days */\n      dup2\n      jump\n        /* \"src/Claims.sol\":2447:2561  function getClaimable(uint256 tokenId) external view returns (uint256) {... */\n    tag_8:\n      tag_16\n      tag_33\n      calldatasize\n      0x04\n      tag_18\n      jump\t// in\n    tag_33:\n      tag_34\n      jump\t// in\n        /* \"src/Claims.sol\":552:612  uint256 public constant VESTING_START_TIMESTAMP = 1739282400 */\n    tag_9:\n      tag_16\n        /* \"src/Claims.sol\":602:612  1739282400 */\n      0x67ab57e0\n        /* \"src/Claims.sol\":552:612  uint256 public constant VESTING_START_TIMESTAMP = 1739282400 */\n      dup2\n      jump\n        /* \"src/Claims.sol\":1701:2441  function claim(uint256 tokenId, uint256 amount) external nonReentrant {... */\n    tag_10:\n      tag_39\n      tag_40\n      calldatasize\n      0x04\n      tag_41\n      jump\t// in\n    tag_40:\n      tag_42\n      jump\t// in\n    tag_39:\n      stop\n        /* \"src/Claims.sol\":2447:2561  function getClaimable(uint256 tokenId) external view returns (uint256) {... */\n    tag_34:\n        /* \"src/Claims.sol\":2509:2516  uint256 */\n      0x00\n        /* \"src/Claims.sol\":2535:2554  _claimable(tokenId) */\n      tag_44\n        /* \"src/Claims.sol\":2546:2553  tokenId */\n      dup3\n        /* \"src/Claims.sol\":2535:2545  _claimable */\n      tag_45\n        /* \"src/Claims.sol\":2535:2554  _claimable(tokenId) */\n      jump\t// in\n    tag_44:\n        /* \"src/Claims.sol\":2528:2554  return _claimable(tokenId) */\n      swap3\n        /* \"src/Claims.sol\":2447:2561  function getClaimable(uint256 tokenId) external view returns (uint256) {... */\n      swap2\n      pop\n      pop\n      jump\t// out\n        /* \"src/Claims.sol\":1701:2441  function claim(uint256 tokenId, uint256 amount) external nonReentrant {... */\n    tag_42:\n        /* \"lib/openzeppelin-contracts/contracts/utils/ReentrancyGuard.sol\":2500:2521  _nonReentrantBefore() */\n      tag_47\n        /* \"lib/openzeppelin-contracts/contracts/utils/ReentrancyGuard.sol\":2500:2519  _nonReentrantBefore */\n      tag_48\n        /* \"lib/openzeppelin-contracts/contracts/utils/ReentrancyGuard.sol\":2500:2521  _nonReentrantBefore() */\n      jump\t// in\n    tag_47:\n        /* \"src/Claims.sol\":1785:1814  AUTONOMI_NFT.ownerOf(tokenId) */\n      mload(0x40)\n      shl(0xe1, 0x31a9108f)\n      dup2\n      mstore\n      0x04\n      dup2\n      add\n        /* \"#utility.yul\":613:638   */\n      dup4\n      swap1\n      mstore\n        /* \"src/Claims.sol\":1818:1828  msg.sender */\n      caller\n      swap1\n      sub(shl(0xa0, 0x01), 0x01)\n        /* \"src/Claims.sol\":1785:1797  AUTONOMI_NFT */\n      immutable(\"0x91bb576fe1119b95673556c97f460f2730aaf5e50b5a2b3c73c380bf4786ebe1\")\n        /* \"src/Claims.sol\":1785:1805  AUTONOMI_NFT.ownerOf */\n      and\n      swap1\n      0x6352211e\n      swap1\n        /* \"#utility.yul\":586:604   */\n      0x24\n      add\n        /* \"src/Claims.sol\":1785:1814  AUTONOMI_NFT.ownerOf(tokenId) */\n      0x20\n      mload(0x40)\n      dup1\n      dup4\n      sub\n      dup2\n      dup7\n      gas\n      staticcall\n      iszero\n      dup1\n      iszero\n      tag_52\n      jumpi\n      returndatacopy(0x00, 0x00, returndatasize)\n      revert(0x00, returndatasize)\n    tag_52:\n      pop\n      pop\n      pop\n      pop\n      mload(0x40)\n      returndatasize\n      not(0x1f)\n      0x1f\n      dup3\n      add\n      and\n      dup3\n      add\n      dup1\n      0x40\n      mstore\n      pop\n      dup2\n      add\n      swap1\n      tag_53\n      swap2\n      swap1\n      tag_54\n      jump\t// in\n    tag_53:\n      sub(shl(0xa0, 0x01), 0x01)\n        /* \"src/Claims.sol\":1785:1828  AUTONOMI_NFT.ownerOf(tokenId) != msg.sender */\n      and\n      eq\n        /* \"src/Claims.sol\":1781:1876  if (AUTONOMI_NFT.ownerOf(tokenId) != msg.sender) {... */\n      tag_55\n      jumpi\n        /* \"src/Claims.sol\":1851:1865  Unauthorized() */\n      mload(0x40)\n      shl(0xe8, 0x82b429)\n      dup2\n      mstore\n      0x04\n      add\n      mload(0x40)\n      dup1\n      swap2\n      sub\n      swap1\n      revert\n        /* \"src/Claims.sol\":1781:1876  if (AUTONOMI_NFT.ownerOf(tokenId) != msg.sender) {... */\n    tag_55:\n        /* \"src/Claims.sol\":1890:1896  amount */\n      dup1\n        /* \"src/Claims.sol\":1900:1901  0 */\n      0x00\n        /* \"src/Claims.sol\":1890:1901  amount == 0 */\n      sub\n        /* \"src/Claims.sol\":1886:1957  if (amount == 0) {... */\n      tag_56\n      jumpi\n        /* \"src/Claims.sol\":1924:1946  ZeroAmountNotAllowed() */\n      mload(0x40)\n      shl(0xe1, 0x07a1cab5)\n      dup2\n      mstore\n      0x04\n      add\n      mload(0x40)\n      dup1\n      swap2\n      sub\n      swap1\n      revert\n        /* \"src/Claims.sol\":1886:1957  if (amount == 0) {... */\n    tag_56:\n        /* \"src/Claims.sol\":1967:1990  uint256 claimableAmount */\n      0x00\n        /* \"src/Claims.sol\":1993:2012  _claimable(tokenId) */\n      tag_57\n        /* \"src/Claims.sol\":2004:2011  tokenId */\n      dup4\n        /* \"src/Claims.sol\":1993:2003  _claimable */\n      tag_45\n        /* \"src/Claims.sol\":1993:2012  _claimable(tokenId) */\n      jump\t// in\n    tag_57:\n        /* \"src/Claims.sol\":1967:2012  uint256 claimableAmount = _claimable(tokenId) */\n      swap1\n      pop\n        /* \"src/Claims.sol\":2115:2130  claimableAmount */\n      dup1\n        /* \"src/Claims.sol\":2106:2112  amount */\n      dup3\n        /* \"src/Claims.sol\":2106:2130  amount > claimableAmount */\n      gt\n        /* \"src/Claims.sol\":2102:2186  if (amount > claimableAmount) {... */\n      iszero\n      tag_58\n      jumpi\n        /* \"src/Claims.sol\":2153:2175  TryingToClaimTooMuch() */\n      mload(0x40)\n      shl(0xe0, 0xd89f341b)\n      dup2\n      mstore\n      0x04\n      add\n      mload(0x40)\n      dup1\n      swap2\n      sub\n      swap1\n      revert\n        /* \"src/Claims.sol\":2102:2186  if (amount > claimableAmount) {... */\n    tag_58:\n        /* \"src/Claims.sol\":2260:2294  totalAntClaimedForTokenId[tokenId] */\n      0x00\n      dup4\n      dup2\n      mstore\n        /* \"src/Claims.sol\":2260:2285  totalAntClaimedForTokenId */\n      0x01\n        /* \"src/Claims.sol\":2260:2294  totalAntClaimedForTokenId[tokenId] */\n      0x20\n      mstore\n      0x40\n      dup2\n      keccak256\n        /* \"src/Claims.sol\":2260:2304  totalAntClaimedForTokenId[tokenId] += amount */\n      dup1\n      sload\n        /* \"src/Claims.sol\":2298:2304  amount */\n      dup5\n      swap3\n        /* \"src/Claims.sol\":2260:2294  totalAntClaimedForTokenId[tokenId] */\n      swap1\n        /* \"src/Claims.sol\":2260:2304  totalAntClaimedForTokenId[tokenId] += amount */\n      tag_59\n      swap1\n        /* \"src/Claims.sol\":2298:2304  amount */\n      dup5\n      swap1\n        /* \"src/Claims.sol\":2260:2304  totalAntClaimedForTokenId[tokenId] += amount */\n      tag_60\n      jump\t// in\n    tag_59:\n      swap1\n      swap2\n      sstore\n      pop\n        /* \"src/Claims.sol\":2346:2388  ANT_TOKEN.safeTransfer(msg.sender, amount) */\n      tag_61\n      swap1\n      pop\n      sub(shl(0xa0, 0x01), 0x01)\n        /* \"src/Claims.sol\":2346:2355  ANT_TOKEN */\n      immutable(\"0x7d2aca65cd8181aea74105e2b470fac116fbd6f587d1085ea1412760bb2ab33a\")\n        /* \"src/Claims.sol\":2346:2368  ANT_TOKEN.safeTransfer */\n      and\n        /* \"src/Claims.sol\":2369:2379  msg.sender */\n      caller\n        /* \"src/Claims.sol\":2381:2387  amount */\n      dup5\n        /* \"src/Claims.sol\":2346:2368  ANT_TOKEN.safeTransfer */\n      tag_62\n        /* \"src/Claims.sol\":2346:2388  ANT_TOKEN.safeTransfer(msg.sender, amount) */\n      jump\t// in\n    tag_61:\n        /* \"src/Claims.sol\":2404:2434  TokensClaimed(tokenId, amount) */\n      mload(0x40)\n        /* \"src/Claims.sol\":2427:2433  amount */\n      dup3\n      swap1\n        /* \"src/Claims.sol\":2418:2425  tokenId */\n      dup5\n      swap1\n        /* \"src/Claims.sol\":2404:2434  TokensClaimed(tokenId, amount) */\n      0xbde2d72390af9d0444bb1c4f938971ecb673ed26f5f57f8fa44c553fe01d0d3a\n      swap1\n      0x00\n      swap1\n      log3\n        /* \"src/Claims.sol\":1771:2441  {... */\n      pop\n        /* \"lib/openzeppelin-contracts/contracts/utils/ReentrancyGuard.sol\":2542:2562  _nonReentrantAfter() */\n      tag_63\n        /* \"lib/openzeppelin-contracts/contracts/utils/ReentrancyGuard.sol\":1857:1858  1 */\n      0x01\n        /* \"lib/openzeppelin-contracts/contracts/utils/ReentrancyGuard.sol\":3068:3075  _status */\n      0x00\n        /* \"lib/openzeppelin-contracts/contracts/utils/ReentrancyGuard.sol\":3068:3089  _status = NOT_ENTERED */\n      sstore\n        /* \"lib/openzeppelin-contracts/contracts/utils/ReentrancyGuard.sol\":2888:3096  function _nonReentrantAfter() private {... */\n      jump\n        /* \"lib/openzeppelin-contracts/contracts/utils/ReentrancyGuard.sol\":2542:2562  _nonReentrantAfter() */\n    tag_63:\n        /* \"src/Claims.sol\":1701:2441  function claim(uint256 tokenId, uint256 amount) external nonReentrant {... */\n      pop\n      pop\n      jump\t// out\n        /* \"src/Claims.sol\":2567:3189  function _claimable(uint256 tokenId) private view returns (uint256) {... */\n    tag_45:\n        /* \"src/Claims.sol\":2671:2715  AUTONOMI_NFT.tokenIdToAntAllocation(tokenId) */\n      mload(0x40)\n      shl(0xe0, 0xfd70d177)\n      dup2\n      mstore\n      0x04\n      dup2\n      add\n        /* \"#utility.yul\":613:638   */\n      dup3\n      swap1\n      mstore\n        /* \"src/Claims.sol\":2626:2633  uint256 */\n      0x00\n      swap1\n      dup2\n      swap1\n      sub(shl(0xa0, 0x01), 0x01)\n        /* \"src/Claims.sol\":2671:2683  AUTONOMI_NFT */\n      immutable(\"0x91bb576fe1119b95673556c97f460f2730aaf5e50b5a2b3c73c380bf4786ebe1\")\n        /* \"src/Claims.sol\":2671:2706  AUTONOMI_NFT.tokenIdToAntAllocation */\n      and\n      swap1\n      0xfd70d177\n      swap1\n        /* \"#utility.yul\":586:604   */\n      0x24\n      add\n        /* \"src/Claims.sol\":2671:2715  AUTONOMI_NFT.tokenIdToAntAllocation(tokenId) */\n      0x20\n      mload(0x40)\n      dup1\n      dup4\n      sub\n      dup2\n      dup7\n      gas\n      staticcall\n      iszero\n      dup1\n      iszero\n      tag_68\n      jumpi\n      returndatacopy(0x00, 0x00, returndatasize)\n      revert(0x00, returndatasize)\n    tag_68:\n      pop\n      pop\n      pop\n      pop\n      mload(0x40)\n      returndatasize\n      not(0x1f)\n      0x1f\n      dup3\n      add\n      and\n      dup3\n      add\n      dup1\n      0x40\n      mstore\n      pop\n      dup2\n      add\n      swap1\n      tag_69\n      swap2\n      swap1\n      tag_70\n      jump\t// in\n    tag_69:\n        /* \"src/Claims.sol\":2726:2748  uint256 alreadyClaimed */\n      0x00\n        /* \"src/Claims.sol\":2751:2785  totalAntClaimedForTokenId[tokenId] */\n      dup5\n      dup2\n      mstore\n        /* \"src/Claims.sol\":2751:2776  totalAntClaimedForTokenId */\n      0x01\n        /* \"src/Claims.sol\":2751:2785  totalAntClaimedForTokenId[tokenId] */\n      0x20\n      mstore\n      0x40\n      dup2\n      keccak256\n      sload\n        /* \"src/Claims.sol\":2645:2715  uint256 totalAllocation = AUTONOMI_NFT.tokenIdToAntAllocation(tokenId) */\n      swap2\n      swap3\n      pop\n        /* \"src/Claims.sol\":2818:2859  block.timestamp - VESTING_START_TIMESTAMP */\n      tag_71\n        /* \"src/Claims.sol\":602:612  1739282400 */\n      0x67ab57e0\n        /* \"src/Claims.sol\":2818:2833  block.timestamp */\n      timestamp\n        /* \"src/Claims.sol\":2818:2859  block.timestamp - VESTING_START_TIMESTAMP */\n      tag_72\n      jump\t// in\n    tag_71:\n        /* \"src/Claims.sol\":2796:2859  uint256 elapsedTime = block.timestamp - VESTING_START_TIMESTAMP */\n      swap1\n      pop\n        /* \"src/Claims.sol\":2869:2892  uint256 claimableAmount */\n      0x00\n        /* \"src/Claims.sol\":730:738  180 days */\n      0xed4e00\n        /* \"src/Claims.sol\":2911:2942  elapsedTime >= VESTING_PERIOD_2 */\n      dup3\n      lt\n        /* \"src/Claims.sol\":2907:3150  if (elapsedTime >= VESTING_PERIOD_2) {... */\n      tag_73\n      jumpi\n        /* \"src/Claims.sol\":2976:3008  totalAllocation - alreadyClaimed */\n      tag_74\n        /* \"src/Claims.sol\":2994:3008  alreadyClaimed */\n      dup4\n        /* \"src/Claims.sol\":2976:2991  totalAllocation */\n      dup6\n        /* \"src/Claims.sol\":2976:3008  totalAllocation - alreadyClaimed */\n      tag_72\n      jump\t// in\n    tag_74:\n        /* \"src/Claims.sol\":2958:3008  claimableAmount = totalAllocation - alreadyClaimed */\n      swap1\n      pop\n        /* \"src/Claims.sol\":2907:3150  if (elapsedTime >= VESTING_PERIOD_2) {... */\n      jump(tag_76)\n    tag_73:\n        /* \"src/Claims.sol\":662:669  90 days */\n      0x76a700\n        /* \"src/Claims.sol\":3029:3040  elapsedTime */\n      dup3\n        /* \"src/Claims.sol\":3029:3060  elapsedTime >= VESTING_PERIOD_1 */\n      lt\n        /* \"src/Claims.sol\":3025:3150  if (elapsedTime >= VESTING_PERIOD_1) {... */\n      tag_76\n      jumpi\n        /* \"src/Claims.sol\":3125:3139  alreadyClaimed */\n      dup3\n        /* \"src/Claims.sol\":3119:3122  100 */\n      0x64\n        /* \"src/Claims.sol\":3095:3115  totalAllocation * 50 */\n      tag_77\n        /* \"src/Claims.sol\":3095:3110  totalAllocation */\n      dup7\n        /* \"src/Claims.sol\":3113:3115  50 */\n      0x32\n        /* \"src/Claims.sol\":3095:3115  totalAllocation * 50 */\n      tag_78\n      jump\t// in\n    tag_77:\n        /* \"src/Claims.sol\":3094:3122  (totalAllocation * 50) / 100 */\n      tag_79\n      swap2\n      swap1\n      tag_80\n      jump\t// in\n    tag_79:\n        /* \"src/Claims.sol\":3094:3139  (totalAllocation * 50) / 100 - alreadyClaimed */\n      tag_81\n      swap2\n      swap1\n      tag_72\n      jump\t// in\n    tag_81:\n        /* \"src/Claims.sol\":3076:3139  claimableAmount = (totalAllocation * 50) / 100 - alreadyClaimed */\n      swap1\n      pop\n        /* \"src/Claims.sol\":3025:3150  if (elapsedTime >= VESTING_PERIOD_1) {... */\n    tag_76:\n        /* \"src/Claims.sol\":3167:3182  claimableAmount */\n      swap6\n        /* \"src/Claims.sol\":2567:3189  function _claimable(uint256 tokenId) private view returns (uint256) {... */\n      swap5\n      pop\n      pop\n      pop\n      pop\n      pop\n      jump\t// out\n        /* \"lib/openzeppelin-contracts/contracts/utils/ReentrancyGuard.sol\":2575:2882  function _nonReentrantBefore() private {... */\n    tag_48:\n        /* \"lib/openzeppelin-contracts/contracts/utils/ReentrancyGuard.sol\":1899:1900  2 */\n      0x02\n        /* \"lib/openzeppelin-contracts/contracts/utils/ReentrancyGuard.sol\":2702:2709  _status */\n      sload(0x00)\n        /* \"lib/openzeppelin-contracts/contracts/utils/ReentrancyGuard.sol\":2702:2720  _status == ENTERED */\n      sub\n        /* \"lib/openzeppelin-contracts/contracts/utils/ReentrancyGuard.sol\":2698:2784  if (_status == ENTERED) {... */\n      tag_83\n      jumpi\n        /* \"lib/openzeppelin-contracts/contracts/utils/ReentrancyGuard.sol\":2743:2773  ReentrancyGuardReentrantCall() */\n      mload(0x40)\n      shl(0xe0, 0x3ee5aeb5)\n      dup2\n      mstore\n      0x04\n      add\n      mload(0x40)\n      dup1\n      swap2\n      sub\n      swap1\n      revert\n        /* \"lib/openzeppelin-contracts/contracts/utils/ReentrancyGuard.sol\":2698:2784  if (_status == ENTERED) {... */\n    tag_83:\n        /* \"lib/openzeppelin-contracts/contracts/utils/ReentrancyGuard.sol\":1899:1900  2 */\n      0x02\n        /* \"lib/openzeppelin-contracts/contracts/utils/ReentrancyGuard.sol\":2858:2865  _status */\n      0x00\n        /* \"lib/openzeppelin-contracts/contracts/utils/ReentrancyGuard.sol\":2858:2875  _status = ENTERED */\n      sstore\n        /* \"lib/openzeppelin-contracts/contracts/utils/ReentrancyGuard.sol\":2575:2882  function _nonReentrantBefore() private {... */\n      jump\t// out\n        /* \"lib/openzeppelin-contracts/contracts/token/ERC20/utils/SafeERC20.sol\":1219:1379  function safeTransfer(IERC20 token, address to, uint256 value) internal {... */\n    tag_62:\n        /* \"lib/openzeppelin-contracts/contracts/token/ERC20/utils/SafeERC20.sol\":1328:1371  abi.encodeCall(token.transfer, (to, value)) */\n      0x40\n      dup1\n      mload\n      sub(shl(0xa0, 0x01), 0x01)\n        /* \"#utility.yul\":2695:2727   */\n      dup5\n      and\n        /* \"lib/openzeppelin-contracts/contracts/token/ERC20/utils/SafeERC20.sol\":1328:1371  abi.encodeCall(token.transfer, (to, value)) */\n      0x24\n      dup3\n      add\n        /* \"#utility.yul\":2677:2728   */\n      mstore\n        /* \"#utility.yul\":2744:2762   */\n      0x44\n      dup1\n      dup3\n      add\n        /* \"#utility.yul\":2737:2771   */\n      dup5\n      swap1\n      mstore\n        /* \"lib/openzeppelin-contracts/contracts/token/ERC20/utils/SafeERC20.sol\":1328:1371  abi.encodeCall(token.transfer, (to, value)) */\n      dup3\n      mload\n      dup1\n      dup4\n      sub\n      swap1\n      swap2\n      add\n      dup2\n      mstore\n        /* \"#utility.yul\":2650:2668   */\n      0x64\n      swap1\n      swap2\n      add\n        /* \"lib/openzeppelin-contracts/contracts/token/ERC20/utils/SafeERC20.sol\":1328:1371  abi.encodeCall(token.transfer, (to, value)) */\n      swap1\n      swap2\n      mstore\n      0x20\n      dup2\n      add\n      dup1\n      mload\n      sub(shl(0xe0, 0x01), 0x01)\n      and\n      shl(0xe0, 0xa9059cbb)\n      or\n      swap1\n      mstore\n        /* \"lib/openzeppelin-contracts/contracts/token/ERC20/utils/SafeERC20.sol\":1301:1372  _callOptionalReturn(token, abi.encodeCall(token.transfer, (to, value))) */\n      tag_85\n      swap1\n        /* \"lib/openzeppelin-contracts/contracts/token/ERC20/utils/SafeERC20.sol\":1321:1326  token */\n      dup5\n      swap1\n        /* \"lib/openzeppelin-contracts/contracts/token/ERC20/utils/SafeERC20.sol\":1301:1320  _callOptionalReturn */\n      tag_88\n        /* \"lib/openzeppelin-contracts/contracts/token/ERC20/utils/SafeERC20.sol\":1301:1372  _callOptionalReturn(token, abi.encodeCall(token.transfer, (to, value))) */\n      jump\t// in\n    tag_85:\n        /* \"lib/openzeppelin-contracts/contracts/token/ERC20/utils/SafeERC20.sol\":1219:1379  function safeTransfer(IERC20 token, address to, uint256 value) internal {... */\n      pop\n      pop\n      pop\n      jump\t// out\n        /* \"lib/openzeppelin-contracts/contracts/token/ERC20/utils/SafeERC20.sol\":7686:8406  function _callOptionalReturn(IERC20 token, bytes memory data) private {... */\n    tag_88:\n        /* \"lib/openzeppelin-contracts/contracts/token/ERC20/utils/SafeERC20.sol\":7766:7784  uint256 returnSize */\n      0x00\n        /* \"lib/openzeppelin-contracts/contracts/token/ERC20/utils/SafeERC20.sol\":7794:7813  uint256 returnValue */\n      0x00\n        /* \"lib/openzeppelin-contracts/contracts/token/ERC20/utils/SafeERC20.sol\":7932:7936  0x20 */\n      0x20\n        /* \"lib/openzeppelin-contracts/contracts/token/ERC20/utils/SafeERC20.sol\":7929:7930  0 */\n      0x00\n        /* \"lib/openzeppelin-contracts/contracts/token/ERC20/utils/SafeERC20.sol\":7922:7926  data */\n      dup5\n        /* \"lib/openzeppelin-contracts/contracts/token/ERC20/utils/SafeERC20.sol\":7916:7927  mload(data) */\n      mload\n        /* \"lib/openzeppelin-contracts/contracts/token/ERC20/utils/SafeERC20.sol\":7909:7913  0x20 */\n      0x20\n        /* \"lib/openzeppelin-contracts/contracts/token/ERC20/utils/SafeERC20.sol\":7903:7907  data */\n      dup7\n        /* \"lib/openzeppelin-contracts/contracts/token/ERC20/utils/SafeERC20.sol\":7899:7914  add(data, 0x20) */\n      add\n        /* \"lib/openzeppelin-contracts/contracts/token/ERC20/utils/SafeERC20.sol\":7896:7897  0 */\n      0x00\n        /* \"lib/openzeppelin-contracts/contracts/token/ERC20/utils/SafeERC20.sol\":7889:7894  token */\n      dup9\n        /* \"lib/openzeppelin-contracts/contracts/token/ERC20/utils/SafeERC20.sol\":7882:7887  gas() */\n      gas\n        /* \"lib/openzeppelin-contracts/contracts/token/ERC20/utils/SafeERC20.sol\":7877:7937  call(gas(), token, 0, add(data, 0x20), mload(data), 0, 0x20) */\n      call\n        /* \"lib/openzeppelin-contracts/contracts/token/ERC20/utils/SafeERC20.sol\":7989:7996  success */\n      dup1\n        /* \"lib/openzeppelin-contracts/contracts/token/ERC20/utils/SafeERC20.sol\":7979:8155  if iszero(success) {... */\n      tag_91\n      jumpi\n        /* \"lib/openzeppelin-contracts/contracts/token/ERC20/utils/SafeERC20.sol\":8033:8037  0x40 */\n      0x40\n        /* \"lib/openzeppelin-contracts/contracts/token/ERC20/utils/SafeERC20.sol\":8027:8038  mload(0x40) */\n      mload\n        /* \"lib/openzeppelin-contracts/contracts/token/ERC20/utils/SafeERC20.sol\":8078:8094  returndatasize() */\n      returndatasize\n        /* \"lib/openzeppelin-contracts/contracts/token/ERC20/utils/SafeERC20.sol\":8075:8076  0 */\n      0x00\n        /* \"lib/openzeppelin-contracts/contracts/token/ERC20/utils/SafeERC20.sol\":8070:8073  ptr */\n      dup3\n        /* \"lib/openzeppelin-contracts/contracts/token/ERC20/utils/SafeERC20.sol\":8055:8095  returndatacopy(ptr, 0, returndatasize()) */\n      returndatacopy\n        /* \"lib/openzeppelin-contracts/contracts/token/ERC20/utils/SafeERC20.sol\":8124:8140  returndatasize() */\n      returndatasize\n        /* \"lib/openzeppelin-contracts/contracts/token/ERC20/utils/SafeERC20.sol\":8119:8122  ptr */\n      dup2\n        /* \"lib/openzeppelin-contracts/contracts/token/ERC20/utils/SafeERC20.sol\":8112:8141  revert(ptr, returndatasize()) */\n      revert\n        /* \"lib/openzeppelin-contracts/contracts/token/ERC20/utils/SafeERC20.sol\":7979:8155  if iszero(success) {... */\n    tag_91:\n      pop\n      pop\n        /* \"lib/openzeppelin-contracts/contracts/token/ERC20/utils/SafeERC20.sol\":8232:8233  0 */\n      0x00\n        /* \"lib/openzeppelin-contracts/contracts/token/ERC20/utils/SafeERC20.sol\":8226:8234  mload(0) */\n      mload\n        /* \"lib/openzeppelin-contracts/contracts/token/ERC20/utils/SafeERC20.sol\":8182:8198  returndatasize() */\n      returndatasize\n      swap2\n      pop\n        /* \"lib/openzeppelin-contracts/contracts/token/ERC20/utils/SafeERC20.sol\":8258:8273  returnSize == 0 */\n      dup2\n      iszero\n        /* \"lib/openzeppelin-contracts/contracts/token/ERC20/utils/SafeERC20.sol\":8258:8326  returnSize == 0 ? address(token).code.length == 0 : returnValue != 1 */\n      tag_92\n      jumpi\n        /* \"lib/openzeppelin-contracts/contracts/token/ERC20/utils/SafeERC20.sol\":8310:8321  returnValue */\n      dup1\n        /* \"lib/openzeppelin-contracts/contracts/token/ERC20/utils/SafeERC20.sol\":8325:8326  1 */\n      0x01\n        /* \"lib/openzeppelin-contracts/contracts/token/ERC20/utils/SafeERC20.sol\":8310:8326  returnValue != 1 */\n      eq\n      iszero\n        /* \"lib/openzeppelin-contracts/contracts/token/ERC20/utils/SafeERC20.sol\":8258:8326  returnSize == 0 ? address(token).code.length == 0 : returnValue != 1 */\n      jump(tag_93)\n    tag_92:\n      sub(shl(0xa0, 0x01), 0x01)\n        /* \"lib/openzeppelin-contracts/contracts/token/ERC20/utils/SafeERC20.sol\":8276:8302  address(token).code.length */\n      dup5\n      and\n      extcodesize\n        /* \"lib/openzeppelin-contracts/contracts/token/ERC20/utils/SafeERC20.sol\":8276:8307  address(token).code.length == 0 */\n      iszero\n        /* \"lib/openzeppelin-contracts/contracts/token/ERC20/utils/SafeERC20.sol\":8258:8326  returnSize == 0 ? address(token).code.length == 0 : returnValue != 1 */\n    tag_93:\n        /* \"lib/openzeppelin-contracts/contracts/token/ERC20/utils/SafeERC20.sol\":8254:8400  if (returnSize == 0 ? address(token).code.length == 0 : returnValue != 1) {... */\n      iszero\n      tag_94\n      jumpi\n        /* \"lib/openzeppelin-contracts/contracts/token/ERC20/utils/SafeERC20.sol\":8349:8389  SafeERC20FailedOperation(address(token)) */\n      mload(0x40)\n      shl(0xe0, 0x5274afe7)\n      dup2\n      mstore\n      sub(shl(0xa0, 0x01), 0x01)\n        /* \"#utility.yul\":192:224   */\n      dup6\n      and\n        /* \"lib/openzeppelin-contracts/contracts/token/ERC20/utils/SafeERC20.sol\":8349:8389  SafeERC20FailedOperation(address(token)) */\n      0x04\n      dup3\n      add\n        /* \"#utility.yul\":174:225   */\n      mstore\n        /* \"#utility.yul\":147:165   */\n      0x24\n      add\n        /* \"lib/openzeppelin-contracts/contracts/token/ERC20/utils/SafeERC20.sol\":8349:8389  SafeERC20FailedOperation(address(token)) */\n      mload(0x40)\n      dup1\n      swap2\n      sub\n      swap1\n      revert\n        /* \"lib/openzeppelin-contracts/contracts/token/ERC20/utils/SafeERC20.sol\":8254:8400  if (returnSize == 0 ? address(token).code.length == 0 : returnValue != 1) {... */\n    tag_94:\n        /* \"lib/openzeppelin-contracts/contracts/token/ERC20/utils/SafeERC20.sol\":7756:8406  {... */\n      pop\n      pop\n        /* \"lib/openzeppelin-contracts/contracts/token/ERC20/utils/SafeERC20.sol\":7686:8406  function _callOptionalReturn(IERC20 token, bytes memory data) private {... */\n      pop\n      pop\n      jump\t// out\n        /* \"#utility.yul\":236:462   */\n    tag_18:\n        /* \"#utility.yul\":295:301   */\n      0x00\n        /* \"#utility.yul\":348:350   */\n      0x20\n        /* \"#utility.yul\":336:345   */\n      dup3\n        /* \"#utility.yul\":327:334   */\n      dup5\n        /* \"#utility.yul\":323:346   */\n      sub\n        /* \"#utility.yul\":319:351   */\n      slt\n        /* \"#utility.yul\":316:368   */\n      iszero\n      tag_101\n      jumpi\n        /* \"#utility.yul\":364:365   */\n      0x00\n        /* \"#utility.yul\":361:362   */\n      0x00\n        /* \"#utility.yul\":354:366   */\n      revert\n        /* \"#utility.yul\":316:368   */\n    tag_101:\n      pop\n        /* \"#utility.yul\":409:432   */\n      calldataload\n      swap2\n        /* \"#utility.yul\":236:462   */\n      swap1\n      pop\n      jump\t// out\n        /* \"#utility.yul\":878:1224   */\n    tag_41:\n        /* \"#utility.yul\":946:952   */\n      0x00\n        /* \"#utility.yul\":954:960   */\n      0x00\n        /* \"#utility.yul\":1007:1009   */\n      0x40\n        /* \"#utility.yul\":995:1004   */\n      dup4\n        /* \"#utility.yul\":986:993   */\n      dup6\n        /* \"#utility.yul\":982:1005   */\n      sub\n        /* \"#utility.yul\":978:1010   */\n      slt\n        /* \"#utility.yul\":975:1027   */\n      iszero\n      tag_105\n      jumpi\n        /* \"#utility.yul\":1023:1024   */\n      0x00\n        /* \"#utility.yul\":1020:1021   */\n      0x00\n        /* \"#utility.yul\":1013:1025   */\n      revert\n        /* \"#utility.yul\":975:1027   */\n    tag_105:\n      pop\n      pop\n        /* \"#utility.yul\":1068:1091   */\n      dup1\n      calldataload\n      swap3\n        /* \"#utility.yul\":1188:1190   */\n      0x20\n        /* \"#utility.yul\":1173:1191   */\n      swap1\n      swap2\n      add\n        /* \"#utility.yul\":1160:1192   */\n      calldataload\n      swap2\n      pop\n        /* \"#utility.yul\":878:1224   */\n      jump\t// out\n        /* \"#utility.yul\":1229:1519   */\n    tag_54:\n        /* \"#utility.yul\":1299:1305   */\n      0x00\n        /* \"#utility.yul\":1352:1354   */\n      0x20\n        /* \"#utility.yul\":1340:1349   */\n      dup3\n        /* \"#utility.yul\":1331:1338   */\n      dup5\n        /* \"#utility.yul\":1327:1350   */\n      sub\n        /* \"#utility.yul\":1323:1355   */\n      slt\n        /* \"#utility.yul\":1320:1372   */\n      iszero\n      tag_107\n      jumpi\n        /* \"#utility.yul\":1368:1369   */\n      0x00\n        /* \"#utility.yul\":1365:1366   */\n      0x00\n        /* \"#utility.yul\":1358:1370   */\n      revert\n        /* \"#utility.yul\":1320:1372   */\n    tag_107:\n        /* \"#utility.yul\":1394:1410   */\n      dup2\n      mload\n      sub(shl(0xa0, 0x01), 0x01)\n        /* \"#utility.yul\":1439:1470   */\n      dup2\n      and\n        /* \"#utility.yul\":1429:1471   */\n      dup2\n      eq\n        /* \"#utility.yul\":1419:1489   */\n      tag_108\n      jumpi\n        /* \"#utility.yul\":1485:1486   */\n      0x00\n        /* \"#utility.yul\":1482:1483   */\n      0x00\n        /* \"#utility.yul\":1475:1487   */\n      revert\n        /* \"#utility.yul\":1419:1489   */\n    tag_108:\n        /* \"#utility.yul\":1508:1513   */\n      swap4\n        /* \"#utility.yul\":1229:1519   */\n      swap3\n      pop\n      pop\n      pop\n      jump\t// out\n        /* \"#utility.yul\":1524:1651   */\n    tag_97:\n        /* \"#utility.yul\":1585:1595   */\n      0x4e487b71\n        /* \"#utility.yul\":1580:1583   */\n      0xe0\n        /* \"#utility.yul\":1576:1596   */\n      shl\n        /* \"#utility.yul\":1573:1574   */\n      0x00\n        /* \"#utility.yul\":1566:1597   */\n      mstore\n        /* \"#utility.yul\":1616:1620   */\n      0x11\n        /* \"#utility.yul\":1613:1614   */\n      0x04\n        /* \"#utility.yul\":1606:1621   */\n      mstore\n        /* \"#utility.yul\":1640:1644   */\n      0x24\n        /* \"#utility.yul\":1637:1638   */\n      0x00\n        /* \"#utility.yul\":1630:1645   */\n      revert\n        /* \"#utility.yul\":1656:1781   */\n    tag_60:\n        /* \"#utility.yul\":1721:1730   */\n      dup1\n      dup3\n      add\n        /* \"#utility.yul\":1742:1752   */\n      dup1\n      dup3\n      gt\n        /* \"#utility.yul\":1739:1775   */\n      iszero\n      tag_44\n      jumpi\n        /* \"#utility.yul\":1755:1773   */\n      tag_44\n      tag_97\n      jump\t// in\n        /* \"#utility.yul\":1786:1970   */\n    tag_70:\n        /* \"#utility.yul\":1856:1862   */\n      0x00\n        /* \"#utility.yul\":1909:1911   */\n      0x20\n        /* \"#utility.yul\":1897:1906   */\n      dup3\n        /* \"#utility.yul\":1888:1895   */\n      dup5\n        /* \"#utility.yul\":1884:1907   */\n      sub\n        /* \"#utility.yul\":1880:1912   */\n      slt\n        /* \"#utility.yul\":1877:1929   */\n      iszero\n      tag_114\n      jumpi\n        /* \"#utility.yul\":1925:1926   */\n      0x00\n        /* \"#utility.yul\":1922:1923   */\n      0x00\n        /* \"#utility.yul\":1915:1927   */\n      revert\n        /* \"#utility.yul\":1877:1929   */\n    tag_114:\n      pop\n        /* \"#utility.yul\":1948:1964   */\n      mload\n      swap2\n        /* \"#utility.yul\":1786:1970   */\n      swap1\n      pop\n      jump\t// out\n        /* \"#utility.yul\":1975:2103   */\n    tag_72:\n        /* \"#utility.yul\":2042:2051   */\n      dup2\n      dup2\n      sub\n        /* \"#utility.yul\":2063:2074   */\n      dup2\n      dup2\n      gt\n        /* \"#utility.yul\":2060:2097   */\n      iszero\n      tag_44\n      jumpi\n        /* \"#utility.yul\":2077:2095   */\n      tag_44\n      tag_97\n      jump\t// in\n        /* \"#utility.yul\":2108:2276   */\n    tag_78:\n        /* \"#utility.yul\":2181:2190   */\n      dup1\n      dup3\n      mul\n        /* \"#utility.yul\":2212:2221   */\n      dup2\n      iszero\n        /* \"#utility.yul\":2229:2244   */\n      dup3\n      dup3\n      div\n        /* \"#utility.yul\":2223:2245   */\n      dup5\n      eq\n        /* \"#utility.yul\":2209:2246   */\n      or\n        /* \"#utility.yul\":2199:2270   */\n      tag_44\n      jumpi\n        /* \"#utility.yul\":2250:2268   */\n      tag_44\n      tag_97\n      jump\t// in\n        /* \"#utility.yul\":2281:2498   */\n    tag_80:\n        /* \"#utility.yul\":2321:2322   */\n      0x00\n        /* \"#utility.yul\":2347:2348   */\n      dup3\n        /* \"#utility.yul\":2337:2469   */\n      tag_122\n      jumpi\n        /* \"#utility.yul\":2391:2401   */\n      0x4e487b71\n        /* \"#utility.yul\":2386:2389   */\n      0xe0\n        /* \"#utility.yul\":2382:2402   */\n      shl\n        /* \"#utility.yul\":2379:2380   */\n      0x00\n        /* \"#utility.yul\":2372:2403   */\n      mstore\n        /* \"#utility.yul\":2426:2430   */\n      0x12\n        /* \"#utility.yul\":2423:2424   */\n      0x04\n        /* \"#utility.yul\":2416:2431   */\n      mstore\n        /* \"#utility.yul\":2454:2458   */\n      0x24\n        /* \"#utility.yul\":2451:2452   */\n      0x00\n        /* \"#utility.yul\":2444:2459   */\n      revert\n        /* \"#utility.yul\":2337:2469   */\n    tag_122:\n      pop\n        /* \"#utility.yul\":2483:2492   */\n      div\n      swap1\n        /* \"#utility.yul\":2281:2498   */\n      jump\t// out\n\n    auxdata: 0xa26469706673582212206656b7213bc8277a0f7604268390558531e8d78ec4c04eef60f4c11b849d08cd64736f6c634300081c0033\n}\n",
				"bytecode": {
					"linkReferences": {},
					"object": "60c060405234801561000f575f5ffd5b5060405161072a38038061072a83398101604081905261002e9161009b565b60015f556001600160a01b038216158061004f57506001600160a01b038116155b1561006d576040516342bcdf7f60e11b815260040160405180910390fd5b6001600160a01b039182166080521660a0526100d3565b6001600160a01b0381168114610098575f5ffd5b50565b5f5f604083850312156100ac575f5ffd5b82516100b781610084565b60208401519092506100c881610084565b809150509250929050565b60805160a0516106236101075f395f818160ff015281816101a0015261032f01525f8181608e01526102ac01526106235ff3fe608060405234801561000f575f5ffd5b5060043610610085575f3560e01c80637f384acf116100585780637f384acf1461012b5780639c7e4a6614610135578063ba175dfa14610148578063c349026314610153575f5ffd5b806302db104b14610089578063170c62dc146100cd578063317e6d23146100fa5780634e30181014610121575b5f5ffd5b6100b07f000000000000000000000000000000000000000000000000000000000000000081565b6040516001600160a01b0390911681526020015b60405180910390f35b6100ec6100db366004610502565b60016020525f908152604090205481565b6040519081526020016100c4565b6100b07f000000000000000000000000000000000000000000000000000000000000000081565b6100ec6276a70081565b6100ec62ed4e0081565b6100ec610143366004610502565b610168565b6100ec6367ab57e081565b610166610161366004610519565b610178565b005b5f6101728261030d565b92915050565b61018061040d565b6040516331a9108f60e11b81526004810183905233906001600160a01b037f00000000000000000000000000000000000000000000000000000000000000001690636352211e90602401602060405180830381865afa1580156101e5573d5f5f3e3d5ffd5b505050506040513d601f19601f820116820180604052508101906102099190610539565b6001600160a01b03161461022f576040516282b42960e81b815260040160405180910390fd5b805f0361024f576040516307a1cab560e11b815260040160405180910390fd5b5f6102598361030d565b90508082111561027c5760405163d89f341b60e01b815260040160405180910390fd5b5f838152600160205260408120805484929061029990849061057a565b909155506102d390506001600160a01b037f0000000000000000000000000000000000000000000000000000000000000000163384610435565b604051829084907fbde2d72390af9d0444bb1c4f938971ecb673ed26f5f57f8fa44c553fe01d0d3a905f90a35061030960015f55565b5050565b60405163fd70d17760e01b8152600481018290525f9081906001600160a01b037f0000000000000000000000000000000000000000000000000000000000000000169063fd70d17790602401602060405180830381865afa158015610374573d5f5f3e3d5ffd5b505050506040513d601f19601f82011682018060405250810190610398919061058d565b5f848152600160205260408120549192506103b76367ab57e0426105a4565b90505f62ed4e0082106103d5576103ce83856105a4565b9050610404565b6276a7008210610404578260646103ed8660326105b7565b6103f791906105ce565b61040191906105a4565b90505b95945050505050565b60025f540361042f57604051633ee5aeb560e01b815260040160405180910390fd5b60025f55565b604080516001600160a01b038416602482015260448082018490528251808303909101815260649091019091526020810180516001600160e01b031663a9059cbb60e01b17905261048790849061048c565b505050565b5f5f60205f8451602086015f885af1806104ab576040513d5f823e3d81fd5b50505f513d915081156104c25780600114156104cf565b6001600160a01b0384163b155b156104fc57604051635274afe760e01b81526001600160a01b038516600482015260240160405180910390fd5b50505050565b5f60208284031215610512575f5ffd5b5035919050565b5f5f6040838503121561052a575f5ffd5b50508035926020909101359150565b5f60208284031215610549575f5ffd5b81516001600160a01b038116811461055f575f5ffd5b9392505050565b634e487b7160e01b5f52601160045260245ffd5b8082018082111561017257610172610566565b5f6020828403121561059d575f5ffd5b5051919050565b8181038181111561017257610172610566565b808202811582820484141761017257610172610566565b5f826105e857634e487b7160e01b5f52601260045260245ffd5b50049056fea26469706673582212206656b7213bc8277a0f7604268390558531e8d78ec4c04eef60f4c11b849d08cd64736f6c634300081c0033",
					"opcodes": "PUSH1 0xC0 PUSH1 0x40 MSTORE CALLVALUE DUP1 ISZERO PUSH2 0xF JUMPI PUSH0 PUSH0 REVERT JUMPDEST POP PUSH1 0x40 MLOAD PUSH2 0x72A CODESIZE SUB DUP1 PUSH2 0x72A DUP4 CODECOPY DUP2 ADD PUSH1 0x40 DUP2 SWAP1 MSTORE PUSH2 0x2E SWAP2 PUSH2 0x9B JUMP JUMPDEST PUSH1 0x1 PUSH0 SSTORE PUSH1 0x1 PUSH1 0x1 PUSH1 0xA0 SHL SUB DUP3 AND ISZERO DUP1 PUSH2 0x4F JUMPI POP PUSH1 0x1 PUSH1 0x1 PUSH1 0xA0 SHL SUB DUP2 AND ISZERO JUMPDEST ISZERO PUSH2 0x6D JUMPI PUSH1 0x40 MLOAD PUSH4 0x42BCDF7F PUSH1 0xE1 SHL DUP2 MSTORE PUSH1 0x4 ADD PUSH1 0x40 MLOAD DUP1 SWAP2 SUB SWAP1 REVERT JUMPDEST PUSH1 0x1 PUSH1 0x1 PUSH1 0xA0 SHL SUB SWAP2 DUP3 AND PUSH1 0x80 MSTORE AND PUSH1 0xA0 MSTORE PUSH2 0xD3 JUMP JUMPDEST PUSH1 0x1 PUSH1 0x1 PUSH1 0xA0 SHL SUB DUP2 AND DUP2 EQ PUSH2 0x98 JUMPI PUSH0 PUSH0 REVERT JUMPDEST POP JUMP JUMPDEST PUSH0 PUSH0 PUSH1 0x40 DUP4 DUP6 SUB SLT ISZERO PUSH2 0xAC JUMPI PUSH0 PUSH0 REVERT JUMPDEST DUP3 MLOAD PUSH2 0xB7 DUP2 PUSH2 0x84 JUMP JUMPDEST PUSH1 0x20 DUP5 ADD MLOAD SWAP1 SWAP3 POP PUSH2 0xC8 DUP2 PUSH2 0x84 JUMP JUMPDEST DUP1 SWAP2 POP POP SWAP3 POP SWAP3 SWAP1 POP JUMP JUMPDEST PUSH1 0x80 MLOAD PUSH1 0xA0 MLOAD PUSH2 0x623 PUSH2 0x107 PUSH0 CODECOPY PUSH0 DUP2 DUP2 PUSH1 0xFF ADD MSTORE DUP2 DUP2 PUSH2 0x1A0 ADD MSTORE PUSH2 0x32F ADD MSTORE PUSH0 DUP2 DUP2 PUSH1 0x8E ADD MSTORE PUSH2 0x2AC ADD MSTORE PUSH2 0x623 PUSH0 RETURN INVALID PUSH1 0x80 PUSH1 0x40 MSTORE CALLVALUE DUP1 ISZERO PUSH2 0xF JUMPI PUSH0 PUSH0 REVERT JUMPDEST POP PUSH1 0x4 CALLDATASIZE LT PUSH2 0x85 JUMPI PUSH0 CALLDATALOAD PUSH1 0xE0 SHR DUP1 PUSH4 0x7F384ACF GT PUSH2 0x58 JUMPI DUP1 PUSH4 0x7F384ACF EQ PUSH2 0x12B JUMPI DUP1 PUSH4 0x9C7E4A66 EQ PUSH2 0x135 JUMPI DUP1 PUSH4 0xBA175DFA EQ PUSH2 0x148 JUMPI DUP1 PUSH4 0xC3490263 EQ PUSH2 0x153 JUMPI PUSH0 PUSH0 REVERT JUMPDEST DUP1 PUSH4 0x2DB104B EQ PUSH2 0x89 JUMPI DUP1 PUSH4 0x170C62DC EQ PUSH2 0xCD JUMPI DUP1 PUSH4 0x317E6D23 EQ PUSH2 0xFA JUMPI DUP1 PUSH4 0x4E301810 EQ PUSH2 0x121 JUMPI JUMPDEST PUSH0 PUSH0 REVERT JUMPDEST PUSH2 0xB0 PUSH32 0x0 DUP2 JUMP JUMPDEST PUSH1 0x40 MLOAD PUSH1 0x1 PUSH1 0x1 PUSH1 0xA0 SHL SUB SWAP1 SWAP2 AND DUP2 MSTORE PUSH1 0x20 ADD JUMPDEST PUSH1 0x40 MLOAD DUP1 SWAP2 SUB SWAP1 RETURN JUMPDEST PUSH2 0xEC PUSH2 0xDB CALLDATASIZE PUSH1 0x4 PUSH2 0x502 JUMP JUMPDEST PUSH1 0x1 PUSH1 0x20 MSTORE PUSH0 SWAP1 DUP2 MSTORE PUSH1 0x40 SWAP1 KECCAK256 SLOAD DUP2 JUMP JUMPDEST PUSH1 0x40 MLOAD SWAP1 DUP2 MSTORE PUSH1 0x20 ADD PUSH2 0xC4 JUMP JUMPDEST PUSH2 0xB0 PUSH32 0x0 DUP2 JUMP JUMPDEST PUSH2 0xEC PUSH3 0x76A700 DUP2 JUMP JUMPDEST PUSH2 0xEC PUSH3 0xED4E00 DUP2 JUMP JUMPDEST PUSH2 0xEC PUSH2 0x143 CALLDATASIZE PUSH1 0x4 PUSH2 0x502 JUMP JUMPDEST PUSH2 0x168 JUMP JUMPDEST PUSH2 0xEC PUSH4 0x67AB57E0 DUP2 JUMP JUMPDEST PUSH2 0x166 PUSH2 0x161 CALLDATASIZE PUSH1 0x4 PUSH2 0x519 JUMP JUMPDEST PUSH2 0x178 JUMP JUMPDEST STOP JUMPDEST PUSH0 PUSH2 0x172 DUP3 PUSH2 0x30D JUMP JUMPDEST SWAP3 SWAP2 POP POP JUMP JUMPDEST PUSH2 0x180 PUSH2 0x40D JUMP JUMPDEST PUSH1 0x40 MLOAD PUSH4 0x31A9108F PUSH1 0xE1 SHL DUP2 MSTORE PUSH1 0x4 DUP2 ADD DUP4 SWAP1 MSTORE CALLER SWAP1 PUSH1 0x1 PUSH1 0x1 PUSH1 0xA0 SHL SUB PUSH32 0x0 AND SWAP1 PUSH4 0x6352211E SWAP1 PUSH1 0x24 ADD PUSH1 0x20 PUSH1 0x40 MLOAD DUP1 DUP4 SUB DUP2 DUP7 GAS STATICCALL ISZERO DUP1 ISZERO PUSH2 0x1E5 JUMPI RETURNDATASIZE PUSH0 PUSH0 RETURNDATACOPY RETURNDATASIZE PUSH0 REVERT JUMPDEST POP POP POP POP PUSH1 0x40 MLOAD RETURNDATASIZE PUSH1 0x1F NOT PUSH1 0x1F DUP3 ADD AND DUP3 ADD DUP1 PUSH1 0x40 MSTORE POP DUP2 ADD SWAP1 PUSH2 0x209 SWAP2 SWAP1 PUSH2 0x539 JUMP JUMPDEST PUSH1 0x1 PUSH1 0x1 PUSH1 0xA0 SHL SUB AND EQ PUSH2 0x22F JUMPI PUSH1 0x40 MLOAD PUSH3 0x82B429 PUSH1 0xE8 SHL DUP2 MSTORE PUSH1 0x4 ADD PUSH1 0x40 MLOAD DUP1 SWAP2 SUB SWAP1 REVERT JUMPDEST DUP1 PUSH0 SUB PUSH2 0x24F JUMPI PUSH1 0x40 MLOAD PUSH4 0x7A1CAB5 PUSH1 0xE1 SHL DUP2 MSTORE PUSH1 0x4 ADD PUSH1 0x40 MLOAD DUP1 SWAP2 SUB SWAP1 REVERT JUMPDEST PUSH0 PUSH2 0x259 DUP4 PUSH2 0x30D JUMP JUMPDEST SWAP1 POP DUP1 DUP3 GT ISZERO PUSH2 0x27C JUMPI PUSH1 0x40 MLOAD PUSH4 0xD89F341B PUSH1 0xE0 SHL DUP2 MSTORE PUSH1 0x4 ADD PUSH1 0x40 MLOAD DUP1 SWAP2 SUB SWAP1 REVERT JUMPDEST PUSH0 DUP4 DUP2 MSTORE PUSH1 0x1 PUSH1 0x20 MSTORE PUSH1 0x40 DUP2 KECCAK256 DUP1 SLOAD DUP5 SWAP3 SWAP1 PUSH2 0x299 SWAP1 DUP5 SWAP1 PUSH2 0x57A JUMP JUMPDEST SWAP1 SWAP2 SSTORE POP PUSH2 0x2D3 SWAP1 POP PUSH1 0x1 PUSH1 0x1 PUSH1 0xA0 SHL SUB PUSH32 0x0 AND CALLER DUP5 PUSH2 0x435 JUMP JUMPDEST PUSH1 0x40 MLOAD DUP3 SWAP1 DUP5 SWAP1 PUSH32 0xBDE2D72390AF9D0444BB1C4F938971ECB673ED26F5F57F8FA44C553FE01D0D3A SWAP1 PUSH0 SWAP1 LOG3 POP PUSH2 0x309 PUSH1 0x1 PUSH0 SSTORE JUMP JUMPDEST POP POP JUMP JUMPDEST PUSH1 0x40 MLOAD PUSH4 0xFD70D177 PUSH1 0xE0 SHL DUP2 MSTORE PUSH1 0x4 DUP2 ADD DUP3 SWAP1 MSTORE PUSH0 SWAP1 DUP2 SWAP1 PUSH1 0x1 PUSH1 0x1 PUSH1 0xA0 SHL SUB PUSH32 0x0 AND SWAP1 PUSH4 0xFD70D177 SWAP1 PUSH1 0x24 ADD PUSH1 0x20 PUSH1 0x40 MLOAD DUP1 DUP4 SUB DUP2 DUP7 GAS STATICCALL ISZERO DUP1 ISZERO PUSH2 0x374 JUMPI RETURNDATASIZE PUSH0 PUSH0 RETURNDATACOPY RETURNDATASIZE PUSH0 REVERT JUMPDEST POP POP POP POP PUSH1 0x40 MLOAD RETURNDATASIZE PUSH1 0x1F NOT PUSH1 0x1F DUP3 ADD AND DUP3 ADD DUP1 PUSH1 0x40 MSTORE POP DUP2 ADD SWAP1 PUSH2 0x398 SWAP2 SWAP1 PUSH2 0x58D JUMP JUMPDEST PUSH0 DUP5 DUP2 MSTORE PUSH1 0x1 PUSH1 0x20 MSTORE PUSH1 0x40 DUP2 KECCAK256 SLOAD SWAP2 SWAP3 POP PUSH2 0x3B7 PUSH4 0x67AB57E0 TIMESTAMP PUSH2 0x5A4 JUMP JUMPDEST SWAP1 POP PUSH0 PUSH3 0xED4E00 DUP3 LT PUSH2 0x3D5 JUMPI PUSH2 0x3CE DUP4 DUP6 PUSH2 0x5A4 JUMP JUMPDEST SWAP1 POP PUSH2 0x404 JUMP JUMPDEST PUSH3 0x76A700 DUP3 LT PUSH2 0x404 JUMPI DUP3 PUSH1 0x64 PUSH2 0x3ED DUP7 PUSH1 0x32 PUSH2 0x5B7 JUMP JUMPDEST PUSH2 0x3F7 SWAP2 SWAP1 PUSH2 0x5CE JUMP JUMPDEST PUSH2 0x401 SWAP2 SWAP1 PUSH2 0x5A4 JUMP JUMPDEST SWAP1 POP JUMPDEST SWAP6 SWAP5 POP POP POP POP POP JUMP JUMPDEST PUSH1 0x2 PUSH0 SLOAD SUB PUSH2 0x42F JUMPI PUSH1 0x40 MLOAD PUSH4 0x3EE5AEB5 PUSH1 0xE0 SHL DUP2 MSTORE PUSH1 0x4 ADD PUSH1 0x40 MLOAD DUP1 SWAP2 SUB SWAP1 REVERT JUMPDEST PUSH1 0x2 PUSH0 SSTORE JUMP JUMPDEST PUSH1 0x40 DUP1 MLOAD PUSH1 0x1 PUSH1 0x1 PUSH1 0xA0 SHL SUB DUP5 AND PUSH1 0x24 DUP3 ADD MSTORE PUSH1 0x44 DUP1 DUP3 ADD DUP5 SWAP1 MSTORE DUP3 MLOAD DUP1 DUP4 SUB SWAP1 SWAP2 ADD DUP2 MSTORE PUSH1 0x64 SWAP1 SWAP2 ADD SWAP1 SWAP2 MSTORE PUSH1 0x20 DUP2 ADD DUP1 MLOAD PUSH1 0x1 PUSH1 0x1 PUSH1 0xE0 SHL SUB AND PUSH4 0xA9059CBB PUSH1 0xE0 SHL OR SWAP1 MSTORE PUSH2 0x487 SWAP1 DUP5 SWAP1 PUSH2 0x48C JUMP JUMPDEST POP POP POP JUMP JUMPDEST PUSH0 PUSH0 PUSH1 0x20 PUSH0 DUP5 MLOAD PUSH1 0x20 DUP7 ADD PUSH0 DUP9 GAS CALL DUP1 PUSH2 0x4AB JUMPI PUSH1 0x40 MLOAD RETURNDATASIZE PUSH0 DUP3 RETURNDATACOPY RETURNDATASIZE DUP2 REVERT JUMPDEST POP POP PUSH0 MLOAD RETURNDATASIZE SWAP2 POP DUP2 ISZERO PUSH2 0x4C2 JUMPI DUP1 PUSH1 0x1 EQ ISZERO PUSH2 0x4CF JUMP JUMPDEST PUSH1 0x1 PUSH1 0x1 PUSH1 0xA0 SHL SUB DUP5 AND EXTCODESIZE ISZERO JUMPDEST ISZERO PUSH2 0x4FC JUMPI PUSH1 0x40 MLOAD PUSH4 0x5274AFE7 PUSH1 0xE0 SHL DUP2 MSTORE PUSH1 0x1 PUSH1 0x1 PUSH1 0xA0 SHL SUB DUP6 AND PUSH1 0x4 DUP3 ADD MSTORE PUSH1 0x24 ADD PUSH1 0x40 MLOAD DUP1 SWAP2 SUB SWAP1 REVERT JUMPDEST POP POP POP POP JUMP JUMPDEST PUSH0 PUSH1 0x20 DUP3 DUP5 SUB SLT ISZERO PUSH2 0x512 JUMPI PUSH0 PUSH0 REVERT JUMPDEST POP CALLDATALOAD SWAP2 SWAP1 POP JUMP JUMPDEST PUSH0 PUSH0 PUSH1 0x40 DUP4 DUP6 SUB SLT ISZERO PUSH2 0x52A JUMPI PUSH0 PUSH0 REVERT JUMPDEST POP POP DUP1 CALLDATALOAD SWAP3 PUSH1 0x20 SWAP1 SWAP2 ADD CALLDATALOAD SWAP2 POP JUMP JUMPDEST PUSH0 PUSH1 0x20 DUP3 DUP5 SUB SLT ISZERO PUSH2 0x549 JUMPI PUSH0 PUSH0 REVERT JUMPDEST DUP2 MLOAD PUSH1 0x1 PUSH1 0x1 PUSH1 0xA0 SHL SUB DUP2 AND DUP2 EQ PUSH2 0x55F JUMPI PUSH0 PUSH0 REVERT JUMPDEST SWAP4 SWAP3 POP POP POP JUMP JUMPDEST PUSH4 0x4E487B71 PUSH1 0xE0 SHL PUSH0 MSTORE PUSH1 0x11 PUSH1 0x4 MSTORE PUSH1 0x24 PUSH0 REVERT JUMPDEST DUP1 DUP3 ADD DUP1 DUP3 GT ISZERO PUSH2 0x172 JUMPI PUSH2 0x172 PUSH2 0x566 JUMP JUMPDEST PUSH0 PUSH1 0x20 DUP3 DUP5 SUB SLT ISZERO PUSH2 0x59D JUMPI PUSH0 PUSH0 REVERT JUMPDEST POP MLOAD SWAP2 SWAP1 POP JUMP JUMPDEST DUP2 DUP2 SUB DUP2 DUP2 GT ISZERO PUSH2 0x172 JUMPI PUSH2 0x172 PUSH2 0x566 JUMP JUMPDEST DUP1 DUP3 MUL DUP2 ISZERO DUP3 DUP3 DIV DUP5 EQ OR PUSH2 0x172 JUMPI PUSH2 0x172 PUSH2 0x566 JUMP JUMPDEST PUSH0 DUP3 PUSH2 0x5E8 JUMPI PUSH4 0x4E487B71 PUSH1 0xE0 SHL PUSH0 MSTORE PUSH1 0x12 PUSH1 0x4 MSTORE PUSH1 0x24 PUSH0 REVERT JUMPDEST POP DIV SWAP1 JUMP INVALID LOG2 PUSH5 0x6970667358 0x22 SLT KECCAK256 PUSH7 0x56B7213BC8277A 0xF PUSH23 0x4268390558531E8D78EC4C04EEF60F4C11B849D08CD64 PUSH20 0x6F6C634300081C00330000000000000000000000 "
				},
				"gasEstimates": {
					"creation": {
						"codeDepositCost": "314200",
						"executionCost": "infinite",
						"totalCost": "infinite"
					},
					"external": {
						"ANT_TOKEN()": "infinite",
						"AUTONOMI_NFT()": "infinite",
						"VESTING_PERIOD_1()": "261",
						"VESTING_PERIOD_2()": "194",
						"VESTING_START_TIMESTAMP()": "238",
						"claim(uint256,uint256)": "infinite",
						"getClaimable(uint256)": "infinite",
						"totalAntClaimedForTokenId(uint256)": "2458"
					},
					"internal": {
						"_claimable(uint256)": "infinite"
					}
				},
				"methodIdentifiers": {
					"ANT_TOKEN()": "02db104b",
					"AUTONOMI_NFT()": "317e6d23",
					"VESTING_PERIOD_1()": "4e301810",
					"VESTING_PERIOD_2()": "7f384acf",
					"VESTING_START_TIMESTAMP()": "ba175dfa",
					"claim(uint256,uint256)": "c3490263",
					"getClaimable(uint256)": "9c7e4a66",
					"totalAntClaimedForTokenId(uint256)": "170c62dc"
				}
			},
			"storageLayout": {
				"storage": [
					{
						"astId": 704,
						"contract": "src/Claims.sol:Claims",
						"label": "_status",
						"offset": 0,
						"slot": "0",
						"type": "t_uint256"
					},
					{
						"astId": 808,
						"contract": "src/Claims.sol:Claims",
						"label": "totalAntClaimedForTokenId",
						"offset": 0,
						"slot": "1",
						"type": "t_mapping(t_uint256,t_uint256)"
					}
				],
				"types": {
					"t_mapping(t_uint256,t_uint256)": {
						"encoding": "mapping",
						"key": "t_uint256",
						"label": "mapping(uint256 => uint256)",
						"numberOfBytes": "32",
						"value": "t_uint256"
					},
					"t_uint256": {
						"encoding": "inplace",
						"label": "uint256",
						"numberOfBytes": "32"
					}
				}
			},
			"userdoc": {
				"kind": "user",
				"methods": {},
				"version": 1
			}
		}
	}
}